{
  "contractName": "GigEconomy",
  "abi": [
    {
      "inputs": [],
      "stateMutability": "nonpayable",
      "type": "constructor"
    },
    {
      "anonymous": false,
      "inputs": [
        {
          "indexed": false,
          "internalType": "uint256",
          "name": "jobId",
          "type": "uint256"
        },
        {
          "indexed": true,
          "internalType": "address",
          "name": "user",
          "type": "address"
        }
      ],
      "name": "DisputeRaised",
      "type": "event"
    },
    {
      "anonymous": false,
      "inputs": [
        {
          "indexed": false,
          "internalType": "uint256",
          "name": "jobId",
          "type": "uint256"
        },
        {
          "indexed": false,
          "internalType": "string",
          "name": "decision",
          "type": "string"
        }
      ],
      "name": "DisputeResolved",
      "type": "event"
    },
    {
      "anonymous": false,
      "inputs": [
        {
          "indexed": false,
          "internalType": "uint256",
          "name": "jobId",
          "type": "uint256"
        },
        {
          "indexed": true,
          "internalType": "address",
          "name": "applicant",
          "type": "address"
        }
      ],
      "name": "JobApplied",
      "type": "event"
    },
    {
      "anonymous": false,
      "inputs": [
        {
          "indexed": false,
          "internalType": "uint256",
          "name": "jobId",
          "type": "uint256"
        },
        {
          "indexed": true,
          "internalType": "address",
          "name": "worker",
          "type": "address"
        }
      ],
      "name": "JobCompleted",
      "type": "event"
    },
    {
      "anonymous": false,
      "inputs": [
        {
          "indexed": false,
          "internalType": "uint256",
          "name": "jobId",
          "type": "uint256"
        },
        {
          "indexed": true,
          "internalType": "address",
          "name": "client",
          "type": "address"
        },
        {
          "indexed": false,
          "internalType": "string",
          "name": "description",
          "type": "string"
        },
        {
          "indexed": false,
          "internalType": "uint256",
          "name": "payment",
          "type": "uint256"
        }
      ],
      "name": "JobPosted",
      "type": "event"
    },
    {
      "anonymous": false,
      "inputs": [
        {
          "indexed": false,
          "internalType": "uint256",
          "name": "jobId",
          "type": "uint256"
        },
        {
          "indexed": true,
          "internalType": "address",
          "name": "worker",
          "type": "address"
        },
        {
          "indexed": false,
          "internalType": "uint256",
          "name": "amount",
          "type": "uint256"
        }
      ],
      "name": "PaymentReleased",
      "type": "event"
    },
    {
      "anonymous": false,
      "inputs": [
        {
          "indexed": true,
          "internalType": "address",
          "name": "target",
          "type": "address"
        },
        {
          "indexed": true,
          "internalType": "address",
          "name": "rater",
          "type": "address"
        },
        {
          "indexed": false,
          "internalType": "uint8",
          "name": "rating",
          "type": "uint8"
        }
      ],
      "name": "RatingGiven",
      "type": "event"
    },
    {
      "anonymous": false,
      "inputs": [
        {
          "indexed": true,
          "internalType": "address",
          "name": "worker",
          "type": "address"
        },
        {
          "indexed": false,
          "internalType": "string",
          "name": "name",
          "type": "string"
        },
        {
          "indexed": false,
          "internalType": "string",
          "name": "skill",
          "type": "string"
        }
      ],
      "name": "WorkerRegistered",
      "type": "event"
    },
    {
      "anonymous": false,
      "inputs": [
        {
          "indexed": false,
          "internalType": "uint256",
          "name": "jobId",
          "type": "uint256"
        },
        {
          "indexed": true,
          "internalType": "address",
          "name": "worker",
          "type": "address"
        }
      ],
      "name": "WorkerSelected",
      "type": "event"
    },
    {
      "inputs": [
        {
          "internalType": "address",
          "name": "",
          "type": "address"
        }
      ],
      "name": "clients",
      "outputs": [
        {
          "internalType": "uint256",
          "name": "totalRatings",
          "type": "uint256"
        },
        {
          "internalType": "uint256",
          "name": "sumRatings",
          "type": "uint256"
        }
      ],
      "stateMutability": "view",
      "type": "function",
      "constant": true
    },
    {
      "inputs": [],
      "name": "jobCounter",
      "outputs": [
        {
          "internalType": "uint256",
          "name": "",
          "type": "uint256"
        }
      ],
      "stateMutability": "view",
      "type": "function",
      "constant": true
    },
    {
      "inputs": [
        {
          "internalType": "uint256",
          "name": "",
          "type": "uint256"
        }
      ],
      "name": "jobs",
      "outputs": [
        {
          "internalType": "address",
          "name": "client",
          "type": "address"
        },
        {
          "internalType": "address",
          "name": "worker",
          "type": "address"
        },
        {
          "internalType": "string",
          "name": "description",
          "type": "string"
        },
        {
          "internalType": "uint256",
          "name": "payment",
          "type": "uint256"
        },
        {
          "internalType": "bool",
          "name": "isCompleted",
          "type": "bool"
        },
        {
          "internalType": "bool",
          "name": "isPaid",
          "type": "bool"
        },
        {
          "internalType": "bool",
          "name": "disputeRaised",
          "type": "bool"
        },
        {
          "internalType": "bool",
          "name": "workerRated",
          "type": "bool"
        },
        {
          "internalType": "bool",
          "name": "clientRated",
          "type": "bool"
        }
      ],
      "stateMutability": "view",
      "type": "function",
      "constant": true
    },
    {
      "inputs": [],
      "name": "owner",
      "outputs": [
        {
          "internalType": "address",
          "name": "",
          "type": "address"
        }
      ],
      "stateMutability": "view",
      "type": "function",
      "constant": true
    },
    {
      "inputs": [
        {
          "internalType": "address",
          "name": "",
          "type": "address"
        }
      ],
      "name": "workers",
      "outputs": [
        {
          "internalType": "string",
          "name": "name",
          "type": "string"
        },
        {
          "internalType": "string",
          "name": "skill",
          "type": "string"
        },
        {
          "internalType": "uint256",
          "name": "completedTasks",
          "type": "uint256"
        },
        {
          "internalType": "address payable",
          "name": "wallet",
          "type": "address"
        },
        {
          "internalType": "bool",
          "name": "isRegistered",
          "type": "bool"
        },
        {
          "internalType": "uint256",
          "name": "totalRatings",
          "type": "uint256"
        },
        {
          "internalType": "uint256",
          "name": "sumRatings",
          "type": "uint256"
        }
      ],
      "stateMutability": "view",
      "type": "function",
      "constant": true
    },
    {
      "stateMutability": "payable",
      "type": "receive",
      "payable": true
    },
    {
      "inputs": [
        {
          "internalType": "string",
          "name": "_name",
          "type": "string"
        },
        {
          "internalType": "string",
          "name": "_skill",
          "type": "string"
        }
      ],
      "name": "registerWorker",
      "outputs": [],
      "stateMutability": "nonpayable",
      "type": "function"
    },
    {
      "inputs": [
        {
          "internalType": "string",
          "name": "_description",
          "type": "string"
        },
        {
          "internalType": "uint256",
          "name": "_payment",
          "type": "uint256"
        }
      ],
      "name": "postJob",
      "outputs": [],
      "stateMutability": "payable",
      "type": "function",
      "payable": true
    },
    {
      "inputs": [
        {
          "internalType": "uint256",
          "name": "_jobId",
          "type": "uint256"
        }
      ],
      "name": "applyForJob",
      "outputs": [],
      "stateMutability": "nonpayable",
      "type": "function"
    },
    {
      "inputs": [
        {
          "internalType": "uint256",
          "name": "_jobId",
          "type": "uint256"
        },
        {
          "internalType": "address",
          "name": "_workerAddress",
          "type": "address"
        }
      ],
      "name": "selectWorker",
      "outputs": [],
      "stateMutability": "nonpayable",
      "type": "function"
    },
    {
      "inputs": [
        {
          "internalType": "uint256",
          "name": "_jobId",
          "type": "uint256"
        }
      ],
      "name": "completeJob",
      "outputs": [],
      "stateMutability": "nonpayable",
      "type": "function"
    },
    {
      "inputs": [
        {
          "internalType": "uint256",
          "name": "_jobId",
          "type": "uint256"
        }
      ],
      "name": "releasePayment",
      "outputs": [],
      "stateMutability": "nonpayable",
      "type": "function"
    },
    {
      "inputs": [
        {
          "internalType": "uint256",
          "name": "_jobId",
          "type": "uint256"
        }
      ],
      "name": "raiseDispute",
      "outputs": [],
      "stateMutability": "nonpayable",
      "type": "function"
    },
    {
      "inputs": [
        {
          "internalType": "uint256",
          "name": "_jobId",
          "type": "uint256"
        }
      ],
      "name": "resolveDispute",
      "outputs": [],
      "stateMutability": "nonpayable",
      "type": "function"
    },
    {
      "inputs": [
        {
          "internalType": "uint8",
          "name": "_rating",
          "type": "uint8"
        },
        {
          "internalType": "uint256",
          "name": "_jobId",
          "type": "uint256"
        }
      ],
      "name": "rateClient",
      "outputs": [],
      "stateMutability": "nonpayable",
      "type": "function"
    },
    {
      "inputs": [
        {
          "internalType": "address",
          "name": "_worker",
          "type": "address"
        }
      ],
      "name": "getWorkerStats",
      "outputs": [
        {
          "internalType": "uint256",
          "name": "completedJobs",
          "type": "uint256"
        },
        {
          "internalType": "uint256",
          "name": "averageRating",
          "type": "uint256"
        }
      ],
      "stateMutability": "view",
      "type": "function",
      "constant": true
    },
    {
      "inputs": [
        {
          "internalType": "uint8",
          "name": "_rating",
          "type": "uint8"
        },
        {
          "internalType": "uint256",
          "name": "_jobId",
          "type": "uint256"
        }
      ],
      "name": "rateWorker",
      "outputs": [],
      "stateMutability": "nonpayable",
      "type": "function"
    },
    {
      "inputs": [
        {
          "internalType": "uint256",
          "name": "_jobId",
          "type": "uint256"
        }
      ],
      "name": "getJob",
      "outputs": [
        {
          "internalType": "address",
          "name": "client",
          "type": "address"
        },
        {
          "internalType": "address",
          "name": "worker",
          "type": "address"
        },
        {
          "internalType": "string",
          "name": "description",
          "type": "string"
        },
        {
          "internalType": "uint256",
          "name": "payment",
          "type": "uint256"
        },
        {
          "internalType": "bool",
          "name": "isCompleted",
          "type": "bool"
        },
        {
          "internalType": "bool",
          "name": "isPaid",
          "type": "bool"
        },
        {
          "internalType": "bool",
          "name": "disputeRaised",
          "type": "bool"
        },
        {
          "internalType": "bool",
          "name": "workerRated",
          "type": "bool"
        },
        {
          "internalType": "bool",
          "name": "clientRated",
          "type": "bool"
        },
        {
          "internalType": "address[]",
          "name": "applicants",
          "type": "address[]"
        }
      ],
      "stateMutability": "view",
      "type": "function",
      "constant": true
    }
  ],
  "bytecode": "0x608060405234801561000f575f80fd5b503360035f6101000a81548173ffffffffffffffffffffffffffffffffffffffff021916908373ffffffffffffffffffffffffffffffffffffffff16021790555060016004819055506151bc806100655f395ff3fe608060405260043610610101575f3560e01c806388685cd911610094578063bf22c45711610063578063bf22c45714610350578063c2b7b86814610395578063e0c94ae5146103bd578063eb9a4e93146103e5578063f76a6c2f1461040157610108565b806388685cd9146102ae5780638da5cb5b146102d6578063a1c0d32f14610300578063a5c1674e1461032857610108565b8063382b865a116100d0578063382b865a146101dd5780634048a2571461020557806350355d761461024757806361eed2a91461027157610108565b80631481cbb91461010c578063180aedf3146101345780632857a4af14610178578063365ba2dd146101a057610108565b3661010857005b5f80fd5b348015610117575f80fd5b50610132600480360381019061012d919061335f565b610429565b005b34801561013f575f80fd5b5061015a6004803603810190610155919061339d565b6107f0565b60405161016f999897969594939291906134ba565b60405180910390f35b348015610183575f80fd5b5061019e600480360381019061019991906135ad565b61093e565b005b3480156101ab575f80fd5b506101c660048036038101906101c19190613655565b610c37565b6040516101d4929190613680565b60405180910390f35b3480156101e8575f80fd5b5061020360048036038101906101fe91906136a7565b610d44565b005b348015610210575f80fd5b5061022b60048036038101906102269190613655565b611141565b60405161023e9796959493929190613705565b60405180910390f35b348015610252575f80fd5b5061025b6112b6565b6040516102689190613780565b60405180910390f35b34801561027c575f80fd5b5061029760048036038101906102929190613655565b6112bc565b6040516102a5929190613680565b60405180910390f35b3480156102b9575f80fd5b506102d460048036038101906102cf919061339d565b6112dc565b005b3480156102e1575f80fd5b506102ea6116d1565b6040516102f79190613799565b60405180910390f35b34801561030b575f80fd5b506103266004803603810190610321919061339d565b6116f6565b005b348015610333575f80fd5b5061034e6004803603810190610349919061339d565b6119ef565b005b34801561035b575f80fd5b506103766004803603810190610371919061339d565b611cf3565b60405161038c9a99989796959493929190613869565b60405180910390f35b3480156103a0575f80fd5b506103bb60048036038101906103b6919061339d565b611f42565b005b3480156103c8575f80fd5b506103e360048036038101906103de919061339d565b6126bf565b005b6103ff60048036038101906103fa9190613911565b612acb565b005b34801561040c575f80fd5b506104276004803603810190610422919061335f565b612e8b565b005b805f8111801561043a575060045481105b610479576040517f08c379a0000000000000000000000000000000000000000000000000000000008152600401610470906139b8565b60405180910390fd5b60018360ff1610158015610491575060058360ff1611155b6104d0576040517f08c379a00000000000000000000000000000000000000000000000000000000081526004016104c790613a20565b60405180910390fd5b5f60015f8481526020019081526020015f2090503373ffffffffffffffffffffffffffffffffffffffff16815f015f9054906101000a900473ffffffffffffffffffffffffffffffffffffffff1673ffffffffffffffffffffffffffffffffffffffff1614610574576040517f08c379a000000000000000000000000000000000000000000000000000000000815260040161056b90613a88565b60405180910390fd5b806004015f9054906101000a900460ff166105c4576040517f08c379a00000000000000000000000000000000000000000000000000000000081526004016105bb90613b16565b60405180910390fd5b5f73ffffffffffffffffffffffffffffffffffffffff16816001015f9054906101000a900473ffffffffffffffffffffffffffffffffffffffff1673ffffffffffffffffffffffffffffffffffffffff1603610655576040517f08c379a000000000000000000000000000000000000000000000000000000000815260040161064c90613b7e565b60405180910390fd5b5f15158160040160039054906101000a900460ff161515146106ac576040517f08c379a00000000000000000000000000000000000000000000000000000000081526004016106a390613be6565b60405180910390fd5b5f805f836001015f9054906101000a900473ffffffffffffffffffffffffffffffffffffffff1673ffffffffffffffffffffffffffffffffffffffff1673ffffffffffffffffffffffffffffffffffffffff1681526020019081526020015f209050806004015f81548092919061072290613c31565b91905055508460ff16816005015f82825461073d9190613c78565b9250508190555060018260040160036101000a81548160ff0219169083151502179055503373ffffffffffffffffffffffffffffffffffffffff16826001015f9054906101000a900473ffffffffffffffffffffffffffffffffffffffff1673ffffffffffffffffffffffffffffffffffffffff167fa0b84effa00aeb81bb29f7a2eaf0cdd5e084b3e44d8136acf1661062d250b447876040516107e19190613cba565b60405180910390a35050505050565b6001602052805f5260405f205f91509050805f015f9054906101000a900473ffffffffffffffffffffffffffffffffffffffff1690806001015f9054906101000a900473ffffffffffffffffffffffffffffffffffffffff169080600201805461085990613d00565b80601f016020809104026020016040519081016040528092919081815260200182805461088590613d00565b80156108d05780601f106108a7576101008083540402835291602001916108d0565b820191905f5260205f20905b8154815290600101906020018083116108b357829003601f168201915b505050505090806003015490806004015f9054906101000a900460ff16908060040160019054906101000a900460ff16908060040160029054906101000a900460ff16908060040160039054906101000a900460ff16908060040160049054906101000a900460ff16905089565b5f803373ffffffffffffffffffffffffffffffffffffffff1673ffffffffffffffffffffffffffffffffffffffff1681526020019081526020015f2060030160149054906101000a900460ff16156109cb576040517f08c379a00000000000000000000000000000000000000000000000000000000081526004016109c290613d7a565b60405180910390fd5b5f848490501180156109df57505f82829050115b610a1e576040517f08c379a0000000000000000000000000000000000000000000000000000000008152600401610a1590613de2565b60405180910390fd5b6040518060e0016040528085858080601f0160208091040260200160405190810160405280939291908181526020018383808284375f81840152601f19601f82011690508083019250505050505050815260200183838080601f0160208091040260200160405190810160405280939291908181526020018383808284375f81840152601f19601f8201169050808301925050505050505081526020015f81526020013373ffffffffffffffffffffffffffffffffffffffff1681526020016001151581526020015f81526020015f8152505f803373ffffffffffffffffffffffffffffffffffffffff1673ffffffffffffffffffffffffffffffffffffffff1681526020019081526020015f205f820151815f019081610b3f9190613fca565b506020820151816001019081610b559190613fca565b50604082015181600201556060820151816003015f6101000a81548173ffffffffffffffffffffffffffffffffffffffff021916908373ffffffffffffffffffffffffffffffffffffffff16021790555060808201518160030160146101000a81548160ff02191690831515021790555060a0820151816004015560c082015181600501559050503373ffffffffffffffffffffffffffffffffffffffff167f608281547001972cd2b7f630473ea4db08acd5957d8a575e9e1c5ae59ce03a1585858585604051610c2994939291906140d3565b60405180910390a250505050565b5f805f808473ffffffffffffffffffffffffffffffffffffffff1673ffffffffffffffffffffffffffffffffffffffff1681526020019081526020015f2060030160149054906101000a900460ff16610cc5576040517f08c379a0000000000000000000000000000000000000000000000000000000008152600401610cbc90614156565b60405180910390fd5b5f805f8573ffffffffffffffffffffffffffffffffffffffff1673ffffffffffffffffffffffffffffffffffffffff1681526020019081526020015f2090505f81600401541115610d3357806002015481600401548260050154610d2991906141a1565b9250925050610d3f565b80600201545f92509250505b915091565b815f81118015610d55575060045481105b610d94576040517f08c379a0000000000000000000000000000000000000000000000000000000008152600401610d8b906139b8565b60405180910390fd5b8260015f8281526020019081526020015f2060040160029054906101000a900460ff1615610df7576040517f08c379a0000000000000000000000000000000000000000000000000000000008152600401610dee9061421b565b60405180910390fd5b835f73ffffffffffffffffffffffffffffffffffffffff1660015f8381526020019081526020015f206001015f9054906101000a900473ffffffffffffffffffffffffffffffffffffffff1673ffffffffffffffffffffffffffffffffffffffff1614610e99576040517f08c379a0000000000000000000000000000000000000000000000000000000008152600401610e90906142a9565b60405180910390fd5b5f60015f8781526020019081526020015f2090503373ffffffffffffffffffffffffffffffffffffffff16815f015f9054906101000a900473ffffffffffffffffffffffffffffffffffffffff1673ffffffffffffffffffffffffffffffffffffffff1614610f3d576040517f08c379a0000000000000000000000000000000000000000000000000000000008152600401610f3490614337565b60405180910390fd5b5f808673ffffffffffffffffffffffffffffffffffffffff1673ffffffffffffffffffffffffffffffffffffffff1681526020019081526020015f2060030160149054906101000a900460ff16610fc9576040517f08c379a0000000000000000000000000000000000000000000000000000000008152600401610fc0906143c5565b60405180910390fd5b5f805b8260050180549050811015611067578673ffffffffffffffffffffffffffffffffffffffff16836005018281548110611008576110076143e3565b5b905f5260205f20015f9054906101000a900473ffffffffffffffffffffffffffffffffffffffff1673ffffffffffffffffffffffffffffffffffffffff16036110545760019150611067565b808061105f90613c31565b915050610fcc565b50806110a8576040517f08c379a000000000000000000000000000000000000000000000000000000000815260040161109f90614480565b60405180910390fd5b85826001015f6101000a81548173ffffffffffffffffffffffffffffffffffffffff021916908373ffffffffffffffffffffffffffffffffffffffff1602179055508573ffffffffffffffffffffffffffffffffffffffff167f3f21f8feb66724c3afed3428a04fab631ec22a91ea687abdc4798a58458cfa35886040516111309190613780565b60405180910390a250505050505050565b5f602052805f5260405f205f91509050805f01805461115f90613d00565b80601f016020809104026020016040519081016040528092919081815260200182805461118b90613d00565b80156111d65780601f106111ad576101008083540402835291602001916111d6565b820191905f5260205f20905b8154815290600101906020018083116111b957829003601f168201915b5050505050908060010180546111eb90613d00565b80601f016020809104026020016040519081016040528092919081815260200182805461121790613d00565b80156112625780601f1061123957610100808354040283529160200191611262565b820191905f5260205f20905b81548152906001019060200180831161124557829003601f168201915b505050505090806002015490806003015f9054906101000a900473ffffffffffffffffffffffffffffffffffffffff16908060030160149054906101000a900460ff16908060040154908060050154905087565b60045481565b6002602052805f5260405f205f91509050805f0154908060010154905082565b805f811180156112ed575060045481105b61132c576040517f08c379a0000000000000000000000000000000000000000000000000000000008152600401611323906139b8565b60405180910390fd5b8160015f8281526020019081526020015f2060040160029054906101000a900460ff161561138f576040517f08c379a00000000000000000000000000000000000000000000000000000000081526004016113869061421b565b60405180910390fd5b5f60015f8581526020019081526020015f2090503373ffffffffffffffffffffffffffffffffffffffff16815f015f9054906101000a900473ffffffffffffffffffffffffffffffffffffffff1673ffffffffffffffffffffffffffffffffffffffff1614611433576040517f08c379a000000000000000000000000000000000000000000000000000000000815260040161142a9061450e565b60405180910390fd5b806004015f9054906101000a900460ff16611483576040517f08c379a000000000000000000000000000000000000000000000000000000000815260040161147a90614576565b60405180910390fd5b8060040160019054906101000a900460ff16156114d5576040517f08c379a00000000000000000000000000000000000000000000000000000000081526004016114cc906145de565b60405180910390fd5b5f73ffffffffffffffffffffffffffffffffffffffff16816001015f9054906101000a900473ffffffffffffffffffffffffffffffffffffffff1673ffffffffffffffffffffffffffffffffffffffff1603611566576040517f08c379a000000000000000000000000000000000000000000000000000000000815260040161155d90614646565b60405180910390fd5b60018160040160016101000a81548160ff0219169083151502179055505f816003015490505f826001015f9054906101000a900473ffffffffffffffffffffffffffffffffffffffff1673ffffffffffffffffffffffffffffffffffffffff16826040516115d390614691565b5f6040518083038185875af1925050503d805f811461160d576040519150601f19603f3d011682016040523d82523d5f602084013e611612565b606091505b5050905080611656576040517f08c379a000000000000000000000000000000000000000000000000000000000815260040161164d906146ef565b60405180910390fd5b826001015f9054906101000a900473ffffffffffffffffffffffffffffffffffffffff1673ffffffffffffffffffffffffffffffffffffffff167f21d71db5be59bb9fa133895586b7404307dd33fb93b16db09dc6f1d9d7d231b087846040516116c1929190613680565b60405180910390a2505050505050565b60035f9054906101000a900473ffffffffffffffffffffffffffffffffffffffff1681565b5f803373ffffffffffffffffffffffffffffffffffffffff1673ffffffffffffffffffffffffffffffffffffffff1681526020019081526020015f2060030160149054906101000a900460ff16611782576040517f08c379a000000000000000000000000000000000000000000000000000000000815260040161177990614757565b60405180910390fd5b805f81118015611793575060045481105b6117d2576040517f08c379a00000000000000000000000000000000000000000000000000000000081526004016117c9906139b8565b60405180910390fd5b8160015f8281526020019081526020015f2060040160029054906101000a900460ff1615611835576040517f08c379a000000000000000000000000000000000000000000000000000000000815260040161182c9061421b565b60405180910390fd5b5f60015f8581526020019081526020015f2090503373ffffffffffffffffffffffffffffffffffffffff16816001015f9054906101000a900473ffffffffffffffffffffffffffffffffffffffff1673ffffffffffffffffffffffffffffffffffffffff16146118da576040517f08c379a00000000000000000000000000000000000000000000000000000000081526004016118d1906147bf565b60405180910390fd5b806004015f9054906101000a900460ff161561192b576040517f08c379a000000000000000000000000000000000000000000000000000000000815260040161192290614827565b60405180910390fd5b6001816004015f6101000a81548160ff0219169083151502179055505f803373ffffffffffffffffffffffffffffffffffffffff1673ffffffffffffffffffffffffffffffffffffffff1681526020019081526020015f206002015f81548092919061199690613c31565b91905055503373ffffffffffffffffffffffffffffffffffffffff167f16a7286196330eaff0c7db2ec34ead9c6d2d023b356b62ee7ea644c842a84b67856040516119e19190613780565b60405180910390a250505050565b805f81118015611a00575060045481105b611a3f576040517f08c379a0000000000000000000000000000000000000000000000000000000008152600401611a36906139b8565b60405180910390fd5b8160015f8281526020019081526020015f2060040160029054906101000a900460ff1615611aa2576040517f08c379a0000000000000000000000000000000000000000000000000000000008152600401611a999061421b565b60405180910390fd5b5f60015f8581526020019081526020015f2090505f73ffffffffffffffffffffffffffffffffffffffff16816001015f9054906101000a900473ffffffffffffffffffffffffffffffffffffffff1673ffffffffffffffffffffffffffffffffffffffff1603611b47576040517f08c379a0000000000000000000000000000000000000000000000000000000008152600401611b3e90614646565b60405180910390fd5b806001015f9054906101000a900473ffffffffffffffffffffffffffffffffffffffff1673ffffffffffffffffffffffffffffffffffffffff163373ffffffffffffffffffffffffffffffffffffffff161480611bf15750805f015f9054906101000a900473ffffffffffffffffffffffffffffffffffffffff1673ffffffffffffffffffffffffffffffffffffffff163373ffffffffffffffffffffffffffffffffffffffff16145b611c30576040517f08c379a0000000000000000000000000000000000000000000000000000000008152600401611c279061488f565b60405180910390fd5b8060040160019054906101000a900460ff1615611c82576040517f08c379a0000000000000000000000000000000000000000000000000000000008152600401611c799061491d565b60405180910390fd5b60018160040160026101000a81548160ff0219169083151502179055503373ffffffffffffffffffffffffffffffffffffffff167f84a477df8a28a4276ca6dee4458a06c3015f30c477d9c949ede4e13ff8a552b485604051611ce59190613780565b60405180910390a250505050565b5f8060605f805f805f8060608a5f81118015611d10575060045481105b611d4f576040517f08c379a0000000000000000000000000000000000000000000000000000000008152600401611d46906139b8565b60405180910390fd5b5f60015f8e81526020019081526020015f209050805f015f9054906101000a900473ffffffffffffffffffffffffffffffffffffffff16816001015f9054906101000a900473ffffffffffffffffffffffffffffffffffffffff16826002018360030154846004015f9054906101000a900460ff168560040160019054906101000a900460ff168660040160029054906101000a900460ff168760040160039054906101000a900460ff168860040160049054906101000a900460ff1689600501878054611e1c90613d00565b80601f0160208091040260200160405190810160405280929190818152602001828054611e4890613d00565b8015611e935780601f10611e6a57610100808354040283529160200191611e93565b820191905f5260205f20905b815481529060010190602001808311611e7657829003601f168201915b5050505050975080805480602002602001604051908101604052809291908181526020018280548015611f1857602002820191905f5260205f20905b815f9054906101000a900473ffffffffffffffffffffffffffffffffffffffff1673ffffffffffffffffffffffffffffffffffffffff1681526020019060010190808311611ecf575b505050505090509b509b509b509b509b509b509b509b509b509b5050509193959799509193959799565b60035f9054906101000a900473ffffffffffffffffffffffffffffffffffffffff1673ffffffffffffffffffffffffffffffffffffffff163373ffffffffffffffffffffffffffffffffffffffff1614611fd1576040517f08c379a0000000000000000000000000000000000000000000000000000000008152600401611fc8906149ab565b60405180910390fd5b805f81118015611fe2575060045481105b612021576040517f08c379a0000000000000000000000000000000000000000000000000000000008152600401612018906139b8565b60405180910390fd5b5f60015f8481526020019081526020015f2090508060040160029054906101000a900460ff16612086576040517f08c379a000000000000000000000000000000000000000000000000000000000815260040161207d90614a13565b60405180910390fd5b8060040160019054906101000a900460ff16156120d8576040517f08c379a00000000000000000000000000000000000000000000000000000000081526004016120cf906145de565b60405180910390fd5b5f73ffffffffffffffffffffffffffffffffffffffff16816001015f9054906101000a900473ffffffffffffffffffffffffffffffffffffffff1673ffffffffffffffffffffffffffffffffffffffff1603612169576040517f08c379a000000000000000000000000000000000000000000000000000000000815260040161216090614aa1565b60405180910390fd5b60018160040160016101000a81548160ff0219169083151502179055505f60025f835f015f9054906101000a900473ffffffffffffffffffffffffffffffffffffffff1673ffffffffffffffffffffffffffffffffffffffff1673ffffffffffffffffffffffffffffffffffffffff1681526020019081526020015f2090505f805f846001015f9054906101000a900473ffffffffffffffffffffffffffffffffffffffff1673ffffffffffffffffffffffffffffffffffffffff1673ffffffffffffffffffffffffffffffffffffffff1681526020019081526020015f2090505f80835f01541161225c576003612270565b825f0154836001015461226f91906141a1565b5b90505f8083600401541161228557600361229a565b8260040154836005015461229991906141a1565b5b905081810361249a575f600286600301546122b591906141a1565b90505f865f015f9054906101000a900473ffffffffffffffffffffffffffffffffffffffff1673ffffffffffffffffffffffffffffffffffffffff16826040516122fe90614691565b5f6040518083038185875af1925050503d805f8114612338576040519150601f19603f3d011682016040523d82523d5f602084013e61233d565b606091505b5050905080612381576040517f08c379a000000000000000000000000000000000000000000000000000000000815260040161237890614b2f565b60405180910390fd5b5f876001015f9054906101000a900473ffffffffffffffffffffffffffffffffffffffff1673ffffffffffffffffffffffffffffffffffffffff168389600301546123cc9190614b4d565b6040516123d890614691565b5f6040518083038185875af1925050503d805f8114612412576040519150601f19603f3d011682016040523d82523d5f602084013e612417565b606091505b505090508061245b576040517f08c379a000000000000000000000000000000000000000000000000000000000815260040161245290614bf0565b60405180910390fd5b7f831764ac02a33c193cba23a0de34c986e9b50402bf3c9febf6ff2f63d4c0435d8a60405161248a9190614c7e565b60405180910390a15050506126b6565b818111156125ae575f856001015f9054906101000a900473ffffffffffffffffffffffffffffffffffffffff1673ffffffffffffffffffffffffffffffffffffffff1686600301546040516124ee90614691565b5f6040518083038185875af1925050503d805f8114612528576040519150601f19603f3d011682016040523d82523d5f602084013e61252d565b606091505b5050905080612571576040517f08c379a000000000000000000000000000000000000000000000000000000000815260040161256890614bf0565b60405180910390fd5b7f831764ac02a33c193cba23a0de34c986e9b50402bf3c9febf6ff2f63d4c0435d886040516125a09190614cf4565b60405180910390a1506126b5565b5f855f015f9054906101000a900473ffffffffffffffffffffffffffffffffffffffff1673ffffffffffffffffffffffffffffffffffffffff1686600301546040516125f990614691565b5f6040518083038185875af1925050503d805f8114612633576040519150601f19603f3d011682016040523d82523d5f602084013e612638565b606091505b505090508061267c576040517f08c379a000000000000000000000000000000000000000000000000000000000815260040161267390614b2f565b60405180910390fd5b7f831764ac02a33c193cba23a0de34c986e9b50402bf3c9febf6ff2f63d4c0435d886040516126ab9190614d6a565b60405180910390a1505b5b50505050505050565b5f803373ffffffffffffffffffffffffffffffffffffffff1673ffffffffffffffffffffffffffffffffffffffff1681526020019081526020015f2060030160149054906101000a900460ff1661274b576040517f08c379a000000000000000000000000000000000000000000000000000000000815260040161274290614757565b60405180910390fd5b805f8111801561275c575060045481105b61279b576040517f08c379a0000000000000000000000000000000000000000000000000000000008152600401612792906139b8565b60405180910390fd5b815f73ffffffffffffffffffffffffffffffffffffffff1660015f8381526020019081526020015f206001015f9054906101000a900473ffffffffffffffffffffffffffffffffffffffff1673ffffffffffffffffffffffffffffffffffffffff161461283d576040517f08c379a0000000000000000000000000000000000000000000000000000000008152600401612834906142a9565b60405180910390fd5b8260015f8281526020019081526020015f2060040160029054906101000a900460ff16156128a0576040517f08c379a00000000000000000000000000000000000000000000000000000000081526004016128979061421b565b60405180910390fd5b5f60015f8681526020019081526020015f2090503373ffffffffffffffffffffffffffffffffffffffff16815f015f9054906101000a900473ffffffffffffffffffffffffffffffffffffffff1673ffffffffffffffffffffffffffffffffffffffff1603612944576040517f08c379a000000000000000000000000000000000000000000000000000000000815260040161293b90614de0565b60405180910390fd5b5f5b8160050180549050811015612a13573373ffffffffffffffffffffffffffffffffffffffff16826005018281548110612982576129816143e3565b5b905f5260205f20015f9054906101000a900473ffffffffffffffffffffffffffffffffffffffff1673ffffffffffffffffffffffffffffffffffffffff1603612a00576040517f08c379a00000000000000000000000000000000000000000000000000000000081526004016129f790614e6e565b60405180910390fd5b8080612a0b90613c31565b915050612946565b508060050133908060018154018082558091505060019003905f5260205f20015f9091909190916101000a81548173ffffffffffffffffffffffffffffffffffffffff021916908373ffffffffffffffffffffffffffffffffffffffff1602179055503373ffffffffffffffffffffffffffffffffffffffff167fffa837d183240a5f25cbd643a8eade702c0c9c3e186c59c7d929e4f1a3438d8686604051612abc9190613780565b60405180910390a25050505050565b5f8383905011612b10576040517f08c379a0000000000000000000000000000000000000000000000000000000008152600401612b0790614ed6565b60405180910390fd5b803414612b52576040517f08c379a0000000000000000000000000000000000000000000000000000000008152600401612b4990614f3e565b60405180910390fd5b5f8111612b94576040517f08c379a0000000000000000000000000000000000000000000000000000000008152600401612b8b90614fa6565b60405180910390fd5b6040518061014001604052803373ffffffffffffffffffffffffffffffffffffffff1681526020015f73ffffffffffffffffffffffffffffffffffffffff16815260200184848080601f0160208091040260200160405190810160405280939291908181526020018383808284375f81840152601f19601f8201169050808301925050505050505081526020018281526020015f151581526020015f151581526020015f151581526020015f151581526020015f151581526020015f67ffffffffffffffff811115612c6957612c68613e00565b5b604051908082528060200260200182016040528015612c975781602001602082028036833780820191505090505b5081525060015f60045481526020019081526020015f205f820151815f015f6101000a81548173ffffffffffffffffffffffffffffffffffffffff021916908373ffffffffffffffffffffffffffffffffffffffff1602179055506020820151816001015f6101000a81548173ffffffffffffffffffffffffffffffffffffffff021916908373ffffffffffffffffffffffffffffffffffffffff1602179055506040820151816002019081612d4d9190613fca565b50606082015181600301556080820151816004015f6101000a81548160ff02191690831515021790555060a08201518160040160016101000a81548160ff02191690831515021790555060c08201518160040160026101000a81548160ff02191690831515021790555060e08201518160040160036101000a81548160ff0219169083151502179055506101008201518160040160046101000a81548160ff021916908315150217905550610120820151816005019080519060200190612e1592919061324c565b509050503373ffffffffffffffffffffffffffffffffffffffff167fd347156c0e050f531434f3eac5fc2137040ab077ca656f465275ebe566aaf115600454858585604051612e679493929190614fc4565b60405180910390a260045f815480929190612e8190613c31565b9190505550505050565b5f803373ffffffffffffffffffffffffffffffffffffffff1673ffffffffffffffffffffffffffffffffffffffff1681526020019081526020015f2060030160149054906101000a900460ff16612f17576040517f08c379a0000000000000000000000000000000000000000000000000000000008152600401612f0e90614757565b60405180910390fd5b805f81118015612f28575060045481105b612f67576040517f08c379a0000000000000000000000000000000000000000000000000000000008152600401612f5e906139b8565b60405180910390fd5b60018360ff1610158015612f7f575060058360ff1611155b612fbe576040517f08c379a0000000000000000000000000000000000000000000000000000000008152600401612fb590613a20565b60405180910390fd5b5f60015f8481526020019081526020015f2090503373ffffffffffffffffffffffffffffffffffffffff16816001015f9054906101000a900473ffffffffffffffffffffffffffffffffffffffff1673ffffffffffffffffffffffffffffffffffffffff1614613063576040517f08c379a000000000000000000000000000000000000000000000000000000000815260040161305a90615072565b60405180910390fd5b806004015f9054906101000a900460ff166130b3576040517f08c379a00000000000000000000000000000000000000000000000000000000081526004016130aa90615100565b60405180910390fd5b5f15158160040160049054906101000a900460ff1615151461310a576040517f08c379a000000000000000000000000000000000000000000000000000000000815260040161310190615168565b60405180910390fd5b5f60025f835f015f9054906101000a900473ffffffffffffffffffffffffffffffffffffffff1673ffffffffffffffffffffffffffffffffffffffff1673ffffffffffffffffffffffffffffffffffffffff1681526020019081526020015f209050805f015f81548092919061317f90613c31565b91905055508460ff16816001015f82825461319a9190613c78565b9250508190555060018260040160046101000a81548160ff0219169083151502179055503373ffffffffffffffffffffffffffffffffffffffff16825f015f9054906101000a900473ffffffffffffffffffffffffffffffffffffffff1673ffffffffffffffffffffffffffffffffffffffff167fa0b84effa00aeb81bb29f7a2eaf0cdd5e084b3e44d8136acf1661062d250b4478760405161323d9190613cba565b60405180910390a35050505050565b828054828255905f5260205f209081019282156132c2579160200282015b828111156132c1578251825f6101000a81548173ffffffffffffffffffffffffffffffffffffffff021916908373ffffffffffffffffffffffffffffffffffffffff1602179055509160200191906001019061326a565b5b5090506132cf91906132d3565b5090565b5b808211156132ea575f815f9055506001016132d4565b5090565b5f80fd5b5f80fd5b5f60ff82169050919050565b61330b816132f6565b8114613315575f80fd5b50565b5f8135905061332681613302565b92915050565b5f819050919050565b61333e8161332c565b8114613348575f80fd5b50565b5f8135905061335981613335565b92915050565b5f8060408385031215613375576133746132ee565b5b5f61338285828601613318565b92505060206133938582860161334b565b9150509250929050565b5f602082840312156133b2576133b16132ee565b5b5f6133bf8482850161334b565b91505092915050565b5f73ffffffffffffffffffffffffffffffffffffffff82169050919050565b5f6133f1826133c8565b9050919050565b613401816133e7565b82525050565b5f81519050919050565b5f82825260208201905092915050565b5f5b8381101561343e578082015181840152602081019050613423565b5f8484015250505050565b5f601f19601f8301169050919050565b5f61346382613407565b61346d8185613411565b935061347d818560208601613421565b61348681613449565b840191505092915050565b61349a8161332c565b82525050565b5f8115159050919050565b6134b4816134a0565b82525050565b5f610120820190506134ce5f83018c6133f8565b6134db602083018b6133f8565b81810360408301526134ed818a613459565b90506134fc6060830189613491565b61350960808301886134ab565b61351660a08301876134ab565b61352360c08301866134ab565b61353060e08301856134ab565b61353e6101008301846134ab565b9a9950505050505050505050565b5f80fd5b5f80fd5b5f80fd5b5f8083601f84011261356d5761356c61354c565b5b8235905067ffffffffffffffff81111561358a57613589613550565b5b6020830191508360018202830111156135a6576135a5613554565b5b9250929050565b5f805f80604085870312156135c5576135c46132ee565b5b5f85013567ffffffffffffffff8111156135e2576135e16132f2565b5b6135ee87828801613558565b9450945050602085013567ffffffffffffffff811115613611576136106132f2565b5b61361d87828801613558565b925092505092959194509250565b613634816133e7565b811461363e575f80fd5b50565b5f8135905061364f8161362b565b92915050565b5f6020828403121561366a576136696132ee565b5b5f61367784828501613641565b91505092915050565b5f6040820190506136935f830185613491565b6136a06020830184613491565b9392505050565b5f80604083850312156136bd576136bc6132ee565b5b5f6136ca8582860161334b565b92505060206136db85828601613641565b9150509250929050565b5f6136ef826133c8565b9050919050565b6136ff816136e5565b82525050565b5f60e0820190508181035f83015261371d818a613459565b905081810360208301526137318189613459565b90506137406040830188613491565b61374d60608301876136f6565b61375a60808301866134ab565b61376760a0830185613491565b61377460c0830184613491565b98975050505050505050565b5f6020820190506137935f830184613491565b92915050565b5f6020820190506137ac5f8301846133f8565b92915050565b5f81519050919050565b5f82825260208201905092915050565b5f819050602082019050919050565b6137e4816133e7565b82525050565b5f6137f583836137db565b60208301905092915050565b5f602082019050919050565b5f613817826137b2565b61382181856137bc565b935061382c836137cc565b805f5b8381101561385c57815161384388826137ea565b975061384e83613801565b92505060018101905061382f565b5085935050505092915050565b5f6101408201905061387d5f83018d6133f8565b61388a602083018c6133f8565b818103604083015261389c818b613459565b90506138ab606083018a613491565b6138b860808301896134ab565b6138c560a08301886134ab565b6138d260c08301876134ab565b6138df60e08301866134ab565b6138ed6101008301856134ab565b818103610120830152613900818461380d565b90509b9a5050505050505050505050565b5f805f60408486031215613928576139276132ee565b5b5f84013567ffffffffffffffff811115613945576139446132f2565b5b61395186828701613558565b935093505060206139648682870161334b565b9150509250925092565b7f4a6f6220646f6573206e6f7420657869737400000000000000000000000000005f82015250565b5f6139a2601283613411565b91506139ad8261396e565b602082019050919050565b5f6020820190508181035f8301526139cf81613996565b9050919050565b7f526174696e67206d757374206265206265747765656e203120616e64203500005f82015250565b5f613a0a601e83613411565b9150613a15826139d6565b602082019050919050565b5f6020820190508181035f830152613a37816139fe565b9050919050565b7f4f6e6c7920636c69656e742063616e207261746520776f726b657200000000005f82015250565b5f613a72601b83613411565b9150613a7d82613a3e565b602082019050919050565b5f6020820190508181035f830152613a9f81613a66565b9050919050565b7f4a6f62206d75737420626520636f6d706c6574656420746f207261746520776f5f8201527f726b657200000000000000000000000000000000000000000000000000000000602082015250565b5f613b00602483613411565b9150613b0b82613aa6565b604082019050919050565b5f6020820190508181035f830152613b2d81613af4565b9050919050565b7f4e6f20776f726b65722061737369676e656420746f20726174650000000000005f82015250565b5f613b68601a83613411565b9150613b7382613b34565b602082019050919050565b5f6020820190508181035f830152613b9581613b5c565b9050919050565b7f4a6f6220776f726b657220616c72656164792072617465642e000000000000005f82015250565b5f613bd0601983613411565b9150613bdb82613b9c565b602082019050919050565b5f6020820190508181035f830152613bfd81613bc4565b9050919050565b7f4e487b71000000000000000000000000000000000000000000000000000000005f52601160045260245ffd5b5f613c3b8261332c565b91507fffffffffffffffffffffffffffffffffffffffffffffffffffffffffffffffff8203613c6d57613c6c613c04565b5b600182019050919050565b5f613c828261332c565b9150613c8d8361332c565b9250828201905080821115613ca557613ca4613c04565b5b92915050565b613cb4816132f6565b82525050565b5f602082019050613ccd5f830184613cab565b92915050565b7f4e487b71000000000000000000000000000000000000000000000000000000005f52602260045260245ffd5b5f6002820490506001821680613d1757607f821691505b602082108103613d2a57613d29613cd3565b5b50919050565b7f576f726b657220616c72656164792072656769737465726564000000000000005f82015250565b5f613d64601983613411565b9150613d6f82613d30565b602082019050919050565b5f6020820190508181035f830152613d9181613d58565b9050919050565b7f496e76616c6964206e616d65206f7220736b696c6c00000000000000000000005f82015250565b5f613dcc601583613411565b9150613dd782613d98565b602082019050919050565b5f6020820190508181035f830152613df981613dc0565b9050919050565b7f4e487b71000000000000000000000000000000000000000000000000000000005f52604160045260245ffd5b5f819050815f5260205f209050919050565b5f6020601f8301049050919050565b5f82821b905092915050565b5f60088302613e897fffffffffffffffffffffffffffffffffffffffffffffffffffffffffffffffff82613e4e565b613e938683613e4e565b95508019841693508086168417925050509392505050565b5f819050919050565b5f613ece613ec9613ec48461332c565b613eab565b61332c565b9050919050565b5f819050919050565b613ee783613eb4565b613efb613ef382613ed5565b848454613e5a565b825550505050565b5f90565b613f0f613f03565b613f1a818484613ede565b505050565b5b81811015613f3d57613f325f82613f07565b600181019050613f20565b5050565b601f821115613f8257613f5381613e2d565b613f5c84613e3f565b81016020851015613f6b578190505b613f7f613f7785613e3f565b830182613f1f565b50505b505050565b5f82821c905092915050565b5f613fa25f1984600802613f87565b1980831691505092915050565b5f613fba8383613f93565b9150826002028217905092915050565b613fd382613407565b67ffffffffffffffff811115613fec57613feb613e00565b5b613ff68254613d00565b614001828285613f41565b5f60209050601f831160018114614032575f8415614020578287015190505b61402a8582613faf565b865550614091565b601f19841661404086613e2d565b5f5b8281101561406757848901518255600182019150602085019450602081019050614042565b868310156140845784890151614080601f891682613f93565b8355505b6001600288020188555050505b505050505050565b828183375f83830152505050565b5f6140b28385613411565b93506140bf838584614099565b6140c883613449565b840190509392505050565b5f6040820190508181035f8301526140ec8186886140a7565b905081810360208301526141018184866140a7565b905095945050505050565b7f576f726b6572206e6f74207265676973746572656400000000000000000000005f82015250565b5f614140601583613411565b915061414b8261410c565b602082019050919050565b5f6020820190508181035f83015261416d81614134565b9050919050565b7f4e487b71000000000000000000000000000000000000000000000000000000005f52601260045260245ffd5b5f6141ab8261332c565b91506141b68361332c565b9250826141c6576141c5614174565b5b828204905092915050565b7f4469737075746520616c726561647920726169736564000000000000000000005f82015250565b5f614205601683613411565b9150614210826141d1565b602082019050919050565b5f6020820190508181035f830152614232816141f9565b9050919050565b7f576f726b657220616c72656164792073656c656374656420666f7220746869735f8201527f206a6f6200000000000000000000000000000000000000000000000000000000602082015250565b5f614293602483613411565b915061429e82614239565b604082019050919050565b5f6020820190508181035f8301526142c081614287565b9050919050565b7f4f6e6c79206a6f6220636c69656e742063616e2073656c656374206120776f725f8201527f6b65720000000000000000000000000000000000000000000000000000000000602082015250565b5f614321602383613411565b915061432c826142c7565b604082019050919050565b5f6020820190508181035f83015261434e81614315565b9050919050565b7f41646472657373206973206e6f742061207265676973746572656420776f726b5f8201527f6572000000000000000000000000000000000000000000000000000000000000602082015250565b5f6143af602283613411565b91506143ba82614355565b604082019050919050565b5f6020820190508181035f8301526143dc816143a3565b9050919050565b7f4e487b71000000000000000000000000000000000000000000000000000000005f52603260045260245ffd5b7f576f726b657220686173206e6f74206170706c69656420666f722074686973205f8201527f6a6f620000000000000000000000000000000000000000000000000000000000602082015250565b5f61446a602383613411565b915061447582614410565b604082019050919050565b5f6020820190508181035f8301526144978161445e565b9050919050565b7f4f6e6c79206a6f6220636c69656e742063616e2072656c65617365207061796d5f8201527f656e740000000000000000000000000000000000000000000000000000000000602082015250565b5f6144f8602383613411565b91506145038261449e565b604082019050919050565b5f6020820190508181035f830152614525816144ec565b9050919050565b7f4a6f62206e6f7420636f6d706c657465642079657400000000000000000000005f82015250565b5f614560601583613411565b915061456b8261452c565b602082019050919050565b5f6020820190508181035f83015261458d81614554565b9050919050565b7f5061796d656e7420616c72656164792072656c656173656400000000000000005f82015250565b5f6145c8601883613411565b91506145d382614594565b602082019050919050565b5f6020820190508181035f8301526145f5816145bc565b9050919050565b7f4e6f20776f726b65722061737369676e656420796574000000000000000000005f82015250565b5f614630601683613411565b915061463b826145fc565b602082019050919050565b5f6020820190508181035f83015261465d81614624565b9050919050565b5f81905092915050565b50565b5f61467c5f83614664565b91506146878261466e565b5f82019050919050565b5f61469b82614671565b9150819050919050565b7f5061796d656e74207472616e73666572206661696c65640000000000000000005f82015250565b5f6146d9601783613411565b91506146e4826146a5565b602082019050919050565b5f6020820190508181035f830152614706816146cd565b9050919050565b7f4e6f742061207265676973746572656420776f726b65720000000000000000005f82015250565b5f614741601783613411565b915061474c8261470d565b602082019050919050565b5f6020820190508181035f83015261476e81614735565b9050919050565b7f596f7520617265206e6f742061737369676e656420746f2074686973206a6f625f82015250565b5f6147a9602083613411565b91506147b482614775565b602082019050919050565b5f6020820190508181035f8301526147d68161479d565b9050919050565b7f4a6f6220616c726561647920636f6d706c6574656400000000000000000000005f82015250565b5f614811601583613411565b915061481c826147dd565b602082019050919050565b5f6020820190508181035f83015261483e81614805565b9050919050565b7f556e617574686f72697a656400000000000000000000000000000000000000005f82015250565b5f614879600c83613411565b915061488482614845565b602082019050919050565b5f6020820190508181035f8301526148a68161486d565b9050919050565b7f5061796d656e7420616c72656164792072656c65617365642c206469737075745f8201527f652063616e277420626520726169736564000000000000000000000000000000602082015250565b5f614907603183613411565b9150614912826148ad565b604082019050919050565b5f6020820190508181035f830152614934816148fb565b9050919050565b7f4f6e6c7920636f6e7472616374206f776e65722063616e2063616c6c207468695f8201527f7300000000000000000000000000000000000000000000000000000000000000602082015250565b5f614995602183613411565b91506149a08261493b565b604082019050919050565b5f6020820190508181035f8301526149c281614989565b9050919050565b7f4e6f20646973707574652072616973656420666f722074686973206a6f6200005f82015250565b5f6149fd601e83613411565b9150614a08826149c9565b602082019050919050565b5f6020820190508181035f830152614a2a816149f1565b9050919050565b7f4e6f20776f726b65722061737369676e656420746f207265736f6c76652064695f8201527f737075746520666f720000000000000000000000000000000000000000000000602082015250565b5f614a8b602983613411565b9150614a9682614a31565b604082019050919050565b5f6020820190508181035f830152614ab881614a7f565b9050919050565b7f436c69656e7420726566756e64207472616e73666572206661696c65642064755f8201527f72696e672064697370757465207265736f6c7574696f6e000000000000000000602082015250565b5f614b19603783613411565b9150614b2482614abf565b604082019050919050565b5f6020820190508181035f830152614b4681614b0d565b9050919050565b5f614b578261332c565b9150614b628361332c565b9250828203905081811115614b7a57614b79613c04565b5b92915050565b7f576f726b6572207061796d656e74207472616e73666572206661696c656420645f8201527f7572696e672064697370757465207265736f6c7574696f6e0000000000000000602082015250565b5f614bda603883613411565b9150614be582614b80565b604082019050919050565b5f6020820190508181035f830152614c0781614bce565b9050919050565b7f5469652c2066756e64732073706c69742035302f3530206265747765656e20775f8201527f6f726b657220616e6420636c69656e7400000000000000000000000000000000602082015250565b5f614c68603083613411565b9150614c7382614c0e565b604082019050919050565b5f604082019050614c915f830184613491565b8181036020830152614ca281614c5c565b905092915050565b7f576f726b65722077696e732c207061796d656e742072656c65617365640000005f82015250565b5f614cde601d83613411565b9150614ce982614caa565b602082019050919050565b5f604082019050614d075f830184613491565b8181036020830152614d1881614cd2565b905092915050565b7f436c69656e742077696e732c2066756e64732072657475726e656400000000005f82015250565b5f614d54601b83613411565b9150614d5f82614d20565b602082019050919050565b5f604082019050614d7d5f830184613491565b8181036020830152614d8e81614d48565b905092915050565b7f436c69656e742063616e6e6f74206170706c7920666f72206f776e206a6f62005f82015250565b5f614dca601f83613411565b9150614dd582614d96565b602082019050919050565b5f6020820190508181035f830152614df781614dbe565b9050919050565b7f596f75206861766520616c7265616479206170706c69656420666f72207468695f8201527f73206a6f62000000000000000000000000000000000000000000000000000000602082015250565b5f614e58602583613411565b9150614e6382614dfe565b604082019050919050565b5f6020820190508181035f830152614e8581614e4c565b9050919050565b7f4a6f62206465736372697074696f6e2063616e6e6f7420626520656d707479005f82015250565b5f614ec0601f83613411565b9150614ecb82614e8c565b602082019050919050565b5f6020820190508181035f830152614eed81614eb4565b9050919050565b7f496e636f7272656374207061796d656e7420616d6f756e7400000000000000005f82015250565b5f614f28601883613411565b9150614f3382614ef4565b602082019050919050565b5f6020820190508181035f830152614f5581614f1c565b9050919050565b7f5061796d656e74206d7573742062652067726561746572207468616e203000005f82015250565b5f614f90601e83613411565b9150614f9b82614f5c565b602082019050919050565b5f6020820190508181035f830152614fbd81614f84565b9050919050565b5f606082019050614fd75f830187613491565b8181036020830152614fea8185876140a7565b9050614ff96040830184613491565b95945050505050565b7f4f6e6c7920776f726b65722061737369676e656420746f206a6f622063616e205f8201527f7261746520636c69656e74000000000000000000000000000000000000000000602082015250565b5f61505c602b83613411565b915061506782615002565b604082019050919050565b5f6020820190508181035f83015261508981615050565b9050919050565b7f4a6f62206d75737420626520636f6d706c6574656420746f207261746520636c5f8201527f69656e7400000000000000000000000000000000000000000000000000000000602082015250565b5f6150ea602483613411565b91506150f582615090565b604082019050919050565b5f6020820190508181035f830152615117816150de565b9050919050565b7f4a6f6220636c69656e7420616c72656164792072617465642e000000000000005f82015250565b5f615152601983613411565b915061515d8261511e565b602082019050919050565b5f6020820190508181035f83015261517f81615146565b905091905056fea26469706673582212200a7a46801565a7cf8be10c42adfe8e18d28c506a53b84c90753586feb0b86e4564736f6c63430008150033",
  "immutableReferences": {},
  "source": "// SPDX-License-Identifier: MIT\r\npragma solidity ^0.8.20;\r\n\r\ncontract GigEconomy {\r\n    struct Worker {\r\n        string name;\r\n        string skill;\r\n        uint completedTasks;\r\n        address payable wallet;\r\n        bool isRegistered;\r\n        uint totalRatings;\r\n        uint sumRatings;\r\n    }\r\n\r\n    struct Job {\r\n        address client;\r\n        address worker;\r\n        string description;\r\n        uint payment;\r\n        bool isCompleted;\r\n        bool isPaid;\r\n        bool disputeRaised;\r\n        bool workerRated;\r\n        bool clientRated;\r\n        address[] applicants;\r\n    }\r\n\r\n    struct Client {\r\n        uint totalRatings;\r\n        uint sumRatings;\r\n    }\r\n\r\n    mapping(address => Worker) public workers;\r\n    mapping(uint => Job) public jobs;\r\n    mapping(address => Client) public clients;\r\n\r\n    address public owner;\r\n    uint public jobCounter;\r\n\r\n    event WorkerRegistered(address indexed worker, string name, string skill);\r\n    event JobPosted(\r\n        uint jobId,\r\n        address indexed client,\r\n        string description,\r\n        uint payment\r\n    );\r\n    event JobApplied(uint jobId, address indexed applicant);\r\n    event WorkerSelected(uint jobId, address indexed worker);\r\n    event JobCompleted(uint jobId, address indexed worker);\r\n    event PaymentReleased(uint jobId, address indexed worker, uint amount);\r\n    event DisputeRaised(uint jobId, address indexed user);\r\n    event DisputeResolved(uint jobId, string decision);\r\n    event RatingGiven(\r\n        address indexed target, // Renamed for clarity (can be worker or client)\r\n        address indexed rater,\r\n        uint8 rating\r\n    );\r\n\r\n    modifier onlyOwner() {\r\n        require(msg.sender == owner, \"Only contract owner can call this\");\r\n        _;\r\n    }\r\n\r\n    modifier onlyRegistered() {\r\n        require(workers[msg.sender].isRegistered, \"Not a registered worker\");\r\n        _;\r\n    }\r\n\r\n    modifier jobExists(uint _jobId) {\r\n        require(_jobId > 0 && _jobId < jobCounter, \"Job does not exist\");\r\n        _;\r\n    }\r\n\r\n     modifier jobNotTaken(uint _jobId) {\r\n        require(jobs[_jobId].worker == address(0), \"Worker already selected for this job\");\r\n        _;\r\n    }\r\n\r\n\r\n    modifier jobNotDisputed(uint _jobId) {\r\n        require(!jobs[_jobId].disputeRaised, \"Dispute already raised\");\r\n        _;\r\n    }\r\n\r\n    constructor() {\r\n        owner = msg.sender;\r\n        jobCounter = 1;\r\n    }\r\n\r\n    function registerWorker(\r\n        string calldata _name,\r\n        string calldata _skill\r\n    ) external {\r\n        require(!workers[msg.sender].isRegistered, \"Worker already registered\");\r\n        require(\r\n            bytes(_name).length > 0 && bytes(_skill).length > 0,\r\n            \"Invalid name or skill\"\r\n        );\r\n        workers[msg.sender] = Worker({\r\n            name: _name,\r\n            skill: _skill,\r\n            completedTasks: 0,\r\n            wallet: payable(msg.sender),\r\n            isRegistered: true,\r\n            totalRatings: 0,\r\n            sumRatings: 0\r\n        });\r\n        emit WorkerRegistered(msg.sender, _name, _skill);\r\n    }\r\n\r\n    function postJob(\r\n        string calldata _description,\r\n        uint _payment\r\n    ) external payable {\r\n        require(\r\n            bytes(_description).length > 0,\r\n            \"Job description cannot be empty\"\r\n        );\r\n        require(msg.value == _payment, \"Incorrect payment amount\");\r\n        require(_payment > 0, \"Payment must be greater than 0\");\r\n\r\n        jobs[jobCounter] = Job({\r\n            client: msg.sender,\r\n            worker: address(0),\r\n            description: _description,\r\n            payment: _payment,\r\n            isCompleted: false,\r\n            isPaid: false,\r\n            disputeRaised: false,\r\n            workerRated: false,\r\n            clientRated: false,\r\n            applicants: new address[](0) \r\n        });\r\n        emit JobPosted(jobCounter, msg.sender, _description, _payment);\r\n        jobCounter++;\r\n    }\r\n\r\n    function applyForJob(\r\n        uint _jobId\r\n    ) external onlyRegistered jobExists(_jobId) jobNotTaken(_jobId) jobNotDisputed(_jobId) {\r\n        Job storage job = jobs[_jobId];\r\n        require(job.client != msg.sender, \"Client cannot apply for own job\");\r\n        for (uint i = 0; i < job.applicants.length; i++) {\r\n            require(job.applicants[i] != msg.sender, \"You have already applied for this job\");\r\n        }\r\n        job.applicants.push(msg.sender);\r\n        emit JobApplied(_jobId, msg.sender);\r\n    }\r\n\r\n    function selectWorker(uint _jobId, address _workerAddress) external jobExists(_jobId) jobNotDisputed(_jobId) jobNotTaken(_jobId) {\r\n        Job storage job = jobs[_jobId];\r\n        require(job.client == msg.sender, \"Only job client can select a worker\");\r\n        require(workers[_workerAddress].isRegistered, \"Address is not a registered worker\");\r\n\r\n        bool isApplicant = false;\r\n        for (uint i = 0; i < job.applicants.length; i++) {\r\n            if (job.applicants[i] == _workerAddress) {\r\n                isApplicant = true;\r\n                break;\r\n            }\r\n        }\r\n        require(isApplicant, \"Worker has not applied for this job\");\r\n        job.worker = _workerAddress;\r\n        emit WorkerSelected(_jobId, _workerAddress);\r\n    }\r\n\r\n\r\n    function completeJob(\r\n        uint _jobId\r\n    ) external onlyRegistered jobExists(_jobId) jobNotDisputed(_jobId) {\r\n        Job storage job = jobs[_jobId];\r\n        require(job.worker == msg.sender, \"You are not assigned to this job\");\r\n        require(!job.isCompleted, \"Job already completed\");\r\n        job.isCompleted = true;\r\n        workers[msg.sender].completedTasks++;\r\n        emit JobCompleted(_jobId, msg.sender);\r\n    }\r\n\r\n    function releasePayment(\r\n        uint _jobId\r\n    ) external jobExists(_jobId) jobNotDisputed(_jobId) {\r\n        Job storage job = jobs[_jobId];\r\n        require(\r\n            job.client == msg.sender,\r\n            \"Only job client can release payment\"\r\n        );\r\n        require(job.isCompleted, \"Job not completed yet\");\r\n        require(!job.isPaid, \"Payment already released\");\r\n        require(job.worker != address(0), \"No worker assigned yet\");\r\n\r\n        job.isPaid = true;\r\n        uint paymentAmount = job.payment;\r\n        (bool success, ) = job.worker.call{value: paymentAmount}(\"\");\r\n        require(success, \"Payment transfer failed\");\r\n        emit PaymentReleased(_jobId, job.worker, paymentAmount);\r\n    }\r\n\r\n    function raiseDispute(\r\n        uint _jobId\r\n    ) external jobExists(_jobId) jobNotDisputed(_jobId) {\r\n        Job storage job = jobs[_jobId];\r\n        require(job.worker != address(0), \"No worker assigned yet\");\r\n        require(\r\n            msg.sender == job.worker || msg.sender == job.client,\r\n            \"Unauthorized\"\r\n        );\r\n        require(\r\n            !job.isPaid,\r\n            \"Payment already released, dispute can't be raised\"\r\n        );\r\n        job.disputeRaised = true;\r\n        emit DisputeRaised(_jobId, msg.sender);\r\n    }\r\n\r\n    function resolveDispute(uint _jobId) external onlyOwner jobExists(_jobId) {\r\n        Job storage job = jobs[_jobId];\r\n        require(job.disputeRaised, \"No dispute raised for this job\");\r\n        require(!job.isPaid, \"Payment already released\");\r\n        require(job.worker != address(0), \"No worker assigned to resolve dispute for\"); // Added check\r\n        job.isPaid = true;\r\n        Client storage client = clients[job.client];\r\n        Worker storage worker = workers[job.worker];\r\n        uint clientAverageRating = client.totalRatings > 0\r\n            ? client.sumRatings / client.totalRatings\r\n            : 3;\r\n        uint workerAverageRating = worker.totalRatings > 0\r\n            ? worker.sumRatings / worker.totalRatings\r\n            : 3;\r\n        if (workerAverageRating == clientAverageRating) {\r\n            uint halfPayment = job.payment / 2;\r\n            (bool successClient, ) = job.client.call{value: halfPayment}(\"\");\r\n            require(successClient, \"Client refund transfer failed during dispute resolution\");\r\n            (bool successWorker, ) = job.worker.call{value: job.payment - halfPayment}(\"\");\r\n            require(successWorker, \"Worker payment transfer failed during dispute resolution\");\r\n            emit DisputeResolved(\r\n                _jobId,\r\n                \"Tie, funds split 50/50 between worker and client\"\r\n            );\r\n        } else if (workerAverageRating > clientAverageRating) {\r\n            (bool success, ) = job.worker.call{value: job.payment}(\"\");\r\n            require(success, \"Worker payment transfer failed during dispute resolution\");\r\n            emit DisputeResolved(_jobId, \"Worker wins, payment released\");\r\n        } else {\r\n            (bool success, ) = job.client.call{value: job.payment}(\"\");\r\n            require(success, \"Client refund transfer failed during dispute resolution\");\r\n            emit DisputeResolved(_jobId, \"Client wins, funds returned\");\r\n        }\r\n    }\r\n\r\n    function rateClient(\r\n        uint8 _rating,\r\n        uint _jobId\r\n    ) external onlyRegistered jobExists(_jobId) {\r\n        require(_rating >= 1 && _rating <= 5, \"Rating must be between 1 and 5\");\r\n        Job storage job = jobs[_jobId];\r\n        require(job.worker == msg.sender, \"Only worker assigned to job can rate client\");\r\n        require(job.isCompleted, \"Job must be completed to rate client\");\r\n        require(job.clientRated == false, \"Job client already rated.\");\r\n        Client storage client = clients[job.client];\r\n        client.totalRatings++;\r\n        client.sumRatings += _rating;\r\n        job.clientRated = true;\r\n        emit RatingGiven(job.client, msg.sender, _rating);\r\n    }\r\n\r\n    function getWorkerStats(\r\n        address _worker\r\n    ) external view returns (uint completedJobs, uint averageRating) {\r\n        require(workers[_worker].isRegistered, \"Worker not registered\");\r\n        Worker storage worker = workers[_worker];\r\n        if (worker.totalRatings > 0) {\r\n            return (\r\n                worker.completedTasks,\r\n                worker.sumRatings / worker.totalRatings\r\n            );\r\n        } else {\r\n            return (worker.completedTasks, 0);\r\n        }\r\n    }\r\n\r\n    function rateWorker(\r\n        uint8 _rating,\r\n        uint _jobId\r\n    ) external jobExists(_jobId) {\r\n        require(_rating >= 1 && _rating <= 5, \"Rating must be between 1 and 5\");\r\n        Job storage job = jobs[_jobId];\r\n        require(job.client == msg.sender, \"Only client can rate worker\");\r\n        require(job.isCompleted, \"Job must be completed to rate worker\");\r\n        require(job.worker != address(0), \"No worker assigned to rate\");\r\n        require(job.workerRated == false, \"Job worker already rated.\");\r\n        Worker storage worker = workers[job.worker];\r\n        worker.totalRatings++;\r\n        worker.sumRatings += _rating;\r\n        job.workerRated = true;\r\n        emit RatingGiven(job.worker, msg.sender, _rating);\r\n    }\r\n\r\n    function getJob(\r\n        uint _jobId\r\n    )\r\n        external\r\n        view\r\n        jobExists(_jobId)\r\n        returns (\r\n            address client,\r\n            address worker,\r\n            string memory description,\r\n            uint payment,\r\n            bool isCompleted,\r\n            bool isPaid,\r\n            bool disputeRaised,\r\n            bool workerRated,\r\n            bool clientRated,\r\n            address[] memory applicants\r\n        )\r\n    {\r\n        Job storage job = jobs[_jobId];\r\n        return (\r\n            job.client,\r\n            job.worker,\r\n            job.description,\r\n            job.payment,\r\n            job.isCompleted,\r\n            job.isPaid,\r\n            job.disputeRaised,\r\n            job.workerRated,\r\n            job.clientRated,\r\n            job.applicants\r\n        );\r\n    }\r\n\r\n    receive() external payable {}\r\n}",
  "sourcePath": "C:\\Users\\chira\\Desktop\\Blockchain\\Backend\\contracts\\GigEconomy.sol",
  "compiler": {
    "name": "solc",
    "version": "0.8.21+commit.d9974bed.Emscripten.clang"
  },
  "schemaVersion": "3.4.16",
  "updatedAt": "2025-05-06T07:15:13.728Z",
  "networkType": "ethereum",
  "devdoc": {
    "kind": "dev",
    "methods": {},
    "version": 1
  },
  "userdoc": {
    "kind": "user",
    "methods": {},
    "version": 1
  }
}