{
  "contractName": "GigEconomy",
  "abi": [
    {
      "inputs": [],
      "stateMutability": "nonpayable",
      "type": "constructor"
    },
    {
      "anonymous": false,
      "inputs": [
        {
          "indexed": false,
          "internalType": "uint256",
          "name": "jobId",
          "type": "uint256"
        },
        {
          "indexed": true,
          "internalType": "address",
          "name": "user",
          "type": "address"
        }
      ],
      "name": "DisputeRaised",
      "type": "event"
    },
    {
      "anonymous": false,
      "inputs": [
        {
          "indexed": false,
          "internalType": "uint256",
          "name": "jobId",
          "type": "uint256"
        },
        {
          "indexed": false,
          "internalType": "string",
          "name": "decision",
          "type": "string"
        }
      ],
      "name": "DisputeResolved",
      "type": "event"
    },
    {
      "anonymous": false,
      "inputs": [
        {
          "indexed": false,
          "internalType": "uint256",
          "name": "jobId",
          "type": "uint256"
        },
        {
          "indexed": true,
          "internalType": "address",
          "name": "worker",
          "type": "address"
        }
      ],
      "name": "JobAccepted",
      "type": "event"
    },
    {
      "anonymous": false,
      "inputs": [
        {
          "indexed": false,
          "internalType": "uint256",
          "name": "jobId",
          "type": "uint256"
        },
        {
          "indexed": true,
          "internalType": "address",
          "name": "worker",
          "type": "address"
        }
      ],
      "name": "JobCompleted",
      "type": "event"
    },
    {
      "anonymous": false,
      "inputs": [
        {
          "indexed": false,
          "internalType": "uint256",
          "name": "jobId",
          "type": "uint256"
        },
        {
          "indexed": true,
          "internalType": "address",
          "name": "client",
          "type": "address"
        },
        {
          "indexed": false,
          "internalType": "string",
          "name": "description",
          "type": "string"
        },
        {
          "indexed": false,
          "internalType": "uint256",
          "name": "payment",
          "type": "uint256"
        }
      ],
      "name": "JobPosted",
      "type": "event"
    },
    {
      "anonymous": false,
      "inputs": [
        {
          "indexed": false,
          "internalType": "uint256",
          "name": "jobId",
          "type": "uint256"
        },
        {
          "indexed": true,
          "internalType": "address",
          "name": "worker",
          "type": "address"
        },
        {
          "indexed": false,
          "internalType": "uint256",
          "name": "amount",
          "type": "uint256"
        }
      ],
      "name": "PaymentReleased",
      "type": "event"
    },
    {
      "anonymous": false,
      "inputs": [
        {
          "indexed": true,
          "internalType": "address",
          "name": "worker",
          "type": "address"
        },
        {
          "indexed": true,
          "internalType": "address",
          "name": "rater",
          "type": "address"
        },
        {
          "indexed": false,
          "internalType": "uint8",
          "name": "rating",
          "type": "uint8"
        }
      ],
      "name": "RatingGiven",
      "type": "event"
    },
    {
      "anonymous": false,
      "inputs": [
        {
          "indexed": true,
          "internalType": "address",
          "name": "worker",
          "type": "address"
        },
        {
          "indexed": false,
          "internalType": "string",
          "name": "name",
          "type": "string"
        },
        {
          "indexed": false,
          "internalType": "string",
          "name": "skill",
          "type": "string"
        }
      ],
      "name": "WorkerRegistered",
      "type": "event"
    },
    {
      "inputs": [
        {
          "internalType": "address",
          "name": "",
          "type": "address"
        }
      ],
      "name": "clients",
      "outputs": [
        {
          "internalType": "uint256",
          "name": "totalRatings",
          "type": "uint256"
        },
        {
          "internalType": "uint256",
          "name": "sumRatings",
          "type": "uint256"
        }
      ],
      "stateMutability": "view",
      "type": "function"
    },
    {
      "inputs": [],
      "name": "jobCounter",
      "outputs": [
        {
          "internalType": "uint256",
          "name": "",
          "type": "uint256"
        }
      ],
      "stateMutability": "view",
      "type": "function"
    },
    {
      "inputs": [
        {
          "internalType": "uint256",
          "name": "",
          "type": "uint256"
        }
      ],
      "name": "jobs",
      "outputs": [
        {
          "internalType": "address",
          "name": "client",
          "type": "address"
        },
        {
          "internalType": "address",
          "name": "worker",
          "type": "address"
        },
        {
          "internalType": "string",
          "name": "description",
          "type": "string"
        },
        {
          "internalType": "uint256",
          "name": "payment",
          "type": "uint256"
        },
        {
          "internalType": "bool",
          "name": "isCompleted",
          "type": "bool"
        },
        {
          "internalType": "bool",
          "name": "isPaid",
          "type": "bool"
        },
        {
          "internalType": "bool",
          "name": "disputeRaised",
          "type": "bool"
        }
      ],
      "stateMutability": "view",
      "type": "function"
    },
    {
      "inputs": [],
      "name": "owner",
      "outputs": [
        {
          "internalType": "address",
          "name": "",
          "type": "address"
        }
      ],
      "stateMutability": "view",
      "type": "function"
    },
    {
      "inputs": [
        {
          "internalType": "address",
          "name": "",
          "type": "address"
        }
      ],
      "name": "workers",
      "outputs": [
        {
          "internalType": "string",
          "name": "name",
          "type": "string"
        },
        {
          "internalType": "string",
          "name": "skill",
          "type": "string"
        },
        {
          "internalType": "uint256",
          "name": "completedTasks",
          "type": "uint256"
        },
        {
          "internalType": "address payable",
          "name": "wallet",
          "type": "address"
        },
        {
          "internalType": "bool",
          "name": "isRegistered",
          "type": "bool"
        },
        {
          "internalType": "uint256",
          "name": "totalRatings",
          "type": "uint256"
        },
        {
          "internalType": "uint256",
          "name": "sumRatings",
          "type": "uint256"
        }
      ],
      "stateMutability": "view",
      "type": "function"
    },
    {
      "stateMutability": "payable",
      "type": "receive"
    },
    {
      "inputs": [
        {
          "internalType": "string",
          "name": "_name",
          "type": "string"
        },
        {
          "internalType": "string",
          "name": "_skill",
          "type": "string"
        }
      ],
      "name": "registerWorker",
      "outputs": [],
      "stateMutability": "nonpayable",
      "type": "function"
    },
    {
      "inputs": [
        {
          "internalType": "string",
          "name": "_description",
          "type": "string"
        },
        {
          "internalType": "uint256",
          "name": "_payment",
          "type": "uint256"
        }
      ],
      "name": "postJob",
      "outputs": [],
      "stateMutability": "payable",
      "type": "function"
    },
    {
      "inputs": [
        {
          "internalType": "uint256",
          "name": "_jobId",
          "type": "uint256"
        }
      ],
      "name": "acceptJob",
      "outputs": [],
      "stateMutability": "nonpayable",
      "type": "function"
    },
    {
      "inputs": [
        {
          "internalType": "uint256",
          "name": "_jobId",
          "type": "uint256"
        }
      ],
      "name": "completeJob",
      "outputs": [],
      "stateMutability": "nonpayable",
      "type": "function"
    },
    {
      "inputs": [
        {
          "internalType": "uint256",
          "name": "_jobId",
          "type": "uint256"
        }
      ],
      "name": "releasePayment",
      "outputs": [],
      "stateMutability": "nonpayable",
      "type": "function"
    },
    {
      "inputs": [
        {
          "internalType": "uint256",
          "name": "_jobId",
          "type": "uint256"
        }
      ],
      "name": "raiseDispute",
      "outputs": [],
      "stateMutability": "nonpayable",
      "type": "function"
    },
    {
      "inputs": [
        {
          "internalType": "uint256",
          "name": "_jobId",
          "type": "uint256"
        }
      ],
      "name": "resolveDispute",
      "outputs": [],
      "stateMutability": "nonpayable",
      "type": "function"
    },
    {
      "inputs": [
        {
          "internalType": "address",
          "name": "_client",
          "type": "address"
        },
        {
          "internalType": "uint8",
          "name": "_rating",
          "type": "uint8"
        },
        {
          "internalType": "uint256",
          "name": "_jobId",
          "type": "uint256"
        }
      ],
      "name": "rateClient",
      "outputs": [],
      "stateMutability": "nonpayable",
      "type": "function"
    },
    {
      "inputs": [
        {
          "internalType": "address",
          "name": "_worker",
          "type": "address"
        }
      ],
      "name": "getWorkerStats",
      "outputs": [
        {
          "internalType": "uint256",
          "name": "completedJobs",
          "type": "uint256"
        },
        {
          "internalType": "uint256",
          "name": "averageRating",
          "type": "uint256"
        }
      ],
      "stateMutability": "view",
      "type": "function"
    },
    {
      "inputs": [
        {
          "internalType": "address",
          "name": "_worker",
          "type": "address"
        },
        {
          "internalType": "uint8",
          "name": "_rating",
          "type": "uint8"
        },
        {
          "internalType": "uint256",
          "name": "_jobId",
          "type": "uint256"
        }
      ],
      "name": "rateWorker",
      "outputs": [],
      "stateMutability": "nonpayable",
      "type": "function"
    },
    {
      "inputs": [
        {
          "internalType": "uint256",
          "name": "_jobId",
          "type": "uint256"
        }
      ],
      "name": "getJob",
      "outputs": [
        {
          "internalType": "address",
          "name": "client",
          "type": "address"
        },
        {
          "internalType": "address",
          "name": "worker",
          "type": "address"
        },
        {
          "internalType": "string",
          "name": "description",
          "type": "string"
        },
        {
          "internalType": "uint256",
          "name": "payment",
          "type": "uint256"
        },
        {
          "internalType": "bool",
          "name": "isCompleted",
          "type": "bool"
        },
        {
          "internalType": "bool",
          "name": "isPaid",
          "type": "bool"
        },
        {
          "internalType": "bool",
          "name": "disputeRaised",
          "type": "bool"
        }
      ],
      "stateMutability": "view",
      "type": "function"
    }
  ],
  "bytecode": "0x608060405234801561000f575f80fd5b503360035f6101000a81548173ffffffffffffffffffffffffffffffffffffffff021916908373ffffffffffffffffffffffffffffffffffffffff16021790555060016004819055506142a6806100655f395ff3fe6080604052600436106100f6575f3560e01c806388685cd911610089578063a5c1674e11610058578063a5c1674e14610343578063bf22c4571461036b578063c2b7b868146103ad578063eb9a4e93146103d5576100fd565b806388685cd9146102a15780638da5cb5b146102c9578063950ea80d146102f3578063a1c0d32f1461031b576100fd565b806350355d76116100c557806350355d76146101ea578063591d78551461021457806361eed2a91461023c57806363b2f3c914610279576100fd565b8063180aedf3146101015780632857a4af14610143578063365ba2dd1461016b5780634048a257146101a8576100fd565b366100fd57005b5f80fd5b34801561010c575f80fd5b5061012760048036038101906101229190612ab2565b6103f1565b60405161013a9796959493929190612bcf565b60405180910390f35b34801561014e575f80fd5b5061016960048036038101906101649190612ca4565b610519565b005b348015610176575f80fd5b50610191600480360381019061018c9190612d4c565b610812565b60405161019f929190612d77565b60405180910390f35b3480156101b3575f80fd5b506101ce60048036038101906101c99190612d4c565b61091f565b6040516101e19796959493929190612dbe565b60405180910390f35b3480156101f5575f80fd5b506101fe610a94565b60405161020b9190612e39565b60405180910390f35b34801561021f575f80fd5b5061023a60048036038101906102359190612e88565b610a9a565b005b348015610247575f80fd5b50610262600480360381019061025d9190612d4c565b610f5c565b604051610270929190612d77565b60405180910390f35b348015610284575f80fd5b5061029f600480360381019061029a9190612ab2565b610f7d565b005b3480156102ac575f80fd5b506102c760048036038101906102c29190612ab2565b611339565b005b3480156102d4575f80fd5b506102dd61169e565b6040516102ea9190612ed8565b60405180910390f35b3480156102fe575f80fd5b5061031960048036038101906103149190612e88565b6116c3565b005b348015610326575f80fd5b50610341600480360381019061033c9190612ab2565b6119d2565b005b34801561034e575f80fd5b5061036960048036038101906103649190612ab2565b611ccc565b005b348015610376575f80fd5b50610391600480360381019061038c9190612ab2565b611f40565b6040516103a49796959493929190612bcf565b60405180910390f35b3480156103b8575f80fd5b506103d360048036038101906103ce9190612ab2565b6120d7565b005b6103ef60048036038101906103ea9190612ef1565b6127b7565b005b6001602052805f5260405f205f91509050805f015f9054906101000a900473ffffffffffffffffffffffffffffffffffffffff1690806001015f9054906101000a900473ffffffffffffffffffffffffffffffffffffffff169080600201805461045a90612f7b565b80601f016020809104026020016040519081016040528092919081815260200182805461048690612f7b565b80156104d15780601f106104a8576101008083540402835291602001916104d1565b820191905f5260205f20905b8154815290600101906020018083116104b457829003601f168201915b505050505090806003015490806004015f9054906101000a900460ff16908060040160019054906101000a900460ff16908060040160029054906101000a900460ff16905087565b5f803373ffffffffffffffffffffffffffffffffffffffff1673ffffffffffffffffffffffffffffffffffffffff1681526020019081526020015f2060030160149054906101000a900460ff16156105a6576040517f08c379a000000000000000000000000000000000000000000000000000000000815260040161059d90612ff5565b60405180910390fd5b5f848490501180156105ba57505f82829050115b6105f9576040517f08c379a00000000000000000000000000000000000000000000000000000000081526004016105f09061305d565b60405180910390fd5b6040518060e0016040528085858080601f0160208091040260200160405190810160405280939291908181526020018383808284375f81840152601f19601f82011690508083019250505050505050815260200183838080601f0160208091040260200160405190810160405280939291908181526020018383808284375f81840152601f19601f8201169050808301925050505050505081526020015f81526020013373ffffffffffffffffffffffffffffffffffffffff1681526020016001151581526020015f81526020015f8152505f803373ffffffffffffffffffffffffffffffffffffffff1673ffffffffffffffffffffffffffffffffffffffff1681526020019081526020015f205f820151815f01908161071a9190613245565b5060208201518160010190816107309190613245565b50604082015181600201556060820151816003015f6101000a81548173ffffffffffffffffffffffffffffffffffffffff021916908373ffffffffffffffffffffffffffffffffffffffff16021790555060808201518160030160146101000a81548160ff02191690831515021790555060a0820151816004015560c082015181600501559050503373ffffffffffffffffffffffffffffffffffffffff167f608281547001972cd2b7f630473ea4db08acd5957d8a575e9e1c5ae59ce03a1585858585604051610804949392919061334e565b60405180910390a250505050565b5f805f808473ffffffffffffffffffffffffffffffffffffffff1673ffffffffffffffffffffffffffffffffffffffff1681526020019081526020015f2060030160149054906101000a900460ff166108a0576040517f08c379a0000000000000000000000000000000000000000000000000000000008152600401610897906133d1565b60405180910390fd5b5f805f8573ffffffffffffffffffffffffffffffffffffffff1673ffffffffffffffffffffffffffffffffffffffff1681526020019081526020015f2090505f8160040154111561090e578060020154816004015482600501546109049190613449565b925092505061091a565b80600201545f92509250505b915091565b5f602052805f5260405f205f91509050805f01805461093d90612f7b565b80601f016020809104026020016040519081016040528092919081815260200182805461096990612f7b565b80156109b45780601f1061098b576101008083540402835291602001916109b4565b820191905f5260205f20905b81548152906001019060200180831161099757829003601f168201915b5050505050908060010180546109c990612f7b565b80601f01602080910402602001604051908101604052809291908181526020018280546109f590612f7b565b8015610a405780601f10610a1757610100808354040283529160200191610a40565b820191905f5260205f20905b815481529060010190602001808311610a2357829003601f168201915b505050505090806002015490806003015f9054906101000a900473ffffffffffffffffffffffffffffffffffffffff16908060030160149054906101000a900460ff16908060040154908060050154905087565b60045481565b5f803373ffffffffffffffffffffffffffffffffffffffff1673ffffffffffffffffffffffffffffffffffffffff1681526020019081526020015f2060030160149054906101000a900460ff16610b26576040517f08c379a0000000000000000000000000000000000000000000000000000000008152600401610b1d906134c3565b60405180910390fd5b805f81118015610b3857506004548111155b610b77576040517f08c379a0000000000000000000000000000000000000000000000000000000008152600401610b6e9061352b565b60405180910390fd5b60018360ff1610158015610b8f575060058360ff1611155b610bce576040517f08c379a0000000000000000000000000000000000000000000000000000000008152600401610bc590613593565b60405180910390fd5b5f60015f8481526020019081526020015f2090503373ffffffffffffffffffffffffffffffffffffffff16816001015f9054906101000a900473ffffffffffffffffffffffffffffffffffffffff1673ffffffffffffffffffffffffffffffffffffffff1614610c73576040517f08c379a0000000000000000000000000000000000000000000000000000000008152600401610c6a906135fb565b60405180910390fd5b8473ffffffffffffffffffffffffffffffffffffffff16815f015f9054906101000a900473ffffffffffffffffffffffffffffffffffffffff1673ffffffffffffffffffffffffffffffffffffffff1614610d03576040517f08c379a0000000000000000000000000000000000000000000000000000000008152600401610cfa90613663565b60405180910390fd5b806004015f9054906101000a900460ff16610d53576040517f08c379a0000000000000000000000000000000000000000000000000000000008152600401610d4a906136cb565b60405180910390fd5b5f60025f8773ffffffffffffffffffffffffffffffffffffffff1673ffffffffffffffffffffffffffffffffffffffff1681526020019081526020015f2090505f815f015f8681526020019081526020015f205f3373ffffffffffffffffffffffffffffffffffffffff1673ffffffffffffffffffffffffffffffffffffffff1681526020019081526020015f205f9054906101000a900460ff1660ff1614610e31576040517f08c379a0000000000000000000000000000000000000000000000000000000008152600401610e2890613759565b60405180910390fd5b84815f015f8681526020019081526020015f205f3373ffffffffffffffffffffffffffffffffffffffff1673ffffffffffffffffffffffffffffffffffffffff1681526020019081526020015f205f6101000a81548160ff021916908360ff160217905550806001015f815480929190610eaa90613777565b91905055508460ff16816002015f828254610ec591906137be565b925050819055508573ffffffffffffffffffffffffffffffffffffffff16826001015f9054906101000a900473ffffffffffffffffffffffffffffffffffffffff1673ffffffffffffffffffffffffffffffffffffffff167fa0b84effa00aeb81bb29f7a2eaf0cdd5e084b3e44d8136acf1661062d250b44787604051610f4c9190613800565b60405180910390a3505050505050565b6002602052805f5260405f205f915090508060010154908060020154905082565b5f803373ffffffffffffffffffffffffffffffffffffffff1673ffffffffffffffffffffffffffffffffffffffff1681526020019081526020015f2060030160149054906101000a900460ff16611009576040517f08c379a0000000000000000000000000000000000000000000000000000000008152600401611000906134c3565b60405180910390fd5b805f8111801561101b57506004548111155b61105a576040517f08c379a00000000000000000000000000000000000000000000000000000000081526004016110519061352b565b60405180910390fd5b8160015f8281526020019081526020015f2060040160029054906101000a900460ff16156110bd576040517f08c379a00000000000000000000000000000000000000000000000000000000081526004016110b490613863565b60405180910390fd5b5f60015f8581526020019081526020015f2090505f73ffffffffffffffffffffffffffffffffffffffff16816001015f9054906101000a900473ffffffffffffffffffffffffffffffffffffffff1673ffffffffffffffffffffffffffffffffffffffff1614611162576040517f08c379a0000000000000000000000000000000000000000000000000000000008152600401611159906138cb565b60405180910390fd5b806004015f9054906101000a900460ff16156111b3576040517f08c379a00000000000000000000000000000000000000000000000000000000081526004016111aa90613933565b60405180910390fd5b5f600190505b6004548110156112a2573373ffffffffffffffffffffffffffffffffffffffff1660015f8381526020019081526020015f206001015f9054906101000a900473ffffffffffffffffffffffffffffffffffffffff1673ffffffffffffffffffffffffffffffffffffffff1614801561124f575060015f8281526020019081526020015f206004015f9054906101000a900460ff16155b1561128f576040517f08c379a0000000000000000000000000000000000000000000000000000000008152600401611286906139c1565b60405180910390fd5b808061129a90613777565b9150506111b9565b5033816001015f6101000a81548173ffffffffffffffffffffffffffffffffffffffff021916908373ffffffffffffffffffffffffffffffffffffffff1602179055503373ffffffffffffffffffffffffffffffffffffffff167f4426e4a90a9570c8f678a263b11785eaaade8b79d76d18c43d4d8e00062e4f838560405161132b9190612e39565b60405180910390a250505050565b805f8111801561134b57506004548111155b61138a576040517f08c379a00000000000000000000000000000000000000000000000000000000081526004016113819061352b565b60405180910390fd5b8160015f8281526020019081526020015f2060040160029054906101000a900460ff16156113ed576040517f08c379a00000000000000000000000000000000000000000000000000000000081526004016113e490613863565b60405180910390fd5b5f60015f8581526020019081526020015f2090503373ffffffffffffffffffffffffffffffffffffffff16815f015f9054906101000a900473ffffffffffffffffffffffffffffffffffffffff1673ffffffffffffffffffffffffffffffffffffffff1614611491576040517f08c379a000000000000000000000000000000000000000000000000000000000815260040161148890613a4f565b60405180910390fd5b806004015f9054906101000a900460ff166114e1576040517f08c379a00000000000000000000000000000000000000000000000000000000081526004016114d890613ab7565b60405180910390fd5b8060040160019054906101000a900460ff1615611533576040517f08c379a000000000000000000000000000000000000000000000000000000000815260040161152a90613b1f565b60405180910390fd5b60018160040160016101000a81548160ff0219169083151502179055505f816003015490505f826001015f9054906101000a900473ffffffffffffffffffffffffffffffffffffffff1673ffffffffffffffffffffffffffffffffffffffff16826040516115a090613b6a565b5f6040518083038185875af1925050503d805f81146115da576040519150601f19603f3d011682016040523d82523d5f602084013e6115df565b606091505b5050905080611623576040517f08c379a000000000000000000000000000000000000000000000000000000000815260040161161a90613bc8565b60405180910390fd5b826001015f9054906101000a900473ffffffffffffffffffffffffffffffffffffffff1673ffffffffffffffffffffffffffffffffffffffff167f21d71db5be59bb9fa133895586b7404307dd33fb93b16db09dc6f1d9d7d231b0878460405161168e929190612d77565b60405180910390a2505050505050565b60035f9054906101000a900473ffffffffffffffffffffffffffffffffffffffff1681565b805f811180156116d557506004548111155b611714576040517f08c379a000000000000000000000000000000000000000000000000000000000815260040161170b9061352b565b60405180910390fd5b60018360ff161015801561172c575060058360ff1611155b61176b576040517f08c379a000000000000000000000000000000000000000000000000000000000815260040161176290613593565b60405180910390fd5b5f60015f8481526020019081526020015f2090503373ffffffffffffffffffffffffffffffffffffffff16815f015f9054906101000a900473ffffffffffffffffffffffffffffffffffffffff1673ffffffffffffffffffffffffffffffffffffffff161461180f576040517f08c379a000000000000000000000000000000000000000000000000000000000815260040161180690613c30565b60405180910390fd5b8473ffffffffffffffffffffffffffffffffffffffff16816001015f9054906101000a900473ffffffffffffffffffffffffffffffffffffffff1673ffffffffffffffffffffffffffffffffffffffff16146118a0576040517f08c379a000000000000000000000000000000000000000000000000000000000815260040161189790613c98565b60405180910390fd5b806004015f9054906101000a900460ff166118f0576040517f08c379a00000000000000000000000000000000000000000000000000000000081526004016118e7906136cb565b60405180910390fd5b5f805f8773ffffffffffffffffffffffffffffffffffffffff1673ffffffffffffffffffffffffffffffffffffffff1681526020019081526020015f209050806004015f81548092919061194390613777565b91905055508460ff16816005015f82825461195e91906137be565b925050819055503373ffffffffffffffffffffffffffffffffffffffff168673ffffffffffffffffffffffffffffffffffffffff167fa0b84effa00aeb81bb29f7a2eaf0cdd5e084b3e44d8136acf1661062d250b447876040516119c29190613800565b60405180910390a3505050505050565b5f803373ffffffffffffffffffffffffffffffffffffffff1673ffffffffffffffffffffffffffffffffffffffff1681526020019081526020015f2060030160149054906101000a900460ff16611a5e576040517f08c379a0000000000000000000000000000000000000000000000000000000008152600401611a55906134c3565b60405180910390fd5b805f81118015611a7057506004548111155b611aaf576040517f08c379a0000000000000000000000000000000000000000000000000000000008152600401611aa69061352b565b60405180910390fd5b8160015f8281526020019081526020015f2060040160029054906101000a900460ff1615611b12576040517f08c379a0000000000000000000000000000000000000000000000000000000008152600401611b0990613863565b60405180910390fd5b5f60015f8581526020019081526020015f2090503373ffffffffffffffffffffffffffffffffffffffff16816001015f9054906101000a900473ffffffffffffffffffffffffffffffffffffffff1673ffffffffffffffffffffffffffffffffffffffff1614611bb7576040517f08c379a0000000000000000000000000000000000000000000000000000000008152600401611bae90613d00565b60405180910390fd5b806004015f9054906101000a900460ff1615611c08576040517f08c379a0000000000000000000000000000000000000000000000000000000008152600401611bff90613933565b60405180910390fd5b6001816004015f6101000a81548160ff0219169083151502179055505f803373ffffffffffffffffffffffffffffffffffffffff1673ffffffffffffffffffffffffffffffffffffffff1681526020019081526020015f206002015f815480929190611c7390613777565b91905055503373ffffffffffffffffffffffffffffffffffffffff167f16a7286196330eaff0c7db2ec34ead9c6d2d023b356b62ee7ea644c842a84b6785604051611cbe9190612e39565b60405180910390a250505050565b805f81118015611cde57506004548111155b611d1d576040517f08c379a0000000000000000000000000000000000000000000000000000000008152600401611d149061352b565b60405180910390fd5b8160015f8281526020019081526020015f2060040160029054906101000a900460ff1615611d80576040517f08c379a0000000000000000000000000000000000000000000000000000000008152600401611d7790613863565b60405180910390fd5b5f60015f8581526020019081526020015f209050806001015f9054906101000a900473ffffffffffffffffffffffffffffffffffffffff1673ffffffffffffffffffffffffffffffffffffffff163373ffffffffffffffffffffffffffffffffffffffff161480611e3e5750805f015f9054906101000a900473ffffffffffffffffffffffffffffffffffffffff1673ffffffffffffffffffffffffffffffffffffffff163373ffffffffffffffffffffffffffffffffffffffff16145b611e7d576040517f08c379a0000000000000000000000000000000000000000000000000000000008152600401611e7490613d68565b60405180910390fd5b8060040160019054906101000a900460ff1615611ecf576040517f08c379a0000000000000000000000000000000000000000000000000000000008152600401611ec690613df6565b60405180910390fd5b60018160040160026101000a81548160ff0219169083151502179055503373ffffffffffffffffffffffffffffffffffffffff167f84a477df8a28a4276ca6dee4458a06c3015f30c477d9c949ede4e13ff8a552b485604051611f329190612e39565b60405180910390a250505050565b5f8060605f805f80875f81118015611f5a57506004548111155b611f99576040517f08c379a0000000000000000000000000000000000000000000000000000000008152600401611f909061352b565b60405180910390fd5b5f60015f8b81526020019081526020015f209050805f015f9054906101000a900473ffffffffffffffffffffffffffffffffffffffff16816001015f9054906101000a900473ffffffffffffffffffffffffffffffffffffffff16826002018360030154846004015f9054906101000a900460ff168560040160019054906101000a900460ff168660040160029054906101000a900460ff1684805461203e90612f7b565b80601f016020809104026020016040519081016040528092919081815260200182805461206a90612f7b565b80156120b55780601f1061208c576101008083540402835291602001916120b5565b820191905f5260205f20905b81548152906001019060200180831161209857829003601f168201915b5050505050945098509850985098509850985098505050919395979092949650565b60035f9054906101000a900473ffffffffffffffffffffffffffffffffffffffff1673ffffffffffffffffffffffffffffffffffffffff163373ffffffffffffffffffffffffffffffffffffffff1614612166576040517f08c379a000000000000000000000000000000000000000000000000000000000815260040161215d90613e84565b60405180910390fd5b805f8111801561217857506004548111155b6121b7576040517f08c379a00000000000000000000000000000000000000000000000000000000081526004016121ae9061352b565b60405180910390fd5b5f60015f8481526020019081526020015f2090508060040160029054906101000a900460ff1661221c576040517f08c379a000000000000000000000000000000000000000000000000000000000815260040161221390613eec565b60405180910390fd5b8060040160019054906101000a900460ff161561226e576040517f08c379a000000000000000000000000000000000000000000000000000000000815260040161226590613b1f565b60405180910390fd5b60018160040160016101000a81548160ff0219169083151502179055505f60025f835f015f9054906101000a900473ffffffffffffffffffffffffffffffffffffffff1673ffffffffffffffffffffffffffffffffffffffff1673ffffffffffffffffffffffffffffffffffffffff1681526020019081526020015f2090505f805f846001015f9054906101000a900473ffffffffffffffffffffffffffffffffffffffff1673ffffffffffffffffffffffffffffffffffffffff1673ffffffffffffffffffffffffffffffffffffffff1681526020019081526020015f2090505f80836001015411612362576003612377565b826001015483600201546123769190613449565b5b90505f8083600401541161238c5760036123a1565b826004015483600501546123a09190613449565b5b9050818103612592575f600286600301546123bc9190613449565b90505f865f015f9054906101000a900473ffffffffffffffffffffffffffffffffffffffff1673ffffffffffffffffffffffffffffffffffffffff168260405161240590613b6a565b5f6040518083038185875af1925050503d805f811461243f576040519150601f19603f3d011682016040523d82523d5f602084013e612444565b606091505b5050905080612488576040517f08c379a000000000000000000000000000000000000000000000000000000000815260040161247f90613f54565b60405180910390fd5b5f876001015f9054906101000a900473ffffffffffffffffffffffffffffffffffffffff1673ffffffffffffffffffffffffffffffffffffffff16836040516124d090613b6a565b5f6040518083038185875af1925050503d805f811461250a576040519150601f19603f3d011682016040523d82523d5f602084013e61250f565b606091505b5050905080612553576040517f08c379a000000000000000000000000000000000000000000000000000000000815260040161254a90613fbc565b60405180910390fd5b7f831764ac02a33c193cba23a0de34c986e9b50402bf3c9febf6ff2f63d4c0435d8a604051612582919061404a565b60405180910390a15050506127ae565b818111156126a6575f856001015f9054906101000a900473ffffffffffffffffffffffffffffffffffffffff1673ffffffffffffffffffffffffffffffffffffffff1686600301546040516125e690613b6a565b5f6040518083038185875af1925050503d805f8114612620576040519150601f19603f3d011682016040523d82523d5f602084013e612625565b606091505b5050905080612669576040517f08c379a000000000000000000000000000000000000000000000000000000000815260040161266090613fbc565b60405180910390fd5b7f831764ac02a33c193cba23a0de34c986e9b50402bf3c9febf6ff2f63d4c0435d8860405161269891906140c0565b60405180910390a1506127ad565b5f855f015f9054906101000a900473ffffffffffffffffffffffffffffffffffffffff1673ffffffffffffffffffffffffffffffffffffffff1686600301546040516126f190613b6a565b5f6040518083038185875af1925050503d805f811461272b576040519150601f19603f3d011682016040523d82523d5f602084013e612730565b606091505b5050905080612774576040517f08c379a000000000000000000000000000000000000000000000000000000000815260040161276b90613f54565b60405180910390fd5b7f831764ac02a33c193cba23a0de34c986e9b50402bf3c9febf6ff2f63d4c0435d886040516127a39190614136565b60405180910390a1505b5b50505050505050565b5f83839050116127fc576040517f08c379a00000000000000000000000000000000000000000000000000000000081526004016127f3906141ac565b60405180910390fd5b80341461283e576040517f08c379a000000000000000000000000000000000000000000000000000000000815260040161283590614214565b60405180910390fd5b6040518060e001604052803373ffffffffffffffffffffffffffffffffffffffff1681526020015f73ffffffffffffffffffffffffffffffffffffffff16815260200184848080601f0160208091040260200160405190810160405280939291908181526020018383808284375f81840152601f19601f8201169050808301925050505050505081526020018281526020015f151581526020015f151581526020015f151581525060015f60045481526020019081526020015f205f820151815f015f6101000a81548173ffffffffffffffffffffffffffffffffffffffff021916908373ffffffffffffffffffffffffffffffffffffffff1602179055506020820151816001015f6101000a81548173ffffffffffffffffffffffffffffffffffffffff021916908373ffffffffffffffffffffffffffffffffffffffff16021790555060408201518160020190816129989190613245565b50606082015181600301556080820151816004015f6101000a81548160ff02191690831515021790555060a08201518160040160016101000a81548160ff02191690831515021790555060c08201518160040160026101000a81548160ff0219169083151502179055509050503373ffffffffffffffffffffffffffffffffffffffff167fd347156c0e050f531434f3eac5fc2137040ab077ca656f465275ebe566aaf115600454858585604051612a539493929190614232565b60405180910390a260045f815480929190612a6d90613777565b9190505550505050565b5f80fd5b5f80fd5b5f819050919050565b612a9181612a7f565b8114612a9b575f80fd5b50565b5f81359050612aac81612a88565b92915050565b5f60208284031215612ac757612ac6612a77565b5b5f612ad484828501612a9e565b91505092915050565b5f73ffffffffffffffffffffffffffffffffffffffff82169050919050565b5f612b0682612add565b9050919050565b612b1681612afc565b82525050565b5f81519050919050565b5f82825260208201905092915050565b5f5b83811015612b53578082015181840152602081019050612b38565b5f8484015250505050565b5f601f19601f8301169050919050565b5f612b7882612b1c565b612b828185612b26565b9350612b92818560208601612b36565b612b9b81612b5e565b840191505092915050565b612baf81612a7f565b82525050565b5f8115159050919050565b612bc981612bb5565b82525050565b5f60e082019050612be25f83018a612b0d565b612bef6020830189612b0d565b8181036040830152612c018188612b6e565b9050612c106060830187612ba6565b612c1d6080830186612bc0565b612c2a60a0830185612bc0565b612c3760c0830184612bc0565b98975050505050505050565b5f80fd5b5f80fd5b5f80fd5b5f8083601f840112612c6457612c63612c43565b5b8235905067ffffffffffffffff811115612c8157612c80612c47565b5b602083019150836001820283011115612c9d57612c9c612c4b565b5b9250929050565b5f805f8060408587031215612cbc57612cbb612a77565b5b5f85013567ffffffffffffffff811115612cd957612cd8612a7b565b5b612ce587828801612c4f565b9450945050602085013567ffffffffffffffff811115612d0857612d07612a7b565b5b612d1487828801612c4f565b925092505092959194509250565b612d2b81612afc565b8114612d35575f80fd5b50565b5f81359050612d4681612d22565b92915050565b5f60208284031215612d6157612d60612a77565b5b5f612d6e84828501612d38565b91505092915050565b5f604082019050612d8a5f830185612ba6565b612d976020830184612ba6565b9392505050565b5f612da882612add565b9050919050565b612db881612d9e565b82525050565b5f60e0820190508181035f830152612dd6818a612b6e565b90508181036020830152612dea8189612b6e565b9050612df96040830188612ba6565b612e066060830187612daf565b612e136080830186612bc0565b612e2060a0830185612ba6565b612e2d60c0830184612ba6565b98975050505050505050565b5f602082019050612e4c5f830184612ba6565b92915050565b5f60ff82169050919050565b612e6781612e52565b8114612e71575f80fd5b50565b5f81359050612e8281612e5e565b92915050565b5f805f60608486031215612e9f57612e9e612a77565b5b5f612eac86828701612d38565b9350506020612ebd86828701612e74565b9250506040612ece86828701612a9e565b9150509250925092565b5f602082019050612eeb5f830184612b0d565b92915050565b5f805f60408486031215612f0857612f07612a77565b5b5f84013567ffffffffffffffff811115612f2557612f24612a7b565b5b612f3186828701612c4f565b93509350506020612f4486828701612a9e565b9150509250925092565b7f4e487b71000000000000000000000000000000000000000000000000000000005f52602260045260245ffd5b5f6002820490506001821680612f9257607f821691505b602082108103612fa557612fa4612f4e565b5b50919050565b7f576f726b657220616c72656164792072656769737465726564000000000000005f82015250565b5f612fdf601983612b26565b9150612fea82612fab565b602082019050919050565b5f6020820190508181035f83015261300c81612fd3565b9050919050565b7f496e76616c6964206e616d65206f7220736b696c6c00000000000000000000005f82015250565b5f613047601583612b26565b915061305282613013565b602082019050919050565b5f6020820190508181035f8301526130748161303b565b9050919050565b7f4e487b71000000000000000000000000000000000000000000000000000000005f52604160045260245ffd5b5f819050815f5260205f209050919050565b5f6020601f8301049050919050565b5f82821b905092915050565b5f600883026131047fffffffffffffffffffffffffffffffffffffffffffffffffffffffffffffffff826130c9565b61310e86836130c9565b95508019841693508086168417925050509392505050565b5f819050919050565b5f61314961314461313f84612a7f565b613126565b612a7f565b9050919050565b5f819050919050565b6131628361312f565b61317661316e82613150565b8484546130d5565b825550505050565b5f90565b61318a61317e565b613195818484613159565b505050565b5b818110156131b8576131ad5f82613182565b60018101905061319b565b5050565b601f8211156131fd576131ce816130a8565b6131d7846130ba565b810160208510156131e6578190505b6131fa6131f2856130ba565b83018261319a565b50505b505050565b5f82821c905092915050565b5f61321d5f1984600802613202565b1980831691505092915050565b5f613235838361320e565b9150826002028217905092915050565b61324e82612b1c565b67ffffffffffffffff8111156132675761326661307b565b5b6132718254612f7b565b61327c8282856131bc565b5f60209050601f8311600181146132ad575f841561329b578287015190505b6132a5858261322a565b86555061330c565b601f1984166132bb866130a8565b5f5b828110156132e2578489015182556001820191506020850194506020810190506132bd565b868310156132ff57848901516132fb601f89168261320e565b8355505b6001600288020188555050505b505050505050565b828183375f83830152505050565b5f61332d8385612b26565b935061333a838584613314565b61334383612b5e565b840190509392505050565b5f6040820190508181035f830152613367818688613322565b9050818103602083015261337c818486613322565b905095945050505050565b7f576f726b6572206e6f74207265676973746572656400000000000000000000005f82015250565b5f6133bb601583612b26565b91506133c682613387565b602082019050919050565b5f6020820190508181035f8301526133e8816133af565b9050919050565b7f4e487b71000000000000000000000000000000000000000000000000000000005f52601260045260245ffd5b7f4e487b71000000000000000000000000000000000000000000000000000000005f52601160045260245ffd5b5f61345382612a7f565b915061345e83612a7f565b92508261346e5761346d6133ef565b5b828204905092915050565b7f4e6f742061207265676973746572656420776f726b65720000000000000000005f82015250565b5f6134ad601783612b26565b91506134b882613479565b602082019050919050565b5f6020820190508181035f8301526134da816134a1565b9050919050565b7f4a6f6220646f6573206e6f7420657869737400000000000000000000000000005f82015250565b5f613515601283612b26565b9150613520826134e1565b602082019050919050565b5f6020820190508181035f83015261354281613509565b9050919050565b7f526174696e67206d757374206265206265747765656e203120616e64203500005f82015250565b5f61357d601e83612b26565b915061358882613549565b602082019050919050565b5f6020820190508181035f8301526135aa81613571565b9050919050565b7f4f6e6c7920776f726b65722063616e207261746520636c69656e7400000000005f82015250565b5f6135e5601b83612b26565b91506135f0826135b1565b602082019050919050565b5f6020820190508181035f830152613612816135d9565b9050919050565b7f496e76616c696420636c69656e740000000000000000000000000000000000005f82015250565b5f61364d600e83612b26565b915061365882613619565b602082019050919050565b5f6020820190508181035f83015261367a81613641565b9050919050565b7f4a6f62206d75737420626520636f6d706c6574656400000000000000000000005f82015250565b5f6136b5601583612b26565b91506136c082613681565b602082019050919050565b5f6020820190508181035f8301526136e2816136a9565b9050919050565b7f576f726b657220616c726561647920726174656420636c69656e7420666f72205f8201527f74686973206a6f62000000000000000000000000000000000000000000000000602082015250565b5f613743602883612b26565b915061374e826136e9565b604082019050919050565b5f6020820190508181035f83015261377081613737565b9050919050565b5f61378182612a7f565b91507fffffffffffffffffffffffffffffffffffffffffffffffffffffffffffffffff82036137b3576137b261341c565b5b600182019050919050565b5f6137c882612a7f565b91506137d383612a7f565b92508282019050808211156137eb576137ea61341c565b5b92915050565b6137fa81612e52565b82525050565b5f6020820190506138135f8301846137f1565b92915050565b7f4469737075746520616c726561647920726169736564000000000000000000005f82015250565b5f61384d601683612b26565b915061385882613819565b602082019050919050565b5f6020820190508181035f83015261387a81613841565b9050919050565b7f4a6f6220616c72656164792074616b656e0000000000000000000000000000005f82015250565b5f6138b5601183612b26565b91506138c082613881565b602082019050919050565b5f6020820190508181035f8301526138e2816138a9565b9050919050565b7f4a6f6220616c726561647920636f6d706c6574656400000000000000000000005f82015250565b5f61391d601583612b26565b9150613928826138e9565b602082019050919050565b5f6020820190508181035f83015261394a81613911565b9050919050565b7f596f75206d75737420636f6d706c65746520796f75722063757272656e74206a5f8201527f6f62206265666f726520616363657074696e672061206e6577206f6e65000000602082015250565b5f6139ab603d83612b26565b91506139b682613951565b604082019050919050565b5f6020820190508181035f8301526139d88161399f565b9050919050565b7f4f6e6c79206a6f6220636c69656e742063616e2072656c65617365207061796d5f8201527f656e740000000000000000000000000000000000000000000000000000000000602082015250565b5f613a39602383612b26565b9150613a44826139df565b604082019050919050565b5f6020820190508181035f830152613a6681613a2d565b9050919050565b7f4a6f62206e6f7420636f6d706c657465642079657400000000000000000000005f82015250565b5f613aa1601583612b26565b9150613aac82613a6d565b602082019050919050565b5f6020820190508181035f830152613ace81613a95565b9050919050565b7f5061796d656e7420616c72656164792072656c656173656400000000000000005f82015250565b5f613b09601883612b26565b9150613b1482613ad5565b602082019050919050565b5f6020820190508181035f830152613b3681613afd565b9050919050565b5f81905092915050565b50565b5f613b555f83613b3d565b9150613b6082613b47565b5f82019050919050565b5f613b7482613b4a565b9150819050919050565b7f5061796d656e74207472616e73666572206661696c65640000000000000000005f82015250565b5f613bb2601783612b26565b9150613bbd82613b7e565b602082019050919050565b5f6020820190508181035f830152613bdf81613ba6565b9050919050565b7f4f6e6c7920636c69656e742063616e207261746520776f726b657200000000005f82015250565b5f613c1a601b83612b26565b9150613c2582613be6565b602082019050919050565b5f6020820190508181035f830152613c4781613c0e565b9050919050565b7f496e76616c696420776f726b65720000000000000000000000000000000000005f82015250565b5f613c82600e83612b26565b9150613c8d82613c4e565b602082019050919050565b5f6020820190508181035f830152613caf81613c76565b9050919050565b7f596f7520617265206e6f742061737369676e656420746f2074686973206a6f625f82015250565b5f613cea602083612b26565b9150613cf582613cb6565b602082019050919050565b5f6020820190508181035f830152613d1781613cde565b9050919050565b7f556e617574686f72697a656400000000000000000000000000000000000000005f82015250565b5f613d52600c83612b26565b9150613d5d82613d1e565b602082019050919050565b5f6020820190508181035f830152613d7f81613d46565b9050919050565b7f5061796d656e7420616c72656164792072656c65617365642c206469737075745f8201527f652063616e277420626520726169736564000000000000000000000000000000602082015250565b5f613de0603183612b26565b9150613deb82613d86565b604082019050919050565b5f6020820190508181035f830152613e0d81613dd4565b9050919050565b7f4f6e6c7920636f6e7472616374206f776e65722063616e2063616c6c207468695f8201527f7300000000000000000000000000000000000000000000000000000000000000602082015250565b5f613e6e602183612b26565b9150613e7982613e14565b604082019050919050565b5f6020820190508181035f830152613e9b81613e62565b9050919050565b7f4e6f20646973707574652072616973656420666f722074686973206a6f6200005f82015250565b5f613ed6601e83612b26565b9150613ee182613ea2565b602082019050919050565b5f6020820190508181035f830152613f0381613eca565b9050919050565b7f436c69656e7420726566756e64207472616e73666572206661696c65640000005f82015250565b5f613f3e601d83612b26565b9150613f4982613f0a565b602082019050919050565b5f6020820190508181035f830152613f6b81613f32565b9050919050565b7f576f726b6572207061796d656e74207472616e73666572206661696c656400005f82015250565b5f613fa6601e83612b26565b9150613fb182613f72565b602082019050919050565b5f6020820190508181035f830152613fd381613f9a565b9050919050565b7f5469652c2066756e64732073706c69742035302f3530206265747765656e20775f8201527f6f726b657220616e6420636c69656e7400000000000000000000000000000000602082015250565b5f614034603083612b26565b915061403f82613fda565b604082019050919050565b5f60408201905061405d5f830184612ba6565b818103602083015261406e81614028565b905092915050565b7f576f726b65722077696e732c207061796d656e742072656c65617365640000005f82015250565b5f6140aa601d83612b26565b91506140b582614076565b602082019050919050565b5f6040820190506140d35f830184612ba6565b81810360208301526140e48161409e565b905092915050565b7f436c69656e742077696e732c2066756e64732072657475726e656400000000005f82015250565b5f614120601b83612b26565b915061412b826140ec565b602082019050919050565b5f6040820190506141495f830184612ba6565b818103602083015261415a81614114565b905092915050565b7f4a6f62206465736372697074696f6e2063616e6e6f7420626520656d707479005f82015250565b5f614196601f83612b26565b91506141a182614162565b602082019050919050565b5f6020820190508181035f8301526141c38161418a565b9050919050565b7f496e636f7272656374207061796d656e7420616d6f756e7400000000000000005f82015250565b5f6141fe601883612b26565b9150614209826141ca565b602082019050919050565b5f6020820190508181035f83015261422b816141f2565b9050919050565b5f6060820190506142455f830187612ba6565b8181036020830152614258818587613322565b90506142676040830184612ba6565b9594505050505056fea26469706673582212203e10ba7231c262df7eceb7785746810812932d88196c8a822a508a1f19a86cc464736f6c63430008150033",
  "immutableReferences": {},
  "source": "// SPDX-License-Identifier: MIT\r\npragma solidity ^0.8.20;\r\n\r\ncontract GigEconomy {\r\n    struct Worker {\r\n        string name;\r\n        string skill;\r\n        uint completedTasks;\r\n        address payable wallet;\r\n        bool isRegistered;\r\n        uint totalRatings;\r\n        uint sumRatings;\r\n    }\r\n\r\n    struct Job {\r\n        address client;\r\n        address worker;\r\n        string description;\r\n        uint payment;\r\n        bool isCompleted;\r\n        bool isPaid;\r\n        bool disputeRaised;\r\n    }\r\n\r\n    struct Client {\r\n        mapping(uint => mapping(address => uint8)) ratingsPerJob;\r\n        uint totalRatings;\r\n        uint sumRatings;\r\n    }\r\n\r\n    mapping(address => Worker) public workers;\r\n    mapping(uint => Job) public jobs;\r\n    mapping(address => Client) public clients;\r\n\r\n    address public owner;\r\n    uint public jobCounter;\r\n\r\n    event WorkerRegistered(address indexed worker, string name, string skill);\r\n    event JobPosted(\r\n        uint jobId,\r\n        address indexed client,\r\n        string description,\r\n        uint payment\r\n    );\r\n    event JobAccepted(uint jobId, address indexed worker);\r\n    event JobCompleted(uint jobId, address indexed worker);\r\n    event PaymentReleased(uint jobId, address indexed worker, uint amount);\r\n    event DisputeRaised(uint jobId, address indexed user);\r\n    event DisputeResolved(uint jobId, string decision);\r\n    event RatingGiven(\r\n        address indexed worker,\r\n        address indexed rater,\r\n        uint8 rating\r\n    );\r\n\r\n    modifier onlyOwner() {\r\n        require(msg.sender == owner, \"Only contract owner can call this\");\r\n        _;\r\n    }\r\n\r\n    modifier onlyRegistered() {\r\n        require(workers[msg.sender].isRegistered, \"Not a registered worker\");\r\n        _;\r\n    }\r\n\r\n    modifier jobExists(uint _jobId) {\r\n        require(_jobId > 0 && _jobId <= jobCounter, \"Job does not exist\");\r\n        _;\r\n    }\r\n\r\n    modifier jobNotDisputed(uint _jobId) {\r\n        require(!jobs[_jobId].disputeRaised, \"Dispute already raised\");\r\n        _;\r\n    }\r\n\r\n    constructor() {\r\n        owner = msg.sender;\r\n        jobCounter = 1;\r\n    }\r\n\r\n    function registerWorker(\r\n        string calldata _name,\r\n        string calldata _skill\r\n    ) external {\r\n        require(!workers[msg.sender].isRegistered, \"Worker already registered\");\r\n        require(\r\n            bytes(_name).length > 0 && bytes(_skill).length > 0,\r\n            \"Invalid name or skill\"\r\n        );\r\n        workers[msg.sender] = Worker({\r\n            name: _name,\r\n            skill: _skill,\r\n            completedTasks: 0,\r\n            wallet: payable(msg.sender),\r\n            isRegistered: true,\r\n            totalRatings: 0,\r\n            sumRatings: 0\r\n        });\r\n        emit WorkerRegistered(msg.sender, _name, _skill);\r\n    }\r\n\r\n    function postJob(\r\n        string calldata _description,\r\n        uint _payment\r\n    ) external payable {\r\n        require(\r\n            bytes(_description).length > 0,\r\n            \"Job description cannot be empty\"\r\n        );\r\n        require(msg.value == _payment, \"Incorrect payment amount\");\r\n\r\n        jobs[jobCounter] = Job({\r\n            client: msg.sender,\r\n            worker: address(0),\r\n            description: _description,\r\n            payment: _payment,\r\n            isCompleted: false,\r\n            isPaid: false,\r\n            disputeRaised: false\r\n        });\r\n        emit JobPosted(jobCounter, msg.sender, _description, _payment);\r\n        jobCounter++;\r\n    }\r\n\r\n    function acceptJob(\r\n        uint _jobId\r\n    ) external onlyRegistered jobExists(_jobId) jobNotDisputed(_jobId) {\r\n        Job storage job = jobs[_jobId];\r\n        require(job.worker == address(0), \"Job already taken\");\r\n        require(!job.isCompleted, \"Job already completed\");\r\n        for (uint i = 1; i < jobCounter; i++) {\r\n            if (jobs[i].worker == msg.sender && !jobs[i].isCompleted) {\r\n                revert(\r\n                    \"You must complete your current job before accepting a new one\"\r\n                );\r\n            }\r\n        }\r\n        job.worker = msg.sender;\r\n        emit JobAccepted(_jobId, msg.sender);\r\n    }\r\n\r\n    function completeJob(\r\n        uint _jobId\r\n    ) external onlyRegistered jobExists(_jobId) jobNotDisputed(_jobId) {\r\n        Job storage job = jobs[_jobId];\r\n        require(job.worker == msg.sender, \"You are not assigned to this job\");\r\n        require(!job.isCompleted, \"Job already completed\");\r\n        job.isCompleted = true;\r\n        workers[msg.sender].completedTasks++;\r\n        emit JobCompleted(_jobId, msg.sender);\r\n    }\r\n\r\n    function releasePayment(\r\n        uint _jobId\r\n    ) external jobExists(_jobId) jobNotDisputed(_jobId) {\r\n        Job storage job = jobs[_jobId];\r\n        require(\r\n            job.client == msg.sender,\r\n            \"Only job client can release payment\"\r\n        );\r\n        require(job.isCompleted, \"Job not completed yet\");\r\n        require(!job.isPaid, \"Payment already released\");\r\n        job.isPaid = true;\r\n        uint paymentAmount = job.payment;\r\n        (bool success, ) = job.worker.call{value: paymentAmount}(\"\");\r\n        require(success, \"Payment transfer failed\");\r\n        emit PaymentReleased(_jobId, job.worker, paymentAmount);\r\n    }\r\n\r\n    function raiseDispute(\r\n        uint _jobId\r\n    ) external jobExists(_jobId) jobNotDisputed(_jobId) {\r\n        Job storage job = jobs[_jobId];\r\n        require(\r\n            msg.sender == job.worker || msg.sender == job.client,\r\n            \"Unauthorized\"\r\n        );\r\n        require(\r\n            !job.isPaid,\r\n            \"Payment already released, dispute can't be raised\"\r\n        );\r\n        job.disputeRaised = true;\r\n        emit DisputeRaised(_jobId, msg.sender);\r\n    }\r\n\r\n    function resolveDispute(uint _jobId) external onlyOwner jobExists(_jobId) {\r\n        Job storage job = jobs[_jobId];\r\n        require(job.disputeRaised, \"No dispute raised for this job\");\r\n        require(!job.isPaid, \"Payment already released\");\r\n        job.isPaid = true;\r\n        Client storage client = clients[job.client];\r\n        Worker storage worker = workers[job.worker];\r\n        uint clientAverageRating = client.totalRatings > 0\r\n            ? client.sumRatings / client.totalRatings\r\n            : 3;\r\n        uint workerAverageRating = worker.totalRatings > 0\r\n            ? worker.sumRatings / worker.totalRatings\r\n            : 3;\r\n        if (workerAverageRating == clientAverageRating) {\r\n            uint halfPayment = job.payment / 2;\r\n            (bool successClient, ) = job.client.call{value: halfPayment}(\"\");\r\n            require(successClient, \"Client refund transfer failed\");\r\n\r\n            (bool successWorker, ) = job.worker.call{value: halfPayment}(\"\");\r\n            require(successWorker, \"Worker payment transfer failed\");\r\n\r\n            emit DisputeResolved(\r\n                _jobId,\r\n                \"Tie, funds split 50/50 between worker and client\"\r\n            );\r\n        } else if (workerAverageRating > clientAverageRating) {\r\n            (bool success, ) = job.worker.call{value: job.payment}(\"\");\r\n            require(success, \"Worker payment transfer failed\");\r\n            emit DisputeResolved(_jobId, \"Worker wins, payment released\");\r\n        } else {\r\n            (bool success, ) = job.client.call{value: job.payment}(\"\");\r\n            require(success, \"Client refund transfer failed\");\r\n            emit DisputeResolved(_jobId, \"Client wins, funds returned\");\r\n        }\r\n    }\r\n\r\n    function rateClient(\r\n        address _client,\r\n        uint8 _rating,\r\n        uint _jobId\r\n    ) external onlyRegistered jobExists(_jobId) {\r\n        require(_rating >= 1 && _rating <= 5, \"Rating must be between 1 and 5\");\r\n        Job storage job = jobs[_jobId];\r\n        require(job.worker == msg.sender, \"Only worker can rate client\");\r\n        require(job.client == _client, \"Invalid client\");\r\n        require(job.isCompleted, \"Job must be completed\");\r\n        Client storage client = clients[_client];\r\n        require(\r\n            client.ratingsPerJob[_jobId][msg.sender] == 0,\r\n            \"Worker already rated client for this job\"\r\n        );\r\n        client.ratingsPerJob[_jobId][msg.sender] = _rating;\r\n        client.totalRatings++;\r\n        client.sumRatings += _rating;\r\n        emit RatingGiven(job.worker, _client, _rating);\r\n    }\r\n\r\n    function getWorkerStats(\r\n        address _worker\r\n    ) external view returns (uint completedJobs, uint averageRating) {\r\n        require(workers[_worker].isRegistered, \"Worker not registered\");\r\n        Worker storage worker = workers[_worker];\r\n        if (worker.totalRatings > 0) {\r\n            return (\r\n                worker.completedTasks,\r\n                worker.sumRatings / worker.totalRatings\r\n            );\r\n        } else {\r\n            return (worker.completedTasks, 0);\r\n        }\r\n    }\r\n\r\n    function rateWorker(\r\n        address _worker,\r\n        uint8 _rating,\r\n        uint _jobId\r\n    ) external jobExists(_jobId) {\r\n        require(_rating >= 1 && _rating <= 5, \"Rating must be between 1 and 5\");\r\n        Job storage job = jobs[_jobId];\r\n        require(job.client == msg.sender, \"Only client can rate worker\");\r\n        require(job.worker == _worker, \"Invalid worker\");\r\n        require(job.isCompleted, \"Job must be completed\");\r\n        Worker storage worker = workers[_worker];\r\n        worker.totalRatings++;\r\n        worker.sumRatings += _rating;\r\n        emit RatingGiven(_worker, msg.sender, _rating);\r\n    }\r\n\r\n    function getJob(\r\n        uint _jobId\r\n    )\r\n        external\r\n        view\r\n        jobExists(_jobId)\r\n        returns (\r\n            address client,\r\n            address worker,\r\n            string memory description,\r\n            uint payment,\r\n            bool isCompleted,\r\n            bool isPaid,\r\n            bool disputeRaised\r\n        )\r\n    {\r\n        Job storage job = jobs[_jobId];\r\n        return (\r\n            job.client,\r\n            job.worker,\r\n            job.description,\r\n            job.payment,\r\n            job.isCompleted,\r\n            job.isPaid,\r\n            job.disputeRaised\r\n        );\r\n    }\r\n\r\n    receive() external payable {}\r\n}\r\n",
  "sourcePath": "C:\\Users\\chira\\Desktop\\Blockchain\\Backend\\contracts\\GigEconomy.sol",
  "compiler": {
    "name": "solc",
    "version": "0.8.21+commit.d9974bed.Emscripten.clang"
  },
  "schemaVersion": "3.4.16",
  "updatedAt": "2025-03-18T18:04:33.436Z",
  "devdoc": {
    "kind": "dev",
    "methods": {},
    "version": 1
  },
  "userdoc": {
    "kind": "user",
    "methods": {},
    "version": 1
  }
}