{
  "contractName": "GigEconomy",
  "abi": [
    {
      "inputs": [],
      "stateMutability": "nonpayable",
      "type": "constructor"
    },
    {
      "anonymous": false,
      "inputs": [
        {
          "indexed": false,
          "internalType": "uint256",
          "name": "jobId",
          "type": "uint256"
        },
        {
          "indexed": true,
          "internalType": "address",
          "name": "user",
          "type": "address"
        }
      ],
      "name": "DisputeRaised",
      "type": "event"
    },
    {
      "anonymous": false,
      "inputs": [
        {
          "indexed": false,
          "internalType": "uint256",
          "name": "jobId",
          "type": "uint256"
        },
        {
          "indexed": false,
          "internalType": "string",
          "name": "decision",
          "type": "string"
        }
      ],
      "name": "DisputeResolved",
      "type": "event"
    },
    {
      "anonymous": false,
      "inputs": [
        {
          "indexed": false,
          "internalType": "uint256",
          "name": "jobId",
          "type": "uint256"
        },
        {
          "indexed": true,
          "internalType": "address",
          "name": "worker",
          "type": "address"
        }
      ],
      "name": "JobAccepted",
      "type": "event"
    },
    {
      "anonymous": false,
      "inputs": [
        {
          "indexed": false,
          "internalType": "uint256",
          "name": "jobId",
          "type": "uint256"
        },
        {
          "indexed": true,
          "internalType": "address",
          "name": "worker",
          "type": "address"
        }
      ],
      "name": "JobCompleted",
      "type": "event"
    },
    {
      "anonymous": false,
      "inputs": [
        {
          "indexed": false,
          "internalType": "uint256",
          "name": "jobId",
          "type": "uint256"
        },
        {
          "indexed": true,
          "internalType": "address",
          "name": "client",
          "type": "address"
        },
        {
          "indexed": false,
          "internalType": "string",
          "name": "description",
          "type": "string"
        },
        {
          "indexed": false,
          "internalType": "uint256",
          "name": "payment",
          "type": "uint256"
        }
      ],
      "name": "JobPosted",
      "type": "event"
    },
    {
      "anonymous": false,
      "inputs": [
        {
          "indexed": false,
          "internalType": "uint256",
          "name": "jobId",
          "type": "uint256"
        },
        {
          "indexed": true,
          "internalType": "address",
          "name": "worker",
          "type": "address"
        },
        {
          "indexed": false,
          "internalType": "uint256",
          "name": "amount",
          "type": "uint256"
        }
      ],
      "name": "PaymentReleased",
      "type": "event"
    },
    {
      "anonymous": false,
      "inputs": [
        {
          "indexed": true,
          "internalType": "address",
          "name": "worker",
          "type": "address"
        },
        {
          "indexed": true,
          "internalType": "address",
          "name": "rater",
          "type": "address"
        },
        {
          "indexed": false,
          "internalType": "uint8",
          "name": "rating",
          "type": "uint8"
        }
      ],
      "name": "RatingGiven",
      "type": "event"
    },
    {
      "anonymous": false,
      "inputs": [
        {
          "indexed": true,
          "internalType": "address",
          "name": "worker",
          "type": "address"
        },
        {
          "indexed": false,
          "internalType": "string",
          "name": "name",
          "type": "string"
        },
        {
          "indexed": false,
          "internalType": "string",
          "name": "skill",
          "type": "string"
        }
      ],
      "name": "WorkerRegistered",
      "type": "event"
    },
    {
      "inputs": [
        {
          "internalType": "address",
          "name": "",
          "type": "address"
        }
      ],
      "name": "clients",
      "outputs": [
        {
          "internalType": "uint256",
          "name": "totalRatings",
          "type": "uint256"
        },
        {
          "internalType": "uint256",
          "name": "sumRatings",
          "type": "uint256"
        }
      ],
      "stateMutability": "view",
      "type": "function"
    },
    {
      "inputs": [],
      "name": "jobCounter",
      "outputs": [
        {
          "internalType": "uint256",
          "name": "",
          "type": "uint256"
        }
      ],
      "stateMutability": "view",
      "type": "function"
    },
    {
      "inputs": [
        {
          "internalType": "uint256",
          "name": "",
          "type": "uint256"
        }
      ],
      "name": "jobs",
      "outputs": [
        {
          "internalType": "address",
          "name": "client",
          "type": "address"
        },
        {
          "internalType": "address",
          "name": "worker",
          "type": "address"
        },
        {
          "internalType": "string",
          "name": "description",
          "type": "string"
        },
        {
          "internalType": "uint256",
          "name": "payment",
          "type": "uint256"
        },
        {
          "internalType": "bool",
          "name": "isCompleted",
          "type": "bool"
        },
        {
          "internalType": "bool",
          "name": "isPaid",
          "type": "bool"
        },
        {
          "internalType": "bool",
          "name": "disputeRaised",
          "type": "bool"
        },
        {
          "internalType": "bool",
          "name": "workerRated",
          "type": "bool"
        },
        {
          "internalType": "bool",
          "name": "cilentRated",
          "type": "bool"
        }
      ],
      "stateMutability": "view",
      "type": "function"
    },
    {
      "inputs": [],
      "name": "owner",
      "outputs": [
        {
          "internalType": "address",
          "name": "",
          "type": "address"
        }
      ],
      "stateMutability": "view",
      "type": "function"
    },
    {
      "inputs": [
        {
          "internalType": "address",
          "name": "",
          "type": "address"
        }
      ],
      "name": "workers",
      "outputs": [
        {
          "internalType": "string",
          "name": "name",
          "type": "string"
        },
        {
          "internalType": "string",
          "name": "skill",
          "type": "string"
        },
        {
          "internalType": "uint256",
          "name": "completedTasks",
          "type": "uint256"
        },
        {
          "internalType": "address payable",
          "name": "wallet",
          "type": "address"
        },
        {
          "internalType": "bool",
          "name": "isRegistered",
          "type": "bool"
        },
        {
          "internalType": "uint256",
          "name": "totalRatings",
          "type": "uint256"
        },
        {
          "internalType": "uint256",
          "name": "sumRatings",
          "type": "uint256"
        }
      ],
      "stateMutability": "view",
      "type": "function"
    },
    {
      "stateMutability": "payable",
      "type": "receive"
    },
    {
      "inputs": [
        {
          "internalType": "string",
          "name": "_name",
          "type": "string"
        },
        {
          "internalType": "string",
          "name": "_skill",
          "type": "string"
        }
      ],
      "name": "registerWorker",
      "outputs": [],
      "stateMutability": "nonpayable",
      "type": "function"
    },
    {
      "inputs": [
        {
          "internalType": "string",
          "name": "_description",
          "type": "string"
        },
        {
          "internalType": "uint256",
          "name": "_payment",
          "type": "uint256"
        }
      ],
      "name": "postJob",
      "outputs": [],
      "stateMutability": "payable",
      "type": "function"
    },
    {
      "inputs": [
        {
          "internalType": "uint256",
          "name": "_jobId",
          "type": "uint256"
        }
      ],
      "name": "acceptJob",
      "outputs": [],
      "stateMutability": "nonpayable",
      "type": "function"
    },
    {
      "inputs": [
        {
          "internalType": "uint256",
          "name": "_jobId",
          "type": "uint256"
        }
      ],
      "name": "completeJob",
      "outputs": [],
      "stateMutability": "nonpayable",
      "type": "function"
    },
    {
      "inputs": [
        {
          "internalType": "uint256",
          "name": "_jobId",
          "type": "uint256"
        }
      ],
      "name": "releasePayment",
      "outputs": [],
      "stateMutability": "nonpayable",
      "type": "function"
    },
    {
      "inputs": [
        {
          "internalType": "uint256",
          "name": "_jobId",
          "type": "uint256"
        }
      ],
      "name": "raiseDispute",
      "outputs": [],
      "stateMutability": "nonpayable",
      "type": "function"
    },
    {
      "inputs": [
        {
          "internalType": "uint256",
          "name": "_jobId",
          "type": "uint256"
        }
      ],
      "name": "resolveDispute",
      "outputs": [],
      "stateMutability": "nonpayable",
      "type": "function"
    },
    {
      "inputs": [
        {
          "internalType": "uint8",
          "name": "_rating",
          "type": "uint8"
        },
        {
          "internalType": "uint256",
          "name": "_jobId",
          "type": "uint256"
        }
      ],
      "name": "rateClient",
      "outputs": [],
      "stateMutability": "nonpayable",
      "type": "function"
    },
    {
      "inputs": [
        {
          "internalType": "address",
          "name": "_worker",
          "type": "address"
        }
      ],
      "name": "getWorkerStats",
      "outputs": [
        {
          "internalType": "uint256",
          "name": "completedJobs",
          "type": "uint256"
        },
        {
          "internalType": "uint256",
          "name": "averageRating",
          "type": "uint256"
        }
      ],
      "stateMutability": "view",
      "type": "function"
    },
    {
      "inputs": [
        {
          "internalType": "uint8",
          "name": "_rating",
          "type": "uint8"
        },
        {
          "internalType": "uint256",
          "name": "_jobId",
          "type": "uint256"
        }
      ],
      "name": "rateWorker",
      "outputs": [],
      "stateMutability": "nonpayable",
      "type": "function"
    },
    {
      "inputs": [
        {
          "internalType": "uint256",
          "name": "_jobId",
          "type": "uint256"
        }
      ],
      "name": "getJob",
      "outputs": [
        {
          "internalType": "address",
          "name": "client",
          "type": "address"
        },
        {
          "internalType": "address",
          "name": "worker",
          "type": "address"
        },
        {
          "internalType": "string",
          "name": "description",
          "type": "string"
        },
        {
          "internalType": "uint256",
          "name": "payment",
          "type": "uint256"
        },
        {
          "internalType": "bool",
          "name": "isCompleted",
          "type": "bool"
        },
        {
          "internalType": "bool",
          "name": "isPaid",
          "type": "bool"
        },
        {
          "internalType": "bool",
          "name": "disputeRaised",
          "type": "bool"
        },
        {
          "internalType": "bool",
          "name": "workerRated",
          "type": "bool"
        },
        {
          "internalType": "bool",
          "name": "cilentRated",
          "type": "bool"
        }
      ],
      "stateMutability": "view",
      "type": "function"
    }
  ],
  "bytecode": "0x608060405234801561000f575f80fd5b503360035f6101000a81548173ffffffffffffffffffffffffffffffffffffffff021916908373ffffffffffffffffffffffffffffffffffffffff16021790555060016004819055506141f7806100655f395ff3fe6080604052600436106100f6575f3560e01c806388685cd911610089578063bf22c45711610058578063bf22c45714610345578063c2b7b86814610389578063eb9a4e93146103b1578063f76a6c2f146103cd576100fd565b806388685cd9146102a35780638da5cb5b146102cb578063a1c0d32f146102f5578063a5c1674e1461031d576100fd565b80634048a257116100c55780634048a257146101d257806350355d761461021457806361eed2a91461023e57806363b2f3c91461027b576100fd565b80631481cbb914610101578063180aedf3146101295780632857a4af1461016d578063365ba2dd14610195576100fd565b366100fd57005b5f80fd5b34801561010c575f80fd5b5061012760048036038101906101229190612abb565b6103f5565b005b348015610134575f80fd5b5061014f600480360381019061014a9190612af9565b61072c565b60405161016499989796959493929190612c16565b60405180910390f35b348015610178575f80fd5b50610193600480360381019061018e9190612d09565b61087a565b005b3480156101a0575f80fd5b506101bb60048036038101906101b69190612db1565b610b73565b6040516101c9929190612ddc565b60405180910390f35b3480156101dd575f80fd5b506101f860048036038101906101f39190612db1565b610c80565b60405161020b9796959493929190612e23565b60405180910390f35b34801561021f575f80fd5b50610228610df5565b6040516102359190612e9e565b60405180910390f35b348015610249575f80fd5b50610264600480360381019061025f9190612db1565b610dfb565b604051610272929190612ddc565b60405180910390f35b348015610286575f80fd5b506102a1600480360381019061029c9190612af9565b610e1b565b005b3480156102ae575f80fd5b506102c960048036038101906102c49190612af9565b6111d7565b005b3480156102d6575f80fd5b506102df61153c565b6040516102ec9190612eb7565b60405180910390f35b348015610300575f80fd5b5061031b60048036038101906103169190612af9565b611561565b005b348015610328575f80fd5b50610343600480360381019061033e9190612af9565b61185b565b005b348015610350575f80fd5b5061036b60048036038101906103669190612af9565b611acf565b60405161038099989796959493929190612c16565b60405180910390f35b348015610394575f80fd5b506103af60048036038101906103aa9190612af9565b611c92565b005b6103cb60048036038101906103c69190612ed0565b612370565b005b3480156103d8575f80fd5b506103f360048036038101906103ee9190612abb565b612682565b005b805f8111801561040757506004548111155b610446576040517f08c379a000000000000000000000000000000000000000000000000000000000815260040161043d90612f77565b60405180910390fd5b60018360ff161015801561045e575060058360ff1611155b61049d576040517f08c379a000000000000000000000000000000000000000000000000000000000815260040161049490612fdf565b60405180910390fd5b5f60015f8481526020019081526020015f2090503373ffffffffffffffffffffffffffffffffffffffff16815f015f9054906101000a900473ffffffffffffffffffffffffffffffffffffffff1673ffffffffffffffffffffffffffffffffffffffff1614610541576040517f08c379a000000000000000000000000000000000000000000000000000000000815260040161053890613047565b60405180910390fd5b806004015f9054906101000a900460ff16610591576040517f08c379a0000000000000000000000000000000000000000000000000000000008152600401610588906130af565b60405180910390fd5b5f15158160040160039054906101000a900460ff161515146105e8576040517f08c379a00000000000000000000000000000000000000000000000000000000081526004016105df90613117565b60405180910390fd5b5f805f836001015f9054906101000a900473ffffffffffffffffffffffffffffffffffffffff1673ffffffffffffffffffffffffffffffffffffffff1673ffffffffffffffffffffffffffffffffffffffff1681526020019081526020015f209050806004015f81548092919061065e90613162565b91905055508460ff16816005015f82825461067991906131a9565b9250508190555060018260040160036101000a81548160ff0219169083151502179055503373ffffffffffffffffffffffffffffffffffffffff16826001015f9054906101000a900473ffffffffffffffffffffffffffffffffffffffff1673ffffffffffffffffffffffffffffffffffffffff167fa0b84effa00aeb81bb29f7a2eaf0cdd5e084b3e44d8136acf1661062d250b4478760405161071d91906131eb565b60405180910390a35050505050565b6001602052805f5260405f205f91509050805f015f9054906101000a900473ffffffffffffffffffffffffffffffffffffffff1690806001015f9054906101000a900473ffffffffffffffffffffffffffffffffffffffff169080600201805461079590613231565b80601f01602080910402602001604051908101604052809291908181526020018280546107c190613231565b801561080c5780601f106107e35761010080835404028352916020019161080c565b820191905f5260205f20905b8154815290600101906020018083116107ef57829003601f168201915b505050505090806003015490806004015f9054906101000a900460ff16908060040160019054906101000a900460ff16908060040160029054906101000a900460ff16908060040160039054906101000a900460ff16908060040160049054906101000a900460ff16905089565b5f803373ffffffffffffffffffffffffffffffffffffffff1673ffffffffffffffffffffffffffffffffffffffff1681526020019081526020015f2060030160149054906101000a900460ff1615610907576040517f08c379a00000000000000000000000000000000000000000000000000000000081526004016108fe906132ab565b60405180910390fd5b5f8484905011801561091b57505f82829050115b61095a576040517f08c379a000000000000000000000000000000000000000000000000000000000815260040161095190613313565b60405180910390fd5b6040518060e0016040528085858080601f0160208091040260200160405190810160405280939291908181526020018383808284375f81840152601f19601f82011690508083019250505050505050815260200183838080601f0160208091040260200160405190810160405280939291908181526020018383808284375f81840152601f19601f8201169050808301925050505050505081526020015f81526020013373ffffffffffffffffffffffffffffffffffffffff1681526020016001151581526020015f81526020015f8152505f803373ffffffffffffffffffffffffffffffffffffffff1673ffffffffffffffffffffffffffffffffffffffff1681526020019081526020015f205f820151815f019081610a7b91906134fb565b506020820151816001019081610a9191906134fb565b50604082015181600201556060820151816003015f6101000a81548173ffffffffffffffffffffffffffffffffffffffff021916908373ffffffffffffffffffffffffffffffffffffffff16021790555060808201518160030160146101000a81548160ff02191690831515021790555060a0820151816004015560c082015181600501559050503373ffffffffffffffffffffffffffffffffffffffff167f608281547001972cd2b7f630473ea4db08acd5957d8a575e9e1c5ae59ce03a1585858585604051610b659493929190613604565b60405180910390a250505050565b5f805f808473ffffffffffffffffffffffffffffffffffffffff1673ffffffffffffffffffffffffffffffffffffffff1681526020019081526020015f2060030160149054906101000a900460ff16610c01576040517f08c379a0000000000000000000000000000000000000000000000000000000008152600401610bf890613687565b60405180910390fd5b5f805f8573ffffffffffffffffffffffffffffffffffffffff1673ffffffffffffffffffffffffffffffffffffffff1681526020019081526020015f2090505f81600401541115610c6f57806002015481600401548260050154610c6591906136d2565b9250925050610c7b565b80600201545f92509250505b915091565b5f602052805f5260405f205f91509050805f018054610c9e90613231565b80601f0160208091040260200160405190810160405280929190818152602001828054610cca90613231565b8015610d155780601f10610cec57610100808354040283529160200191610d15565b820191905f5260205f20905b815481529060010190602001808311610cf857829003601f168201915b505050505090806001018054610d2a90613231565b80601f0160208091040260200160405190810160405280929190818152602001828054610d5690613231565b8015610da15780601f10610d7857610100808354040283529160200191610da1565b820191905f5260205f20905b815481529060010190602001808311610d8457829003601f168201915b505050505090806002015490806003015f9054906101000a900473ffffffffffffffffffffffffffffffffffffffff16908060030160149054906101000a900460ff16908060040154908060050154905087565b60045481565b6002602052805f5260405f205f91509050805f0154908060010154905082565b5f803373ffffffffffffffffffffffffffffffffffffffff1673ffffffffffffffffffffffffffffffffffffffff1681526020019081526020015f2060030160149054906101000a900460ff16610ea7576040517f08c379a0000000000000000000000000000000000000000000000000000000008152600401610e9e9061374c565b60405180910390fd5b805f81118015610eb957506004548111155b610ef8576040517f08c379a0000000000000000000000000000000000000000000000000000000008152600401610eef90612f77565b60405180910390fd5b8160015f8281526020019081526020015f2060040160029054906101000a900460ff1615610f5b576040517f08c379a0000000000000000000000000000000000000000000000000000000008152600401610f52906137b4565b60405180910390fd5b5f60015f8581526020019081526020015f2090505f73ffffffffffffffffffffffffffffffffffffffff16816001015f9054906101000a900473ffffffffffffffffffffffffffffffffffffffff1673ffffffffffffffffffffffffffffffffffffffff1614611000576040517f08c379a0000000000000000000000000000000000000000000000000000000008152600401610ff79061381c565b60405180910390fd5b806004015f9054906101000a900460ff1615611051576040517f08c379a000000000000000000000000000000000000000000000000000000000815260040161104890613884565b60405180910390fd5b5f600190505b600454811015611140573373ffffffffffffffffffffffffffffffffffffffff1660015f8381526020019081526020015f206001015f9054906101000a900473ffffffffffffffffffffffffffffffffffffffff1673ffffffffffffffffffffffffffffffffffffffff161480156110ed575060015f8281526020019081526020015f206004015f9054906101000a900460ff16155b1561112d576040517f08c379a000000000000000000000000000000000000000000000000000000000815260040161112490613912565b60405180910390fd5b808061113890613162565b915050611057565b5033816001015f6101000a81548173ffffffffffffffffffffffffffffffffffffffff021916908373ffffffffffffffffffffffffffffffffffffffff1602179055503373ffffffffffffffffffffffffffffffffffffffff167f4426e4a90a9570c8f678a263b11785eaaade8b79d76d18c43d4d8e00062e4f83856040516111c99190612e9e565b60405180910390a250505050565b805f811180156111e957506004548111155b611228576040517f08c379a000000000000000000000000000000000000000000000000000000000815260040161121f90612f77565b60405180910390fd5b8160015f8281526020019081526020015f2060040160029054906101000a900460ff161561128b576040517f08c379a0000000000000000000000000000000000000000000000000000000008152600401611282906137b4565b60405180910390fd5b5f60015f8581526020019081526020015f2090503373ffffffffffffffffffffffffffffffffffffffff16815f015f9054906101000a900473ffffffffffffffffffffffffffffffffffffffff1673ffffffffffffffffffffffffffffffffffffffff161461132f576040517f08c379a0000000000000000000000000000000000000000000000000000000008152600401611326906139a0565b60405180910390fd5b806004015f9054906101000a900460ff1661137f576040517f08c379a000000000000000000000000000000000000000000000000000000000815260040161137690613a08565b60405180910390fd5b8060040160019054906101000a900460ff16156113d1576040517f08c379a00000000000000000000000000000000000000000000000000000000081526004016113c890613a70565b60405180910390fd5b60018160040160016101000a81548160ff0219169083151502179055505f816003015490505f826001015f9054906101000a900473ffffffffffffffffffffffffffffffffffffffff1673ffffffffffffffffffffffffffffffffffffffff168260405161143e90613abb565b5f6040518083038185875af1925050503d805f8114611478576040519150601f19603f3d011682016040523d82523d5f602084013e61147d565b606091505b50509050806114c1576040517f08c379a00000000000000000000000000000000000000000000000000000000081526004016114b890613b19565b60405180910390fd5b826001015f9054906101000a900473ffffffffffffffffffffffffffffffffffffffff1673ffffffffffffffffffffffffffffffffffffffff167f21d71db5be59bb9fa133895586b7404307dd33fb93b16db09dc6f1d9d7d231b0878460405161152c929190612ddc565b60405180910390a2505050505050565b60035f9054906101000a900473ffffffffffffffffffffffffffffffffffffffff1681565b5f803373ffffffffffffffffffffffffffffffffffffffff1673ffffffffffffffffffffffffffffffffffffffff1681526020019081526020015f2060030160149054906101000a900460ff166115ed576040517f08c379a00000000000000000000000000000000000000000000000000000000081526004016115e49061374c565b60405180910390fd5b805f811180156115ff57506004548111155b61163e576040517f08c379a000000000000000000000000000000000000000000000000000000000815260040161163590612f77565b60405180910390fd5b8160015f8281526020019081526020015f2060040160029054906101000a900460ff16156116a1576040517f08c379a0000000000000000000000000000000000000000000000000000000008152600401611698906137b4565b60405180910390fd5b5f60015f8581526020019081526020015f2090503373ffffffffffffffffffffffffffffffffffffffff16816001015f9054906101000a900473ffffffffffffffffffffffffffffffffffffffff1673ffffffffffffffffffffffffffffffffffffffff1614611746576040517f08c379a000000000000000000000000000000000000000000000000000000000815260040161173d90613b81565b60405180910390fd5b806004015f9054906101000a900460ff1615611797576040517f08c379a000000000000000000000000000000000000000000000000000000000815260040161178e90613884565b60405180910390fd5b6001816004015f6101000a81548160ff0219169083151502179055505f803373ffffffffffffffffffffffffffffffffffffffff1673ffffffffffffffffffffffffffffffffffffffff1681526020019081526020015f206002015f81548092919061180290613162565b91905055503373ffffffffffffffffffffffffffffffffffffffff167f16a7286196330eaff0c7db2ec34ead9c6d2d023b356b62ee7ea644c842a84b678560405161184d9190612e9e565b60405180910390a250505050565b805f8111801561186d57506004548111155b6118ac576040517f08c379a00000000000000000000000000000000000000000000000000000000081526004016118a390612f77565b60405180910390fd5b8160015f8281526020019081526020015f2060040160029054906101000a900460ff161561190f576040517f08c379a0000000000000000000000000000000000000000000000000000000008152600401611906906137b4565b60405180910390fd5b5f60015f8581526020019081526020015f209050806001015f9054906101000a900473ffffffffffffffffffffffffffffffffffffffff1673ffffffffffffffffffffffffffffffffffffffff163373ffffffffffffffffffffffffffffffffffffffff1614806119cd5750805f015f9054906101000a900473ffffffffffffffffffffffffffffffffffffffff1673ffffffffffffffffffffffffffffffffffffffff163373ffffffffffffffffffffffffffffffffffffffff16145b611a0c576040517f08c379a0000000000000000000000000000000000000000000000000000000008152600401611a0390613be9565b60405180910390fd5b8060040160019054906101000a900460ff1615611a5e576040517f08c379a0000000000000000000000000000000000000000000000000000000008152600401611a5590613c77565b60405180910390fd5b60018160040160026101000a81548160ff0219169083151502179055503373ffffffffffffffffffffffffffffffffffffffff167f84a477df8a28a4276ca6dee4458a06c3015f30c477d9c949ede4e13ff8a552b485604051611ac19190612e9e565b60405180910390a250505050565b5f8060605f805f805f80895f81118015611aeb57506004548111155b611b2a576040517f08c379a0000000000000000000000000000000000000000000000000000000008152600401611b2190612f77565b60405180910390fd5b5f60015f8d81526020019081526020015f209050805f015f9054906101000a900473ffffffffffffffffffffffffffffffffffffffff16816001015f9054906101000a900473ffffffffffffffffffffffffffffffffffffffff16826002018360030154846004015f9054906101000a900460ff168560040160019054906101000a900460ff168660040160029054906101000a900460ff168760040160039054906101000a900460ff168860040160049054906101000a900460ff16868054611bf390613231565b80601f0160208091040260200160405190810160405280929190818152602001828054611c1f90613231565b8015611c6a5780601f10611c4157610100808354040283529160200191611c6a565b820191905f5260205f20905b815481529060010190602001808311611c4d57829003601f168201915b505050505096509a509a509a509a509a509a509a509a509a5050509193959799909294969850565b60035f9054906101000a900473ffffffffffffffffffffffffffffffffffffffff1673ffffffffffffffffffffffffffffffffffffffff163373ffffffffffffffffffffffffffffffffffffffff1614611d21576040517f08c379a0000000000000000000000000000000000000000000000000000000008152600401611d1890613d05565b60405180910390fd5b805f81118015611d3357506004548111155b611d72576040517f08c379a0000000000000000000000000000000000000000000000000000000008152600401611d6990612f77565b60405180910390fd5b5f60015f8481526020019081526020015f2090508060040160029054906101000a900460ff16611dd7576040517f08c379a0000000000000000000000000000000000000000000000000000000008152600401611dce90613d6d565b60405180910390fd5b8060040160019054906101000a900460ff1615611e29576040517f08c379a0000000000000000000000000000000000000000000000000000000008152600401611e2090613a70565b60405180910390fd5b60018160040160016101000a81548160ff0219169083151502179055505f60025f835f015f9054906101000a900473ffffffffffffffffffffffffffffffffffffffff1673ffffffffffffffffffffffffffffffffffffffff1673ffffffffffffffffffffffffffffffffffffffff1681526020019081526020015f2090505f805f846001015f9054906101000a900473ffffffffffffffffffffffffffffffffffffffff1673ffffffffffffffffffffffffffffffffffffffff1673ffffffffffffffffffffffffffffffffffffffff1681526020019081526020015f2090505f80835f015411611f1c576003611f30565b825f01548360010154611f2f91906136d2565b5b90505f80836004015411611f45576003611f5a565b82600401548360050154611f5991906136d2565b5b905081810361214b575f60028660030154611f7591906136d2565b90505f865f015f9054906101000a900473ffffffffffffffffffffffffffffffffffffffff1673ffffffffffffffffffffffffffffffffffffffff1682604051611fbe90613abb565b5f6040518083038185875af1925050503d805f8114611ff8576040519150601f19603f3d011682016040523d82523d5f602084013e611ffd565b606091505b5050905080612041576040517f08c379a000000000000000000000000000000000000000000000000000000000815260040161203890613dd5565b60405180910390fd5b5f876001015f9054906101000a900473ffffffffffffffffffffffffffffffffffffffff1673ffffffffffffffffffffffffffffffffffffffff168360405161208990613abb565b5f6040518083038185875af1925050503d805f81146120c3576040519150601f19603f3d011682016040523d82523d5f602084013e6120c8565b606091505b505090508061210c576040517f08c379a000000000000000000000000000000000000000000000000000000000815260040161210390613e3d565b60405180910390fd5b7f831764ac02a33c193cba23a0de34c986e9b50402bf3c9febf6ff2f63d4c0435d8a60405161213b9190613ecb565b60405180910390a1505050612367565b8181111561225f575f856001015f9054906101000a900473ffffffffffffffffffffffffffffffffffffffff1673ffffffffffffffffffffffffffffffffffffffff16866003015460405161219f90613abb565b5f6040518083038185875af1925050503d805f81146121d9576040519150601f19603f3d011682016040523d82523d5f602084013e6121de565b606091505b5050905080612222576040517f08c379a000000000000000000000000000000000000000000000000000000000815260040161221990613e3d565b60405180910390fd5b7f831764ac02a33c193cba23a0de34c986e9b50402bf3c9febf6ff2f63d4c0435d886040516122519190613f41565b60405180910390a150612366565b5f855f015f9054906101000a900473ffffffffffffffffffffffffffffffffffffffff1673ffffffffffffffffffffffffffffffffffffffff1686600301546040516122aa90613abb565b5f6040518083038185875af1925050503d805f81146122e4576040519150601f19603f3d011682016040523d82523d5f602084013e6122e9565b606091505b505090508061232d576040517f08c379a000000000000000000000000000000000000000000000000000000000815260040161232490613dd5565b60405180910390fd5b7f831764ac02a33c193cba23a0de34c986e9b50402bf3c9febf6ff2f63d4c0435d8860405161235c9190613fb7565b60405180910390a1505b5b50505050505050565b5f83839050116123b5576040517f08c379a00000000000000000000000000000000000000000000000000000000081526004016123ac9061402d565b60405180910390fd5b8034146123f7576040517f08c379a00000000000000000000000000000000000000000000000000000000081526004016123ee90614095565b60405180910390fd5b6040518061012001604052803373ffffffffffffffffffffffffffffffffffffffff1681526020015f73ffffffffffffffffffffffffffffffffffffffff16815260200184848080601f0160208091040260200160405190810160405280939291908181526020018383808284375f81840152601f19601f8201169050808301925050505050505081526020018281526020015f151581526020015f151581526020015f151581526020015f151581526020015f151581525060015f60045481526020019081526020015f205f820151815f015f6101000a81548173ffffffffffffffffffffffffffffffffffffffff021916908373ffffffffffffffffffffffffffffffffffffffff1602179055506020820151816001015f6101000a81548173ffffffffffffffffffffffffffffffffffffffff021916908373ffffffffffffffffffffffffffffffffffffffff160217905550604082015181600201908161256291906134fb565b50606082015181600301556080820151816004015f6101000a81548160ff02191690831515021790555060a08201518160040160016101000a81548160ff02191690831515021790555060c08201518160040160026101000a81548160ff02191690831515021790555060e08201518160040160036101000a81548160ff0219169083151502179055506101008201518160040160046101000a81548160ff0219169083151502179055509050503373ffffffffffffffffffffffffffffffffffffffff167fd347156c0e050f531434f3eac5fc2137040ab077ca656f465275ebe566aaf11560045485858560405161265e94939291906140b3565b60405180910390a260045f81548092919061267890613162565b9190505550505050565b5f803373ffffffffffffffffffffffffffffffffffffffff1673ffffffffffffffffffffffffffffffffffffffff1681526020019081526020015f2060030160149054906101000a900460ff1661270e576040517f08c379a00000000000000000000000000000000000000000000000000000000081526004016127059061374c565b60405180910390fd5b805f8111801561272057506004548111155b61275f576040517f08c379a000000000000000000000000000000000000000000000000000000000815260040161275690612f77565b60405180910390fd5b60018360ff1610158015612777575060058360ff1611155b6127b6576040517f08c379a00000000000000000000000000000000000000000000000000000000081526004016127ad90612fdf565b60405180910390fd5b5f60015f8481526020019081526020015f2090503373ffffffffffffffffffffffffffffffffffffffff16816001015f9054906101000a900473ffffffffffffffffffffffffffffffffffffffff1673ffffffffffffffffffffffffffffffffffffffff161461285b576040517f08c379a00000000000000000000000000000000000000000000000000000000081526004016128529061413b565b60405180910390fd5b806004015f9054906101000a900460ff166128ab576040517f08c379a00000000000000000000000000000000000000000000000000000000081526004016128a2906130af565b60405180910390fd5b5f60025f835f015f9054906101000a900473ffffffffffffffffffffffffffffffffffffffff1673ffffffffffffffffffffffffffffffffffffffff1673ffffffffffffffffffffffffffffffffffffffff1681526020019081526020015f2090505f15158260040160049054906101000a900460ff16151514612964576040517f08c379a000000000000000000000000000000000000000000000000000000000815260040161295b906141a3565b60405180910390fd5b805f015f81548092919061297790613162565b91905055508460ff16816001015f82825461299291906131a9565b92505081905550815f015f9054906101000a900473ffffffffffffffffffffffffffffffffffffffff1673ffffffffffffffffffffffffffffffffffffffff16826001015f9054906101000a900473ffffffffffffffffffffffffffffffffffffffff1673ffffffffffffffffffffffffffffffffffffffff167fa0b84effa00aeb81bb29f7a2eaf0cdd5e084b3e44d8136acf1661062d250b44787604051612a3b91906131eb565b60405180910390a35050505050565b5f80fd5b5f80fd5b5f60ff82169050919050565b612a6781612a52565b8114612a71575f80fd5b50565b5f81359050612a8281612a5e565b92915050565b5f819050919050565b612a9a81612a88565b8114612aa4575f80fd5b50565b5f81359050612ab581612a91565b92915050565b5f8060408385031215612ad157612ad0612a4a565b5b5f612ade85828601612a74565b9250506020612aef85828601612aa7565b9150509250929050565b5f60208284031215612b0e57612b0d612a4a565b5b5f612b1b84828501612aa7565b91505092915050565b5f73ffffffffffffffffffffffffffffffffffffffff82169050919050565b5f612b4d82612b24565b9050919050565b612b5d81612b43565b82525050565b5f81519050919050565b5f82825260208201905092915050565b5f5b83811015612b9a578082015181840152602081019050612b7f565b5f8484015250505050565b5f601f19601f8301169050919050565b5f612bbf82612b63565b612bc98185612b6d565b9350612bd9818560208601612b7d565b612be281612ba5565b840191505092915050565b612bf681612a88565b82525050565b5f8115159050919050565b612c1081612bfc565b82525050565b5f61012082019050612c2a5f83018c612b54565b612c37602083018b612b54565b8181036040830152612c49818a612bb5565b9050612c586060830189612bed565b612c656080830188612c07565b612c7260a0830187612c07565b612c7f60c0830186612c07565b612c8c60e0830185612c07565b612c9a610100830184612c07565b9a9950505050505050505050565b5f80fd5b5f80fd5b5f80fd5b5f8083601f840112612cc957612cc8612ca8565b5b8235905067ffffffffffffffff811115612ce657612ce5612cac565b5b602083019150836001820283011115612d0257612d01612cb0565b5b9250929050565b5f805f8060408587031215612d2157612d20612a4a565b5b5f85013567ffffffffffffffff811115612d3e57612d3d612a4e565b5b612d4a87828801612cb4565b9450945050602085013567ffffffffffffffff811115612d6d57612d6c612a4e565b5b612d7987828801612cb4565b925092505092959194509250565b612d9081612b43565b8114612d9a575f80fd5b50565b5f81359050612dab81612d87565b92915050565b5f60208284031215612dc657612dc5612a4a565b5b5f612dd384828501612d9d565b91505092915050565b5f604082019050612def5f830185612bed565b612dfc6020830184612bed565b9392505050565b5f612e0d82612b24565b9050919050565b612e1d81612e03565b82525050565b5f60e0820190508181035f830152612e3b818a612bb5565b90508181036020830152612e4f8189612bb5565b9050612e5e6040830188612bed565b612e6b6060830187612e14565b612e786080830186612c07565b612e8560a0830185612bed565b612e9260c0830184612bed565b98975050505050505050565b5f602082019050612eb15f830184612bed565b92915050565b5f602082019050612eca5f830184612b54565b92915050565b5f805f60408486031215612ee757612ee6612a4a565b5b5f84013567ffffffffffffffff811115612f0457612f03612a4e565b5b612f1086828701612cb4565b93509350506020612f2386828701612aa7565b9150509250925092565b7f4a6f6220646f6573206e6f7420657869737400000000000000000000000000005f82015250565b5f612f61601283612b6d565b9150612f6c82612f2d565b602082019050919050565b5f6020820190508181035f830152612f8e81612f55565b9050919050565b7f526174696e67206d757374206265206265747765656e203120616e64203500005f82015250565b5f612fc9601e83612b6d565b9150612fd482612f95565b602082019050919050565b5f6020820190508181035f830152612ff681612fbd565b9050919050565b7f4f6e6c7920636c69656e742063616e207261746520776f726b657200000000005f82015250565b5f613031601b83612b6d565b915061303c82612ffd565b602082019050919050565b5f6020820190508181035f83015261305e81613025565b9050919050565b7f4a6f62206d75737420626520636f6d706c6574656400000000000000000000005f82015250565b5f613099601583612b6d565b91506130a482613065565b602082019050919050565b5f6020820190508181035f8301526130c68161308d565b9050919050565b7f4a6f6220576f726b657220616c72656164792072617465642e000000000000005f82015250565b5f613101601983612b6d565b915061310c826130cd565b602082019050919050565b5f6020820190508181035f83015261312e816130f5565b9050919050565b7f4e487b71000000000000000000000000000000000000000000000000000000005f52601160045260245ffd5b5f61316c82612a88565b91507fffffffffffffffffffffffffffffffffffffffffffffffffffffffffffffffff820361319e5761319d613135565b5b600182019050919050565b5f6131b382612a88565b91506131be83612a88565b92508282019050808211156131d6576131d5613135565b5b92915050565b6131e581612a52565b82525050565b5f6020820190506131fe5f8301846131dc565b92915050565b7f4e487b71000000000000000000000000000000000000000000000000000000005f52602260045260245ffd5b5f600282049050600182168061324857607f821691505b60208210810361325b5761325a613204565b5b50919050565b7f576f726b657220616c72656164792072656769737465726564000000000000005f82015250565b5f613295601983612b6d565b91506132a082613261565b602082019050919050565b5f6020820190508181035f8301526132c281613289565b9050919050565b7f496e76616c6964206e616d65206f7220736b696c6c00000000000000000000005f82015250565b5f6132fd601583612b6d565b9150613308826132c9565b602082019050919050565b5f6020820190508181035f83015261332a816132f1565b9050919050565b7f4e487b71000000000000000000000000000000000000000000000000000000005f52604160045260245ffd5b5f819050815f5260205f209050919050565b5f6020601f8301049050919050565b5f82821b905092915050565b5f600883026133ba7fffffffffffffffffffffffffffffffffffffffffffffffffffffffffffffffff8261337f565b6133c4868361337f565b95508019841693508086168417925050509392505050565b5f819050919050565b5f6133ff6133fa6133f584612a88565b6133dc565b612a88565b9050919050565b5f819050919050565b613418836133e5565b61342c61342482613406565b84845461338b565b825550505050565b5f90565b613440613434565b61344b81848461340f565b505050565b5b8181101561346e576134635f82613438565b600181019050613451565b5050565b601f8211156134b3576134848161335e565b61348d84613370565b8101602085101561349c578190505b6134b06134a885613370565b830182613450565b50505b505050565b5f82821c905092915050565b5f6134d35f19846008026134b8565b1980831691505092915050565b5f6134eb83836134c4565b9150826002028217905092915050565b61350482612b63565b67ffffffffffffffff81111561351d5761351c613331565b5b6135278254613231565b613532828285613472565b5f60209050601f831160018114613563575f8415613551578287015190505b61355b85826134e0565b8655506135c2565b601f1984166135718661335e565b5f5b8281101561359857848901518255600182019150602085019450602081019050613573565b868310156135b557848901516135b1601f8916826134c4565b8355505b6001600288020188555050505b505050505050565b828183375f83830152505050565b5f6135e38385612b6d565b93506135f08385846135ca565b6135f983612ba5565b840190509392505050565b5f6040820190508181035f83015261361d8186886135d8565b905081810360208301526136328184866135d8565b905095945050505050565b7f576f726b6572206e6f74207265676973746572656400000000000000000000005f82015250565b5f613671601583612b6d565b915061367c8261363d565b602082019050919050565b5f6020820190508181035f83015261369e81613665565b9050919050565b7f4e487b71000000000000000000000000000000000000000000000000000000005f52601260045260245ffd5b5f6136dc82612a88565b91506136e783612a88565b9250826136f7576136f66136a5565b5b828204905092915050565b7f4e6f742061207265676973746572656420776f726b65720000000000000000005f82015250565b5f613736601783612b6d565b915061374182613702565b602082019050919050565b5f6020820190508181035f8301526137638161372a565b9050919050565b7f4469737075746520616c726561647920726169736564000000000000000000005f82015250565b5f61379e601683612b6d565b91506137a98261376a565b602082019050919050565b5f6020820190508181035f8301526137cb81613792565b9050919050565b7f4a6f6220616c72656164792074616b656e0000000000000000000000000000005f82015250565b5f613806601183612b6d565b9150613811826137d2565b602082019050919050565b5f6020820190508181035f830152613833816137fa565b9050919050565b7f4a6f6220616c726561647920636f6d706c6574656400000000000000000000005f82015250565b5f61386e601583612b6d565b91506138798261383a565b602082019050919050565b5f6020820190508181035f83015261389b81613862565b9050919050565b7f596f75206d75737420636f6d706c65746520796f75722063757272656e74206a5f8201527f6f62206265666f726520616363657074696e672061206e6577206f6e65000000602082015250565b5f6138fc603d83612b6d565b9150613907826138a2565b604082019050919050565b5f6020820190508181035f830152613929816138f0565b9050919050565b7f4f6e6c79206a6f6220636c69656e742063616e2072656c65617365207061796d5f8201527f656e740000000000000000000000000000000000000000000000000000000000602082015250565b5f61398a602383612b6d565b915061399582613930565b604082019050919050565b5f6020820190508181035f8301526139b78161397e565b9050919050565b7f4a6f62206e6f7420636f6d706c657465642079657400000000000000000000005f82015250565b5f6139f2601583612b6d565b91506139fd826139be565b602082019050919050565b5f6020820190508181035f830152613a1f816139e6565b9050919050565b7f5061796d656e7420616c72656164792072656c656173656400000000000000005f82015250565b5f613a5a601883612b6d565b9150613a6582613a26565b602082019050919050565b5f6020820190508181035f830152613a8781613a4e565b9050919050565b5f81905092915050565b50565b5f613aa65f83613a8e565b9150613ab182613a98565b5f82019050919050565b5f613ac582613a9b565b9150819050919050565b7f5061796d656e74207472616e73666572206661696c65640000000000000000005f82015250565b5f613b03601783612b6d565b9150613b0e82613acf565b602082019050919050565b5f6020820190508181035f830152613b3081613af7565b9050919050565b7f596f7520617265206e6f742061737369676e656420746f2074686973206a6f625f82015250565b5f613b6b602083612b6d565b9150613b7682613b37565b602082019050919050565b5f6020820190508181035f830152613b9881613b5f565b9050919050565b7f556e617574686f72697a656400000000000000000000000000000000000000005f82015250565b5f613bd3600c83612b6d565b9150613bde82613b9f565b602082019050919050565b5f6020820190508181035f830152613c0081613bc7565b9050919050565b7f5061796d656e7420616c72656164792072656c65617365642c206469737075745f8201527f652063616e277420626520726169736564000000000000000000000000000000602082015250565b5f613c61603183612b6d565b9150613c6c82613c07565b604082019050919050565b5f6020820190508181035f830152613c8e81613c55565b9050919050565b7f4f6e6c7920636f6e7472616374206f776e65722063616e2063616c6c207468695f8201527f7300000000000000000000000000000000000000000000000000000000000000602082015250565b5f613cef602183612b6d565b9150613cfa82613c95565b604082019050919050565b5f6020820190508181035f830152613d1c81613ce3565b9050919050565b7f4e6f20646973707574652072616973656420666f722074686973206a6f6200005f82015250565b5f613d57601e83612b6d565b9150613d6282613d23565b602082019050919050565b5f6020820190508181035f830152613d8481613d4b565b9050919050565b7f436c69656e7420726566756e64207472616e73666572206661696c65640000005f82015250565b5f613dbf601d83612b6d565b9150613dca82613d8b565b602082019050919050565b5f6020820190508181035f830152613dec81613db3565b9050919050565b7f576f726b6572207061796d656e74207472616e73666572206661696c656400005f82015250565b5f613e27601e83612b6d565b9150613e3282613df3565b602082019050919050565b5f6020820190508181035f830152613e5481613e1b565b9050919050565b7f5469652c2066756e64732073706c69742035302f3530206265747765656e20775f8201527f6f726b657220616e6420636c69656e7400000000000000000000000000000000602082015250565b5f613eb5603083612b6d565b9150613ec082613e5b565b604082019050919050565b5f604082019050613ede5f830184612bed565b8181036020830152613eef81613ea9565b905092915050565b7f576f726b65722077696e732c207061796d656e742072656c65617365640000005f82015250565b5f613f2b601d83612b6d565b9150613f3682613ef7565b602082019050919050565b5f604082019050613f545f830184612bed565b8181036020830152613f6581613f1f565b905092915050565b7f436c69656e742077696e732c2066756e64732072657475726e656400000000005f82015250565b5f613fa1601b83612b6d565b9150613fac82613f6d565b602082019050919050565b5f604082019050613fca5f830184612bed565b8181036020830152613fdb81613f95565b905092915050565b7f4a6f62206465736372697074696f6e2063616e6e6f7420626520656d707479005f82015250565b5f614017601f83612b6d565b915061402282613fe3565b602082019050919050565b5f6020820190508181035f8301526140448161400b565b9050919050565b7f496e636f7272656374207061796d656e7420616d6f756e7400000000000000005f82015250565b5f61407f601883612b6d565b915061408a8261404b565b602082019050919050565b5f6020820190508181035f8301526140ac81614073565b9050919050565b5f6060820190506140c65f830187612bed565b81810360208301526140d98185876135d8565b90506140e86040830184612bed565b95945050505050565b7f4f6e6c7920776f726b65722063616e207261746520636c69656e7400000000005f82015250565b5f614125601b83612b6d565b9150614130826140f1565b602082019050919050565b5f6020820190508181035f83015261415281614119565b9050919050565b7f4a6f6220436c69656e7420616c72656164792072617465642e000000000000005f82015250565b5f61418d601983612b6d565b915061419882614159565b602082019050919050565b5f6020820190508181035f8301526141ba81614181565b905091905056fea26469706673582212205b485a252f1859cc4e3cd6d47089a2db93b81187da04b71f3757b5db5edb79ba64736f6c63430008150033",
  "immutableReferences": {},
  "source": "// SPDX-License-Identifier: MIT\r\npragma solidity ^0.8.20;\r\n\r\ncontract GigEconomy {\r\n    struct Worker {\r\n        string name;\r\n        string skill;\r\n        uint completedTasks;\r\n        address payable wallet;\r\n        bool isRegistered;\r\n        uint totalRatings;\r\n        uint sumRatings;\r\n    }\r\n\r\n    struct Job {\r\n        address client;\r\n        address worker;\r\n        string description;\r\n        uint payment;\r\n        bool isCompleted;\r\n        bool isPaid;\r\n        bool disputeRaised;\r\n        bool workerRated;\r\n        bool cilentRated;\r\n    }\r\n\r\n    struct Client {\r\n        uint totalRatings;\r\n        uint sumRatings;\r\n    }\r\n\r\n    mapping(address => Worker) public workers;\r\n    mapping(uint => Job) public jobs;\r\n    mapping(address => Client) public clients;\r\n\r\n    address public owner;\r\n    uint public jobCounter;\r\n\r\n    event WorkerRegistered(address indexed worker, string name, string skill);\r\n    event JobPosted(\r\n        uint jobId,\r\n        address indexed client,\r\n        string description,\r\n        uint payment\r\n    );\r\n    event JobAccepted(uint jobId, address indexed worker);\r\n    event JobCompleted(uint jobId, address indexed worker);\r\n    event PaymentReleased(uint jobId, address indexed worker, uint amount);\r\n    event DisputeRaised(uint jobId, address indexed user);\r\n    event DisputeResolved(uint jobId, string decision);\r\n    event RatingGiven(\r\n        address indexed worker,\r\n        address indexed rater,\r\n        uint8 rating\r\n    );\r\n\r\n    modifier onlyOwner() {\r\n        require(msg.sender == owner, \"Only contract owner can call this\");\r\n        _;\r\n    }\r\n\r\n    modifier onlyRegistered() {\r\n        require(workers[msg.sender].isRegistered, \"Not a registered worker\");\r\n        _;\r\n    }\r\n\r\n    modifier jobExists(uint _jobId) {\r\n        require(_jobId > 0 && _jobId <= jobCounter, \"Job does not exist\");\r\n        _;\r\n    }\r\n\r\n    modifier jobNotDisputed(uint _jobId) {\r\n        require(!jobs[_jobId].disputeRaised, \"Dispute already raised\");\r\n        _;\r\n    }\r\n\r\n    constructor() {\r\n        owner = msg.sender;\r\n        jobCounter = 1;\r\n    }\r\n\r\n    function registerWorker(\r\n        string calldata _name,\r\n        string calldata _skill\r\n    ) external {\r\n        require(!workers[msg.sender].isRegistered, \"Worker already registered\");\r\n        require(\r\n            bytes(_name).length > 0 && bytes(_skill).length > 0,\r\n            \"Invalid name or skill\"\r\n        );\r\n        workers[msg.sender] = Worker({\r\n            name: _name,\r\n            skill: _skill,\r\n            completedTasks: 0,\r\n            wallet: payable(msg.sender),\r\n            isRegistered: true,\r\n            totalRatings: 0,\r\n            sumRatings: 0\r\n        });\r\n        emit WorkerRegistered(msg.sender, _name, _skill);\r\n    }\r\n\r\n    function postJob(\r\n        string calldata _description,\r\n        uint _payment\r\n    ) external payable {\r\n        require(\r\n            bytes(_description).length > 0,\r\n            \"Job description cannot be empty\"\r\n        );\r\n        require(msg.value == _payment, \"Incorrect payment amount\");\r\n\r\n        jobs[jobCounter] = Job({\r\n            client: msg.sender,\r\n            worker: address(0),\r\n            description: _description,\r\n            payment: _payment,\r\n            isCompleted: false,\r\n            isPaid: false,\r\n            disputeRaised: false,\r\n            workerRated: false,\r\n            cilentRated: false\r\n        });\r\n        emit JobPosted(jobCounter, msg.sender, _description, _payment);\r\n        jobCounter++;\r\n    }\r\n\r\n    function acceptJob(\r\n        uint _jobId\r\n    ) external onlyRegistered jobExists(_jobId) jobNotDisputed(_jobId) {\r\n        Job storage job = jobs[_jobId];\r\n        require(job.worker == address(0), \"Job already taken\");\r\n        require(!job.isCompleted, \"Job already completed\");\r\n        for (uint i = 1; i < jobCounter; i++) {\r\n            if (jobs[i].worker == msg.sender && !jobs[i].isCompleted) {\r\n                revert(\r\n                    \"You must complete your current job before accepting a new one\"\r\n                );\r\n            }\r\n        }\r\n        job.worker = msg.sender;\r\n        emit JobAccepted(_jobId, msg.sender);\r\n    }\r\n\r\n    function completeJob(\r\n        uint _jobId\r\n    ) external onlyRegistered jobExists(_jobId) jobNotDisputed(_jobId) {\r\n        Job storage job = jobs[_jobId];\r\n        require(job.worker == msg.sender, \"You are not assigned to this job\");\r\n        require(!job.isCompleted, \"Job already completed\");\r\n        job.isCompleted = true;\r\n        workers[msg.sender].completedTasks++;\r\n        emit JobCompleted(_jobId, msg.sender);\r\n    }\r\n\r\n    function releasePayment(\r\n        uint _jobId\r\n    ) external jobExists(_jobId) jobNotDisputed(_jobId) {\r\n        Job storage job = jobs[_jobId];\r\n        require(\r\n            job.client == msg.sender,\r\n            \"Only job client can release payment\"\r\n        );\r\n        require(job.isCompleted, \"Job not completed yet\");\r\n        require(!job.isPaid, \"Payment already released\");\r\n        job.isPaid = true;\r\n        uint paymentAmount = job.payment;\r\n        (bool success, ) = job.worker.call{value: paymentAmount}(\"\");\r\n        require(success, \"Payment transfer failed\");\r\n        emit PaymentReleased(_jobId, job.worker, paymentAmount);\r\n    }\r\n\r\n    function raiseDispute(\r\n        uint _jobId\r\n    ) external jobExists(_jobId) jobNotDisputed(_jobId) {\r\n        Job storage job = jobs[_jobId];\r\n        require(\r\n            msg.sender == job.worker || msg.sender == job.client,\r\n            \"Unauthorized\"\r\n        );\r\n        require(\r\n            !job.isPaid,\r\n            \"Payment already released, dispute can't be raised\"\r\n        );\r\n        job.disputeRaised = true;\r\n        emit DisputeRaised(_jobId, msg.sender);\r\n    }\r\n\r\n    function resolveDispute(uint _jobId) external onlyOwner jobExists(_jobId) {\r\n        Job storage job = jobs[_jobId];\r\n        require(job.disputeRaised, \"No dispute raised for this job\");\r\n        require(!job.isPaid, \"Payment already released\");\r\n        job.isPaid = true;\r\n        Client storage client = clients[job.client];\r\n        Worker storage worker = workers[job.worker];\r\n        uint clientAverageRating = client.totalRatings > 0\r\n            ? client.sumRatings / client.totalRatings\r\n            : 3;\r\n        uint workerAverageRating = worker.totalRatings > 0\r\n            ? worker.sumRatings / worker.totalRatings\r\n            : 3;\r\n        if (workerAverageRating == clientAverageRating) {\r\n            uint halfPayment = job.payment / 2;\r\n            (bool successClient, ) = job.client.call{value: halfPayment}(\"\");\r\n            require(successClient, \"Client refund transfer failed\");\r\n\r\n            (bool successWorker, ) = job.worker.call{value: halfPayment}(\"\");\r\n            require(successWorker, \"Worker payment transfer failed\");\r\n\r\n            emit DisputeResolved(\r\n                _jobId,\r\n                \"Tie, funds split 50/50 between worker and client\"\r\n            );\r\n        } else if (workerAverageRating > clientAverageRating) {\r\n            (bool success, ) = job.worker.call{value: job.payment}(\"\");\r\n            require(success, \"Worker payment transfer failed\");\r\n            emit DisputeResolved(_jobId, \"Worker wins, payment released\");\r\n        } else {\r\n            (bool success, ) = job.client.call{value: job.payment}(\"\");\r\n            require(success, \"Client refund transfer failed\");\r\n            emit DisputeResolved(_jobId, \"Client wins, funds returned\");\r\n        }\r\n    }\r\n\r\n    function rateClient(\r\n        uint8 _rating,\r\n        uint _jobId\r\n    ) external onlyRegistered jobExists(_jobId) {\r\n        require(_rating >= 1 && _rating <= 5, \"Rating must be between 1 and 5\");\r\n        Job storage job = jobs[_jobId];\r\n        require(job.worker == msg.sender, \"Only worker can rate client\");\r\n        require(job.isCompleted, \"Job must be completed\");\r\n        Client storage client = clients[job.client];\r\n        require(job.cilentRated == false, \"Job Client already rated.\");\r\n        client.totalRatings++;\r\n        client.sumRatings += _rating;\r\n        emit RatingGiven(job.worker, job.client, _rating);\r\n    }\r\n\r\n    function getWorkerStats(\r\n        address _worker\r\n    ) external view returns (uint completedJobs, uint averageRating) {\r\n        require(workers[_worker].isRegistered, \"Worker not registered\");\r\n        Worker storage worker = workers[_worker];\r\n        if (worker.totalRatings > 0) {\r\n            return (\r\n                worker.completedTasks,\r\n                worker.sumRatings / worker.totalRatings\r\n            );\r\n        } else {\r\n            return (worker.completedTasks, 0);\r\n        }\r\n    }\r\n\r\n    function rateWorker(\r\n        uint8 _rating,\r\n        uint _jobId\r\n    ) external jobExists(_jobId) {\r\n        require(_rating >= 1 && _rating <= 5, \"Rating must be between 1 and 5\");\r\n        Job storage job = jobs[_jobId];\r\n        require(job.client == msg.sender, \"Only client can rate worker\");\r\n        require(job.isCompleted, \"Job must be completed\");\r\n        require(job.workerRated == false, \"Job Worker already rated.\");\r\n        Worker storage worker = workers[job.worker];\r\n        worker.totalRatings++;\r\n        worker.sumRatings += _rating;\r\n        job.workerRated = true;\r\n        emit RatingGiven(job.worker, msg.sender, _rating);\r\n    }\r\n\r\n    function getJob(\r\n        uint _jobId\r\n    )\r\n        external\r\n        view\r\n        jobExists(_jobId)\r\n        returns (\r\n            address client,\r\n            address worker,\r\n            string memory description,\r\n            uint payment,\r\n            bool isCompleted,\r\n            bool isPaid,\r\n            bool disputeRaised,\r\n            bool workerRated,\r\n            bool cilentRated\r\n        )\r\n    {\r\n        Job storage job = jobs[_jobId];\r\n        return (\r\n            job.client,\r\n            job.worker,\r\n            job.description,\r\n            job.payment,\r\n            job.isCompleted,\r\n            job.isPaid,\r\n            job.disputeRaised,\r\n            job.workerRated,\r\n            job.cilentRated\r\n        );\r\n    }\r\n\r\n    receive() external payable {}\r\n}",
  "sourcePath": "C:\\Users\\chira\\Desktop\\Blockchain\\Backend\\contracts\\GigEconomy.sol",
  "compiler": {
    "name": "solc",
    "version": "0.8.21+commit.d9974bed.Emscripten.clang"
  },
  "schemaVersion": "3.4.16",
  "updatedAt": "2025-03-19T01:22:38.353Z",
  "devdoc": {
    "kind": "dev",
    "methods": {},
    "version": 1
  },
  "userdoc": {
    "kind": "user",
    "methods": {},
    "version": 1
  }
}