{
  "contractName": "GigEconomy",
  "abi": [
    {
      "inputs": [],
      "stateMutability": "nonpayable",
      "type": "constructor"
    },
    {
      "anonymous": false,
      "inputs": [
        {
          "indexed": false,
          "internalType": "uint256",
          "name": "jobId",
          "type": "uint256"
        },
        {
          "indexed": true,
          "internalType": "address",
          "name": "user",
          "type": "address"
        }
      ],
      "name": "DisputeRaised",
      "type": "event"
    },
    {
      "anonymous": false,
      "inputs": [
        {
          "indexed": false,
          "internalType": "uint256",
          "name": "jobId",
          "type": "uint256"
        },
        {
          "indexed": false,
          "internalType": "string",
          "name": "decision",
          "type": "string"
        }
      ],
      "name": "DisputeResolved",
      "type": "event"
    },
    {
      "anonymous": false,
      "inputs": [
        {
          "indexed": false,
          "internalType": "uint256",
          "name": "jobId",
          "type": "uint256"
        },
        {
          "indexed": true,
          "internalType": "address",
          "name": "applicant",
          "type": "address"
        }
      ],
      "name": "JobApplied",
      "type": "event"
    },
    {
      "anonymous": false,
      "inputs": [
        {
          "indexed": false,
          "internalType": "uint256",
          "name": "jobId",
          "type": "uint256"
        },
        {
          "indexed": true,
          "internalType": "address",
          "name": "worker",
          "type": "address"
        }
      ],
      "name": "JobCompleted",
      "type": "event"
    },
    {
      "anonymous": false,
      "inputs": [
        {
          "indexed": false,
          "internalType": "uint256",
          "name": "jobId",
          "type": "uint256"
        },
        {
          "indexed": true,
          "internalType": "address",
          "name": "client",
          "type": "address"
        },
        {
          "indexed": false,
          "internalType": "string",
          "name": "description",
          "type": "string"
        },
        {
          "indexed": false,
          "internalType": "uint256",
          "name": "payment",
          "type": "uint256"
        }
      ],
      "name": "JobPosted",
      "type": "event"
    },
    {
      "anonymous": false,
      "inputs": [
        {
          "indexed": false,
          "internalType": "uint256",
          "name": "jobId",
          "type": "uint256"
        },
        {
          "indexed": true,
          "internalType": "address",
          "name": "worker",
          "type": "address"
        },
        {
          "indexed": false,
          "internalType": "uint256",
          "name": "amount",
          "type": "uint256"
        }
      ],
      "name": "PaymentReleased",
      "type": "event"
    },
    {
      "anonymous": false,
      "inputs": [
        {
          "indexed": true,
          "internalType": "address",
          "name": "target",
          "type": "address"
        },
        {
          "indexed": true,
          "internalType": "address",
          "name": "rater",
          "type": "address"
        },
        {
          "indexed": false,
          "internalType": "uint8",
          "name": "rating",
          "type": "uint8"
        }
      ],
      "name": "RatingGiven",
      "type": "event"
    },
    {
      "anonymous": false,
      "inputs": [
        {
          "indexed": true,
          "internalType": "address",
          "name": "worker",
          "type": "address"
        },
        {
          "indexed": false,
          "internalType": "string",
          "name": "name",
          "type": "string"
        },
        {
          "indexed": false,
          "internalType": "string",
          "name": "skill",
          "type": "string"
        }
      ],
      "name": "WorkerRegistered",
      "type": "event"
    },
    {
      "anonymous": false,
      "inputs": [
        {
          "indexed": false,
          "internalType": "uint256",
          "name": "jobId",
          "type": "uint256"
        },
        {
          "indexed": true,
          "internalType": "address",
          "name": "worker",
          "type": "address"
        }
      ],
      "name": "WorkerSelected",
      "type": "event"
    },
    {
      "inputs": [
        {
          "internalType": "address",
          "name": "",
          "type": "address"
        }
      ],
      "name": "clients",
      "outputs": [
        {
          "internalType": "uint256",
          "name": "totalRatings",
          "type": "uint256"
        },
        {
          "internalType": "uint256",
          "name": "sumRatings",
          "type": "uint256"
        }
      ],
      "stateMutability": "view",
      "type": "function"
    },
    {
      "inputs": [],
      "name": "jobCounter",
      "outputs": [
        {
          "internalType": "uint256",
          "name": "",
          "type": "uint256"
        }
      ],
      "stateMutability": "view",
      "type": "function"
    },
    {
      "inputs": [
        {
          "internalType": "uint256",
          "name": "",
          "type": "uint256"
        }
      ],
      "name": "jobs",
      "outputs": [
        {
          "internalType": "address",
          "name": "client",
          "type": "address"
        },
        {
          "internalType": "address",
          "name": "worker",
          "type": "address"
        },
        {
          "internalType": "string",
          "name": "description",
          "type": "string"
        },
        {
          "internalType": "uint256",
          "name": "payment",
          "type": "uint256"
        },
        {
          "internalType": "bool",
          "name": "isCompleted",
          "type": "bool"
        },
        {
          "internalType": "bool",
          "name": "isPaid",
          "type": "bool"
        },
        {
          "internalType": "bool",
          "name": "disputeRaised",
          "type": "bool"
        },
        {
          "internalType": "bool",
          "name": "workerRated",
          "type": "bool"
        },
        {
          "internalType": "bool",
          "name": "clientRated",
          "type": "bool"
        }
      ],
      "stateMutability": "view",
      "type": "function"
    },
    {
      "inputs": [],
      "name": "owner",
      "outputs": [
        {
          "internalType": "address",
          "name": "",
          "type": "address"
        }
      ],
      "stateMutability": "view",
      "type": "function"
    },
    {
      "inputs": [
        {
          "internalType": "address",
          "name": "",
          "type": "address"
        }
      ],
      "name": "workers",
      "outputs": [
        {
          "internalType": "string",
          "name": "name",
          "type": "string"
        },
        {
          "internalType": "string",
          "name": "skill",
          "type": "string"
        },
        {
          "internalType": "uint256",
          "name": "completedTasks",
          "type": "uint256"
        },
        {
          "internalType": "address payable",
          "name": "wallet",
          "type": "address"
        },
        {
          "internalType": "bool",
          "name": "isRegistered",
          "type": "bool"
        },
        {
          "internalType": "uint256",
          "name": "totalRatings",
          "type": "uint256"
        },
        {
          "internalType": "uint256",
          "name": "sumRatings",
          "type": "uint256"
        }
      ],
      "stateMutability": "view",
      "type": "function"
    },
    {
      "stateMutability": "payable",
      "type": "receive"
    },
    {
      "inputs": [
        {
          "internalType": "string",
          "name": "_name",
          "type": "string"
        },
        {
          "internalType": "string",
          "name": "_skill",
          "type": "string"
        }
      ],
      "name": "registerWorker",
      "outputs": [],
      "stateMutability": "nonpayable",
      "type": "function"
    },
    {
      "inputs": [
        {
          "internalType": "string",
          "name": "_description",
          "type": "string"
        },
        {
          "internalType": "uint256",
          "name": "_payment",
          "type": "uint256"
        }
      ],
      "name": "postJob",
      "outputs": [],
      "stateMutability": "payable",
      "type": "function"
    },
    {
      "inputs": [
        {
          "internalType": "uint256",
          "name": "_jobId",
          "type": "uint256"
        }
      ],
      "name": "applyForJob",
      "outputs": [],
      "stateMutability": "nonpayable",
      "type": "function"
    },
    {
      "inputs": [
        {
          "internalType": "uint256",
          "name": "_jobId",
          "type": "uint256"
        },
        {
          "internalType": "address",
          "name": "_workerAddress",
          "type": "address"
        }
      ],
      "name": "selectWorker",
      "outputs": [],
      "stateMutability": "nonpayable",
      "type": "function"
    },
    {
      "inputs": [
        {
          "internalType": "uint256",
          "name": "_jobId",
          "type": "uint256"
        }
      ],
      "name": "completeJob",
      "outputs": [],
      "stateMutability": "nonpayable",
      "type": "function"
    },
    {
      "inputs": [
        {
          "internalType": "uint256",
          "name": "_jobId",
          "type": "uint256"
        }
      ],
      "name": "releasePayment",
      "outputs": [],
      "stateMutability": "nonpayable",
      "type": "function"
    },
    {
      "inputs": [
        {
          "internalType": "uint256",
          "name": "_jobId",
          "type": "uint256"
        }
      ],
      "name": "raiseDispute",
      "outputs": [],
      "stateMutability": "nonpayable",
      "type": "function"
    },
    {
      "inputs": [
        {
          "internalType": "uint256",
          "name": "_jobId",
          "type": "uint256"
        }
      ],
      "name": "resolveDispute",
      "outputs": [],
      "stateMutability": "nonpayable",
      "type": "function"
    },
    {
      "inputs": [
        {
          "internalType": "uint8",
          "name": "_rating",
          "type": "uint8"
        },
        {
          "internalType": "uint256",
          "name": "_jobId",
          "type": "uint256"
        }
      ],
      "name": "rateClient",
      "outputs": [],
      "stateMutability": "nonpayable",
      "type": "function"
    },
    {
      "inputs": [
        {
          "internalType": "address",
          "name": "_worker",
          "type": "address"
        }
      ],
      "name": "getWorkerStats",
      "outputs": [
        {
          "internalType": "uint256",
          "name": "completedJobs",
          "type": "uint256"
        },
        {
          "internalType": "uint256",
          "name": "averageRating",
          "type": "uint256"
        }
      ],
      "stateMutability": "view",
      "type": "function"
    },
    {
      "inputs": [
        {
          "internalType": "uint8",
          "name": "_rating",
          "type": "uint8"
        },
        {
          "internalType": "uint256",
          "name": "_jobId",
          "type": "uint256"
        }
      ],
      "name": "rateWorker",
      "outputs": [],
      "stateMutability": "nonpayable",
      "type": "function"
    },
    {
      "inputs": [
        {
          "internalType": "uint256",
          "name": "_jobId",
          "type": "uint256"
        }
      ],
      "name": "getJob",
      "outputs": [
        {
          "internalType": "address",
          "name": "client",
          "type": "address"
        },
        {
          "internalType": "address",
          "name": "worker",
          "type": "address"
        },
        {
          "internalType": "string",
          "name": "description",
          "type": "string"
        },
        {
          "internalType": "uint256",
          "name": "payment",
          "type": "uint256"
        },
        {
          "internalType": "bool",
          "name": "isCompleted",
          "type": "bool"
        },
        {
          "internalType": "bool",
          "name": "isPaid",
          "type": "bool"
        },
        {
          "internalType": "bool",
          "name": "disputeRaised",
          "type": "bool"
        },
        {
          "internalType": "bool",
          "name": "workerRated",
          "type": "bool"
        },
        {
          "internalType": "bool",
          "name": "clientRated",
          "type": "bool"
        },
        {
          "internalType": "address[]",
          "name": "applicants",
          "type": "address[]"
        },
        {
          "internalType": "string",
          "name": "workerName",
          "type": "string"
        }
      ],
      "stateMutability": "view",
      "type": "function"
    }
  ],
  "bytecode": "0x608060405234801561000f575f80fd5b503360035f6101000a81548173ffffffffffffffffffffffffffffffffffffffff021916908373ffffffffffffffffffffffffffffffffffffffff160217905550600160048190555061532b806100655f395ff3fe608060405260043610610101575f3560e01c806388685cd911610094578063bf22c45711610063578063bf22c45714610350578063c2b7b86814610396578063e0c94ae5146103be578063eb9a4e93146103e6578063f76a6c2f1461040257610108565b806388685cd9146102ae5780638da5cb5b146102d6578063a1c0d32f14610300578063a5c1674e1461032857610108565b8063382b865a116100d0578063382b865a146101dd5780634048a2571461020557806350355d761461024757806361eed2a91461027157610108565b80631481cbb91461010c578063180aedf3146101345780632857a4af14610178578063365ba2dd146101a057610108565b3661010857005b5f80fd5b348015610117575f80fd5b50610132600480360381019061012d91906134b8565b61042a565b005b34801561013f575f80fd5b5061015a600480360381019061015591906134f6565b6107f1565b60405161016f99989796959493929190613613565b60405180910390f35b348015610183575f80fd5b5061019e60048036038101906101999190613706565b61093f565b005b3480156101ab575f80fd5b506101c660048036038101906101c191906137ae565b610c38565b6040516101d49291906137d9565b60405180910390f35b3480156101e8575f80fd5b5061020360048036038101906101fe9190613800565b610d45565b005b348015610210575f80fd5b5061022b600480360381019061022691906137ae565b611142565b60405161023e979695949392919061385e565b60405180910390f35b348015610252575f80fd5b5061025b6112b7565b60405161026891906138d9565b60405180910390f35b34801561027c575f80fd5b50610297600480360381019061029291906137ae565b6112bd565b6040516102a59291906137d9565b60405180910390f35b3480156102b9575f80fd5b506102d460048036038101906102cf91906134f6565b6112dd565b005b3480156102e1575f80fd5b506102ea6116d2565b6040516102f791906138f2565b60405180910390f35b34801561030b575f80fd5b50610326600480360381019061032191906134f6565b6116f7565b005b348015610333575f80fd5b5061034e600480360381019061034991906134f6565b6119f0565b005b34801561035b575f80fd5b50610376600480360381019061037191906134f6565b611cf4565b60405161038d9b9a999897969594939291906139c2565b60405180910390f35b3480156103a1575f80fd5b506103bc60048036038101906103b791906134f6565b61209b565b005b3480156103c9575f80fd5b506103e460048036038101906103df91906134f6565b612818565b005b61040060048036038101906103fb9190613a80565b612c24565b005b34801561040d575f80fd5b50610428600480360381019061042391906134b8565b612fe4565b005b805f8111801561043b575060045481105b61047a576040517f08c379a000000000000000000000000000000000000000000000000000000000815260040161047190613b27565b60405180910390fd5b60018360ff1610158015610492575060058360ff1611155b6104d1576040517f08c379a00000000000000000000000000000000000000000000000000000000081526004016104c890613b8f565b60405180910390fd5b5f60015f8481526020019081526020015f2090503373ffffffffffffffffffffffffffffffffffffffff16815f015f9054906101000a900473ffffffffffffffffffffffffffffffffffffffff1673ffffffffffffffffffffffffffffffffffffffff1614610575576040517f08c379a000000000000000000000000000000000000000000000000000000000815260040161056c90613bf7565b60405180910390fd5b806004015f9054906101000a900460ff166105c5576040517f08c379a00000000000000000000000000000000000000000000000000000000081526004016105bc90613c85565b60405180910390fd5b5f73ffffffffffffffffffffffffffffffffffffffff16816001015f9054906101000a900473ffffffffffffffffffffffffffffffffffffffff1673ffffffffffffffffffffffffffffffffffffffff1603610656576040517f08c379a000000000000000000000000000000000000000000000000000000000815260040161064d90613ced565b60405180910390fd5b5f15158160040160039054906101000a900460ff161515146106ad576040517f08c379a00000000000000000000000000000000000000000000000000000000081526004016106a490613d55565b60405180910390fd5b5f805f836001015f9054906101000a900473ffffffffffffffffffffffffffffffffffffffff1673ffffffffffffffffffffffffffffffffffffffff1673ffffffffffffffffffffffffffffffffffffffff1681526020019081526020015f209050806004015f81548092919061072390613da0565b91905055508460ff16816005015f82825461073e9190613de7565b9250508190555060018260040160036101000a81548160ff0219169083151502179055503373ffffffffffffffffffffffffffffffffffffffff16826001015f9054906101000a900473ffffffffffffffffffffffffffffffffffffffff1673ffffffffffffffffffffffffffffffffffffffff167fa0b84effa00aeb81bb29f7a2eaf0cdd5e084b3e44d8136acf1661062d250b447876040516107e29190613e29565b60405180910390a35050505050565b6001602052805f5260405f205f91509050805f015f9054906101000a900473ffffffffffffffffffffffffffffffffffffffff1690806001015f9054906101000a900473ffffffffffffffffffffffffffffffffffffffff169080600201805461085a90613e6f565b80601f016020809104026020016040519081016040528092919081815260200182805461088690613e6f565b80156108d15780601f106108a8576101008083540402835291602001916108d1565b820191905f5260205f20905b8154815290600101906020018083116108b457829003601f168201915b505050505090806003015490806004015f9054906101000a900460ff16908060040160019054906101000a900460ff16908060040160029054906101000a900460ff16908060040160039054906101000a900460ff16908060040160049054906101000a900460ff16905089565b5f803373ffffffffffffffffffffffffffffffffffffffff1673ffffffffffffffffffffffffffffffffffffffff1681526020019081526020015f2060030160149054906101000a900460ff16156109cc576040517f08c379a00000000000000000000000000000000000000000000000000000000081526004016109c390613ee9565b60405180910390fd5b5f848490501180156109e057505f82829050115b610a1f576040517f08c379a0000000000000000000000000000000000000000000000000000000008152600401610a1690613f51565b60405180910390fd5b6040518060e0016040528085858080601f0160208091040260200160405190810160405280939291908181526020018383808284375f81840152601f19601f82011690508083019250505050505050815260200183838080601f0160208091040260200160405190810160405280939291908181526020018383808284375f81840152601f19601f8201169050808301925050505050505081526020015f81526020013373ffffffffffffffffffffffffffffffffffffffff1681526020016001151581526020015f81526020015f8152505f803373ffffffffffffffffffffffffffffffffffffffff1673ffffffffffffffffffffffffffffffffffffffff1681526020019081526020015f205f820151815f019081610b409190614139565b506020820151816001019081610b569190614139565b50604082015181600201556060820151816003015f6101000a81548173ffffffffffffffffffffffffffffffffffffffff021916908373ffffffffffffffffffffffffffffffffffffffff16021790555060808201518160030160146101000a81548160ff02191690831515021790555060a0820151816004015560c082015181600501559050503373ffffffffffffffffffffffffffffffffffffffff167f608281547001972cd2b7f630473ea4db08acd5957d8a575e9e1c5ae59ce03a1585858585604051610c2a9493929190614242565b60405180910390a250505050565b5f805f808473ffffffffffffffffffffffffffffffffffffffff1673ffffffffffffffffffffffffffffffffffffffff1681526020019081526020015f2060030160149054906101000a900460ff16610cc6576040517f08c379a0000000000000000000000000000000000000000000000000000000008152600401610cbd906142c5565b60405180910390fd5b5f805f8573ffffffffffffffffffffffffffffffffffffffff1673ffffffffffffffffffffffffffffffffffffffff1681526020019081526020015f2090505f81600401541115610d3457806002015481600401548260050154610d2a9190614310565b9250925050610d40565b80600201545f92509250505b915091565b815f81118015610d56575060045481105b610d95576040517f08c379a0000000000000000000000000000000000000000000000000000000008152600401610d8c90613b27565b60405180910390fd5b8260015f8281526020019081526020015f2060040160029054906101000a900460ff1615610df8576040517f08c379a0000000000000000000000000000000000000000000000000000000008152600401610def9061438a565b60405180910390fd5b835f73ffffffffffffffffffffffffffffffffffffffff1660015f8381526020019081526020015f206001015f9054906101000a900473ffffffffffffffffffffffffffffffffffffffff1673ffffffffffffffffffffffffffffffffffffffff1614610e9a576040517f08c379a0000000000000000000000000000000000000000000000000000000008152600401610e9190614418565b60405180910390fd5b5f60015f8781526020019081526020015f2090503373ffffffffffffffffffffffffffffffffffffffff16815f015f9054906101000a900473ffffffffffffffffffffffffffffffffffffffff1673ffffffffffffffffffffffffffffffffffffffff1614610f3e576040517f08c379a0000000000000000000000000000000000000000000000000000000008152600401610f35906144a6565b60405180910390fd5b5f808673ffffffffffffffffffffffffffffffffffffffff1673ffffffffffffffffffffffffffffffffffffffff1681526020019081526020015f2060030160149054906101000a900460ff16610fca576040517f08c379a0000000000000000000000000000000000000000000000000000000008152600401610fc190614534565b60405180910390fd5b5f805b8260050180549050811015611068578673ffffffffffffffffffffffffffffffffffffffff1683600501828154811061100957611008614552565b5b905f5260205f20015f9054906101000a900473ffffffffffffffffffffffffffffffffffffffff1673ffffffffffffffffffffffffffffffffffffffff16036110555760019150611068565b808061106090613da0565b915050610fcd565b50806110a9576040517f08c379a00000000000000000000000000000000000000000000000000000000081526004016110a0906145ef565b60405180910390fd5b85826001015f6101000a81548173ffffffffffffffffffffffffffffffffffffffff021916908373ffffffffffffffffffffffffffffffffffffffff1602179055508573ffffffffffffffffffffffffffffffffffffffff167f3f21f8feb66724c3afed3428a04fab631ec22a91ea687abdc4798a58458cfa358860405161113191906138d9565b60405180910390a250505050505050565b5f602052805f5260405f205f91509050805f01805461116090613e6f565b80601f016020809104026020016040519081016040528092919081815260200182805461118c90613e6f565b80156111d75780601f106111ae576101008083540402835291602001916111d7565b820191905f5260205f20905b8154815290600101906020018083116111ba57829003601f168201915b5050505050908060010180546111ec90613e6f565b80601f016020809104026020016040519081016040528092919081815260200182805461121890613e6f565b80156112635780601f1061123a57610100808354040283529160200191611263565b820191905f5260205f20905b81548152906001019060200180831161124657829003601f168201915b505050505090806002015490806003015f9054906101000a900473ffffffffffffffffffffffffffffffffffffffff16908060030160149054906101000a900460ff16908060040154908060050154905087565b60045481565b6002602052805f5260405f205f91509050805f0154908060010154905082565b805f811180156112ee575060045481105b61132d576040517f08c379a000000000000000000000000000000000000000000000000000000000815260040161132490613b27565b60405180910390fd5b8160015f8281526020019081526020015f2060040160029054906101000a900460ff1615611390576040517f08c379a00000000000000000000000000000000000000000000000000000000081526004016113879061438a565b60405180910390fd5b5f60015f8581526020019081526020015f2090503373ffffffffffffffffffffffffffffffffffffffff16815f015f9054906101000a900473ffffffffffffffffffffffffffffffffffffffff1673ffffffffffffffffffffffffffffffffffffffff1614611434576040517f08c379a000000000000000000000000000000000000000000000000000000000815260040161142b9061467d565b60405180910390fd5b806004015f9054906101000a900460ff16611484576040517f08c379a000000000000000000000000000000000000000000000000000000000815260040161147b906146e5565b60405180910390fd5b8060040160019054906101000a900460ff16156114d6576040517f08c379a00000000000000000000000000000000000000000000000000000000081526004016114cd9061474d565b60405180910390fd5b5f73ffffffffffffffffffffffffffffffffffffffff16816001015f9054906101000a900473ffffffffffffffffffffffffffffffffffffffff1673ffffffffffffffffffffffffffffffffffffffff1603611567576040517f08c379a000000000000000000000000000000000000000000000000000000000815260040161155e906147b5565b60405180910390fd5b60018160040160016101000a81548160ff0219169083151502179055505f816003015490505f826001015f9054906101000a900473ffffffffffffffffffffffffffffffffffffffff1673ffffffffffffffffffffffffffffffffffffffff16826040516115d490614800565b5f6040518083038185875af1925050503d805f811461160e576040519150601f19603f3d011682016040523d82523d5f602084013e611613565b606091505b5050905080611657576040517f08c379a000000000000000000000000000000000000000000000000000000000815260040161164e9061485e565b60405180910390fd5b826001015f9054906101000a900473ffffffffffffffffffffffffffffffffffffffff1673ffffffffffffffffffffffffffffffffffffffff167f21d71db5be59bb9fa133895586b7404307dd33fb93b16db09dc6f1d9d7d231b087846040516116c29291906137d9565b60405180910390a2505050505050565b60035f9054906101000a900473ffffffffffffffffffffffffffffffffffffffff1681565b5f803373ffffffffffffffffffffffffffffffffffffffff1673ffffffffffffffffffffffffffffffffffffffff1681526020019081526020015f2060030160149054906101000a900460ff16611783576040517f08c379a000000000000000000000000000000000000000000000000000000000815260040161177a906148c6565b60405180910390fd5b805f81118015611794575060045481105b6117d3576040517f08c379a00000000000000000000000000000000000000000000000000000000081526004016117ca90613b27565b60405180910390fd5b8160015f8281526020019081526020015f2060040160029054906101000a900460ff1615611836576040517f08c379a000000000000000000000000000000000000000000000000000000000815260040161182d9061438a565b60405180910390fd5b5f60015f8581526020019081526020015f2090503373ffffffffffffffffffffffffffffffffffffffff16816001015f9054906101000a900473ffffffffffffffffffffffffffffffffffffffff1673ffffffffffffffffffffffffffffffffffffffff16146118db576040517f08c379a00000000000000000000000000000000000000000000000000000000081526004016118d29061492e565b60405180910390fd5b806004015f9054906101000a900460ff161561192c576040517f08c379a000000000000000000000000000000000000000000000000000000000815260040161192390614996565b60405180910390fd5b6001816004015f6101000a81548160ff0219169083151502179055505f803373ffffffffffffffffffffffffffffffffffffffff1673ffffffffffffffffffffffffffffffffffffffff1681526020019081526020015f206002015f81548092919061199790613da0565b91905055503373ffffffffffffffffffffffffffffffffffffffff167f16a7286196330eaff0c7db2ec34ead9c6d2d023b356b62ee7ea644c842a84b67856040516119e291906138d9565b60405180910390a250505050565b805f81118015611a01575060045481105b611a40576040517f08c379a0000000000000000000000000000000000000000000000000000000008152600401611a3790613b27565b60405180910390fd5b8160015f8281526020019081526020015f2060040160029054906101000a900460ff1615611aa3576040517f08c379a0000000000000000000000000000000000000000000000000000000008152600401611a9a9061438a565b60405180910390fd5b5f60015f8581526020019081526020015f2090505f73ffffffffffffffffffffffffffffffffffffffff16816001015f9054906101000a900473ffffffffffffffffffffffffffffffffffffffff1673ffffffffffffffffffffffffffffffffffffffff1603611b48576040517f08c379a0000000000000000000000000000000000000000000000000000000008152600401611b3f906147b5565b60405180910390fd5b806001015f9054906101000a900473ffffffffffffffffffffffffffffffffffffffff1673ffffffffffffffffffffffffffffffffffffffff163373ffffffffffffffffffffffffffffffffffffffff161480611bf25750805f015f9054906101000a900473ffffffffffffffffffffffffffffffffffffffff1673ffffffffffffffffffffffffffffffffffffffff163373ffffffffffffffffffffffffffffffffffffffff16145b611c31576040517f08c379a0000000000000000000000000000000000000000000000000000000008152600401611c28906149fe565b60405180910390fd5b8060040160019054906101000a900460ff1615611c83576040517f08c379a0000000000000000000000000000000000000000000000000000000008152600401611c7a90614a8c565b60405180910390fd5b60018160040160026101000a81548160ff0219169083151502179055503373ffffffffffffffffffffffffffffffffffffffff167f84a477df8a28a4276ca6dee4458a06c3015f30c477d9c949ede4e13ff8a552b485604051611ce691906138d9565b60405180910390a250505050565b5f8060605f805f805f806060808b5f81118015611d12575060045481105b611d51576040517f08c379a0000000000000000000000000000000000000000000000000000000008152600401611d4890613b27565b60405180910390fd5b5f60015f8f81526020019081526020015f209050805f015f9054906101000a900473ffffffffffffffffffffffffffffffffffffffff16816001015f9054906101000a900473ffffffffffffffffffffffffffffffffffffffff16826002018360030154846004015f9054906101000a900460ff168560040160019054906101000a900460ff168660040160029054906101000a900460ff168760040160039054906101000a900460ff168860040160049054906101000a900460ff16896005015f73ffffffffffffffffffffffffffffffffffffffff168b6001015f9054906101000a900473ffffffffffffffffffffffffffffffffffffffff1673ffffffffffffffffffffffffffffffffffffffff1603611e7c5760405180602001604052805f815250611f65565b5f808c6001015f9054906101000a900473ffffffffffffffffffffffffffffffffffffffff1673ffffffffffffffffffffffffffffffffffffffff1673ffffffffffffffffffffffffffffffffffffffff1681526020019081526020015f205f018054611ee890613e6f565b80601f0160208091040260200160405190810160405280929190818152602001828054611f1490613e6f565b8015611f5f5780601f10611f3657610100808354040283529160200191611f5f565b820191905f5260205f20905b815481529060010190602001808311611f4257829003601f168201915b50505050505b888054611f7190613e6f565b80601f0160208091040260200160405190810160405280929190818152602001828054611f9d90613e6f565b8015611fe85780601f10611fbf57610100808354040283529160200191611fe8565b820191905f5260205f20905b815481529060010190602001808311611fcb57829003601f168201915b505050505098508180548060200260200160405190810160405280929190818152602001828054801561206d57602002820191905f5260205f20905b815f9054906101000a900473ffffffffffffffffffffffffffffffffffffffff1673ffffffffffffffffffffffffffffffffffffffff1681526020019060010190808311612024575b505050505091509c509c509c509c509c509c509c509c509c509c509c50505091939597999b90929496989a50565b60035f9054906101000a900473ffffffffffffffffffffffffffffffffffffffff1673ffffffffffffffffffffffffffffffffffffffff163373ffffffffffffffffffffffffffffffffffffffff161461212a576040517f08c379a000000000000000000000000000000000000000000000000000000000815260040161212190614b1a565b60405180910390fd5b805f8111801561213b575060045481105b61217a576040517f08c379a000000000000000000000000000000000000000000000000000000000815260040161217190613b27565b60405180910390fd5b5f60015f8481526020019081526020015f2090508060040160029054906101000a900460ff166121df576040517f08c379a00000000000000000000000000000000000000000000000000000000081526004016121d690614b82565b60405180910390fd5b8060040160019054906101000a900460ff1615612231576040517f08c379a00000000000000000000000000000000000000000000000000000000081526004016122289061474d565b60405180910390fd5b5f73ffffffffffffffffffffffffffffffffffffffff16816001015f9054906101000a900473ffffffffffffffffffffffffffffffffffffffff1673ffffffffffffffffffffffffffffffffffffffff16036122c2576040517f08c379a00000000000000000000000000000000000000000000000000000000081526004016122b990614c10565b60405180910390fd5b60018160040160016101000a81548160ff0219169083151502179055505f60025f835f015f9054906101000a900473ffffffffffffffffffffffffffffffffffffffff1673ffffffffffffffffffffffffffffffffffffffff1673ffffffffffffffffffffffffffffffffffffffff1681526020019081526020015f2090505f805f846001015f9054906101000a900473ffffffffffffffffffffffffffffffffffffffff1673ffffffffffffffffffffffffffffffffffffffff1673ffffffffffffffffffffffffffffffffffffffff1681526020019081526020015f2090505f80835f0154116123b55760036123c9565b825f015483600101546123c89190614310565b5b90505f808360040154116123de5760036123f3565b826004015483600501546123f29190614310565b5b90508181036125f3575f6002866003015461240e9190614310565b90505f865f015f9054906101000a900473ffffffffffffffffffffffffffffffffffffffff1673ffffffffffffffffffffffffffffffffffffffff168260405161245790614800565b5f6040518083038185875af1925050503d805f8114612491576040519150601f19603f3d011682016040523d82523d5f602084013e612496565b606091505b50509050806124da576040517f08c379a00000000000000000000000000000000000000000000000000000000081526004016124d190614c9e565b60405180910390fd5b5f876001015f9054906101000a900473ffffffffffffffffffffffffffffffffffffffff1673ffffffffffffffffffffffffffffffffffffffff168389600301546125259190614cbc565b60405161253190614800565b5f6040518083038185875af1925050503d805f811461256b576040519150601f19603f3d011682016040523d82523d5f602084013e612570565b606091505b50509050806125b4576040517f08c379a00000000000000000000000000000000000000000000000000000000081526004016125ab90614d5f565b60405180910390fd5b7f831764ac02a33c193cba23a0de34c986e9b50402bf3c9febf6ff2f63d4c0435d8a6040516125e39190614ded565b60405180910390a150505061280f565b81811115612707575f856001015f9054906101000a900473ffffffffffffffffffffffffffffffffffffffff1673ffffffffffffffffffffffffffffffffffffffff16866003015460405161264790614800565b5f6040518083038185875af1925050503d805f8114612681576040519150601f19603f3d011682016040523d82523d5f602084013e612686565b606091505b50509050806126ca576040517f08c379a00000000000000000000000000000000000000000000000000000000081526004016126c190614d5f565b60405180910390fd5b7f831764ac02a33c193cba23a0de34c986e9b50402bf3c9febf6ff2f63d4c0435d886040516126f99190614e63565b60405180910390a15061280e565b5f855f015f9054906101000a900473ffffffffffffffffffffffffffffffffffffffff1673ffffffffffffffffffffffffffffffffffffffff16866003015460405161275290614800565b5f6040518083038185875af1925050503d805f811461278c576040519150601f19603f3d011682016040523d82523d5f602084013e612791565b606091505b50509050806127d5576040517f08c379a00000000000000000000000000000000000000000000000000000000081526004016127cc90614c9e565b60405180910390fd5b7f831764ac02a33c193cba23a0de34c986e9b50402bf3c9febf6ff2f63d4c0435d886040516128049190614ed9565b60405180910390a1505b5b50505050505050565b5f803373ffffffffffffffffffffffffffffffffffffffff1673ffffffffffffffffffffffffffffffffffffffff1681526020019081526020015f2060030160149054906101000a900460ff166128a4576040517f08c379a000000000000000000000000000000000000000000000000000000000815260040161289b906148c6565b60405180910390fd5b805f811180156128b5575060045481105b6128f4576040517f08c379a00000000000000000000000000000000000000000000000000000000081526004016128eb90613b27565b60405180910390fd5b815f73ffffffffffffffffffffffffffffffffffffffff1660015f8381526020019081526020015f206001015f9054906101000a900473ffffffffffffffffffffffffffffffffffffffff1673ffffffffffffffffffffffffffffffffffffffff1614612996576040517f08c379a000000000000000000000000000000000000000000000000000000000815260040161298d90614418565b60405180910390fd5b8260015f8281526020019081526020015f2060040160029054906101000a900460ff16156129f9576040517f08c379a00000000000000000000000000000000000000000000000000000000081526004016129f09061438a565b60405180910390fd5b5f60015f8681526020019081526020015f2090503373ffffffffffffffffffffffffffffffffffffffff16815f015f9054906101000a900473ffffffffffffffffffffffffffffffffffffffff1673ffffffffffffffffffffffffffffffffffffffff1603612a9d576040517f08c379a0000000000000000000000000000000000000000000000000000000008152600401612a9490614f4f565b60405180910390fd5b5f5b8160050180549050811015612b6c573373ffffffffffffffffffffffffffffffffffffffff16826005018281548110612adb57612ada614552565b5b905f5260205f20015f9054906101000a900473ffffffffffffffffffffffffffffffffffffffff1673ffffffffffffffffffffffffffffffffffffffff1603612b59576040517f08c379a0000000000000000000000000000000000000000000000000000000008152600401612b5090614fdd565b60405180910390fd5b8080612b6490613da0565b915050612a9f565b508060050133908060018154018082558091505060019003905f5260205f20015f9091909190916101000a81548173ffffffffffffffffffffffffffffffffffffffff021916908373ffffffffffffffffffffffffffffffffffffffff1602179055503373ffffffffffffffffffffffffffffffffffffffff167fffa837d183240a5f25cbd643a8eade702c0c9c3e186c59c7d929e4f1a3438d8686604051612c1591906138d9565b60405180910390a25050505050565b5f8383905011612c69576040517f08c379a0000000000000000000000000000000000000000000000000000000008152600401612c6090615045565b60405180910390fd5b803414612cab576040517f08c379a0000000000000000000000000000000000000000000000000000000008152600401612ca2906150ad565b60405180910390fd5b5f8111612ced576040517f08c379a0000000000000000000000000000000000000000000000000000000008152600401612ce490615115565b60405180910390fd5b6040518061014001604052803373ffffffffffffffffffffffffffffffffffffffff1681526020015f73ffffffffffffffffffffffffffffffffffffffff16815260200184848080601f0160208091040260200160405190810160405280939291908181526020018383808284375f81840152601f19601f8201169050808301925050505050505081526020018281526020015f151581526020015f151581526020015f151581526020015f151581526020015f151581526020015f67ffffffffffffffff811115612dc257612dc1613f6f565b5b604051908082528060200260200182016040528015612df05781602001602082028036833780820191505090505b5081525060015f60045481526020019081526020015f205f820151815f015f6101000a81548173ffffffffffffffffffffffffffffffffffffffff021916908373ffffffffffffffffffffffffffffffffffffffff1602179055506020820151816001015f6101000a81548173ffffffffffffffffffffffffffffffffffffffff021916908373ffffffffffffffffffffffffffffffffffffffff1602179055506040820151816002019081612ea69190614139565b50606082015181600301556080820151816004015f6101000a81548160ff02191690831515021790555060a08201518160040160016101000a81548160ff02191690831515021790555060c08201518160040160026101000a81548160ff02191690831515021790555060e08201518160040160036101000a81548160ff0219169083151502179055506101008201518160040160046101000a81548160ff021916908315150217905550610120820151816005019080519060200190612f6e9291906133a5565b509050503373ffffffffffffffffffffffffffffffffffffffff167fd347156c0e050f531434f3eac5fc2137040ab077ca656f465275ebe566aaf115600454858585604051612fc09493929190615133565b60405180910390a260045f815480929190612fda90613da0565b9190505550505050565b5f803373ffffffffffffffffffffffffffffffffffffffff1673ffffffffffffffffffffffffffffffffffffffff1681526020019081526020015f2060030160149054906101000a900460ff16613070576040517f08c379a0000000000000000000000000000000000000000000000000000000008152600401613067906148c6565b60405180910390fd5b805f81118015613081575060045481105b6130c0576040517f08c379a00000000000000000000000000000000000000000000000000000000081526004016130b790613b27565b60405180910390fd5b60018360ff16101580156130d8575060058360ff1611155b613117576040517f08c379a000000000000000000000000000000000000000000000000000000000815260040161310e90613b8f565b60405180910390fd5b5f60015f8481526020019081526020015f2090503373ffffffffffffffffffffffffffffffffffffffff16816001015f9054906101000a900473ffffffffffffffffffffffffffffffffffffffff1673ffffffffffffffffffffffffffffffffffffffff16146131bc576040517f08c379a00000000000000000000000000000000000000000000000000000000081526004016131b3906151e1565b60405180910390fd5b806004015f9054906101000a900460ff1661320c576040517f08c379a00000000000000000000000000000000000000000000000000000000081526004016132039061526f565b60405180910390fd5b5f15158160040160049054906101000a900460ff16151514613263576040517f08c379a000000000000000000000000000000000000000000000000000000000815260040161325a906152d7565b60405180910390fd5b5f60025f835f015f9054906101000a900473ffffffffffffffffffffffffffffffffffffffff1673ffffffffffffffffffffffffffffffffffffffff1673ffffffffffffffffffffffffffffffffffffffff1681526020019081526020015f209050805f015f8154809291906132d890613da0565b91905055508460ff16816001015f8282546132f39190613de7565b9250508190555060018260040160046101000a81548160ff0219169083151502179055503373ffffffffffffffffffffffffffffffffffffffff16825f015f9054906101000a900473ffffffffffffffffffffffffffffffffffffffff1673ffffffffffffffffffffffffffffffffffffffff167fa0b84effa00aeb81bb29f7a2eaf0cdd5e084b3e44d8136acf1661062d250b447876040516133969190613e29565b60405180910390a35050505050565b828054828255905f5260205f2090810192821561341b579160200282015b8281111561341a578251825f6101000a81548173ffffffffffffffffffffffffffffffffffffffff021916908373ffffffffffffffffffffffffffffffffffffffff160217905550916020019190600101906133c3565b5b509050613428919061342c565b5090565b5b80821115613443575f815f90555060010161342d565b5090565b5f80fd5b5f80fd5b5f60ff82169050919050565b6134648161344f565b811461346e575f80fd5b50565b5f8135905061347f8161345b565b92915050565b5f819050919050565b61349781613485565b81146134a1575f80fd5b50565b5f813590506134b28161348e565b92915050565b5f80604083850312156134ce576134cd613447565b5b5f6134db85828601613471565b92505060206134ec858286016134a4565b9150509250929050565b5f6020828403121561350b5761350a613447565b5b5f613518848285016134a4565b91505092915050565b5f73ffffffffffffffffffffffffffffffffffffffff82169050919050565b5f61354a82613521565b9050919050565b61355a81613540565b82525050565b5f81519050919050565b5f82825260208201905092915050565b5f5b8381101561359757808201518184015260208101905061357c565b5f8484015250505050565b5f601f19601f8301169050919050565b5f6135bc82613560565b6135c6818561356a565b93506135d681856020860161357a565b6135df816135a2565b840191505092915050565b6135f381613485565b82525050565b5f8115159050919050565b61360d816135f9565b82525050565b5f610120820190506136275f83018c613551565b613634602083018b613551565b8181036040830152613646818a6135b2565b905061365560608301896135ea565b6136626080830188613604565b61366f60a0830187613604565b61367c60c0830186613604565b61368960e0830185613604565b613697610100830184613604565b9a9950505050505050505050565b5f80fd5b5f80fd5b5f80fd5b5f8083601f8401126136c6576136c56136a5565b5b8235905067ffffffffffffffff8111156136e3576136e26136a9565b5b6020830191508360018202830111156136ff576136fe6136ad565b5b9250929050565b5f805f806040858703121561371e5761371d613447565b5b5f85013567ffffffffffffffff81111561373b5761373a61344b565b5b613747878288016136b1565b9450945050602085013567ffffffffffffffff81111561376a5761376961344b565b5b613776878288016136b1565b925092505092959194509250565b61378d81613540565b8114613797575f80fd5b50565b5f813590506137a881613784565b92915050565b5f602082840312156137c3576137c2613447565b5b5f6137d08482850161379a565b91505092915050565b5f6040820190506137ec5f8301856135ea565b6137f960208301846135ea565b9392505050565b5f806040838503121561381657613815613447565b5b5f613823858286016134a4565b92505060206138348582860161379a565b9150509250929050565b5f61384882613521565b9050919050565b6138588161383e565b82525050565b5f60e0820190508181035f830152613876818a6135b2565b9050818103602083015261388a81896135b2565b905061389960408301886135ea565b6138a6606083018761384f565b6138b36080830186613604565b6138c060a08301856135ea565b6138cd60c08301846135ea565b98975050505050505050565b5f6020820190506138ec5f8301846135ea565b92915050565b5f6020820190506139055f830184613551565b92915050565b5f81519050919050565b5f82825260208201905092915050565b5f819050602082019050919050565b61393d81613540565b82525050565b5f61394e8383613934565b60208301905092915050565b5f602082019050919050565b5f6139708261390b565b61397a8185613915565b935061398583613925565b805f5b838110156139b557815161399c8882613943565b97506139a78361395a565b925050600181019050613988565b5085935050505092915050565b5f610160820190506139d65f83018e613551565b6139e3602083018d613551565b81810360408301526139f5818c6135b2565b9050613a04606083018b6135ea565b613a11608083018a613604565b613a1e60a0830189613604565b613a2b60c0830188613604565b613a3860e0830187613604565b613a46610100830186613604565b818103610120830152613a598185613966565b9050818103610140830152613a6e81846135b2565b90509c9b505050505050505050505050565b5f805f60408486031215613a9757613a96613447565b5b5f84013567ffffffffffffffff811115613ab457613ab361344b565b5b613ac0868287016136b1565b93509350506020613ad3868287016134a4565b9150509250925092565b7f4a6f6220646f6573206e6f7420657869737400000000000000000000000000005f82015250565b5f613b1160128361356a565b9150613b1c82613add565b602082019050919050565b5f6020820190508181035f830152613b3e81613b05565b9050919050565b7f526174696e67206d757374206265206265747765656e203120616e64203500005f82015250565b5f613b79601e8361356a565b9150613b8482613b45565b602082019050919050565b5f6020820190508181035f830152613ba681613b6d565b9050919050565b7f4f6e6c7920636c69656e742063616e207261746520776f726b657200000000005f82015250565b5f613be1601b8361356a565b9150613bec82613bad565b602082019050919050565b5f6020820190508181035f830152613c0e81613bd5565b9050919050565b7f4a6f62206d75737420626520636f6d706c6574656420746f207261746520776f5f8201527f726b657200000000000000000000000000000000000000000000000000000000602082015250565b5f613c6f60248361356a565b9150613c7a82613c15565b604082019050919050565b5f6020820190508181035f830152613c9c81613c63565b9050919050565b7f4e6f20776f726b65722061737369676e656420746f20726174650000000000005f82015250565b5f613cd7601a8361356a565b9150613ce282613ca3565b602082019050919050565b5f6020820190508181035f830152613d0481613ccb565b9050919050565b7f4a6f6220776f726b657220616c72656164792072617465642e000000000000005f82015250565b5f613d3f60198361356a565b9150613d4a82613d0b565b602082019050919050565b5f6020820190508181035f830152613d6c81613d33565b9050919050565b7f4e487b71000000000000000000000000000000000000000000000000000000005f52601160045260245ffd5b5f613daa82613485565b91507fffffffffffffffffffffffffffffffffffffffffffffffffffffffffffffffff8203613ddc57613ddb613d73565b5b600182019050919050565b5f613df182613485565b9150613dfc83613485565b9250828201905080821115613e1457613e13613d73565b5b92915050565b613e238161344f565b82525050565b5f602082019050613e3c5f830184613e1a565b92915050565b7f4e487b71000000000000000000000000000000000000000000000000000000005f52602260045260245ffd5b5f6002820490506001821680613e8657607f821691505b602082108103613e9957613e98613e42565b5b50919050565b7f576f726b657220616c72656164792072656769737465726564000000000000005f82015250565b5f613ed360198361356a565b9150613ede82613e9f565b602082019050919050565b5f6020820190508181035f830152613f0081613ec7565b9050919050565b7f496e76616c6964206e616d65206f7220736b696c6c00000000000000000000005f82015250565b5f613f3b60158361356a565b9150613f4682613f07565b602082019050919050565b5f6020820190508181035f830152613f6881613f2f565b9050919050565b7f4e487b71000000000000000000000000000000000000000000000000000000005f52604160045260245ffd5b5f819050815f5260205f209050919050565b5f6020601f8301049050919050565b5f82821b905092915050565b5f60088302613ff87fffffffffffffffffffffffffffffffffffffffffffffffffffffffffffffffff82613fbd565b6140028683613fbd565b95508019841693508086168417925050509392505050565b5f819050919050565b5f61403d61403861403384613485565b61401a565b613485565b9050919050565b5f819050919050565b61405683614023565b61406a61406282614044565b848454613fc9565b825550505050565b5f90565b61407e614072565b61408981848461404d565b505050565b5b818110156140ac576140a15f82614076565b60018101905061408f565b5050565b601f8211156140f1576140c281613f9c565b6140cb84613fae565b810160208510156140da578190505b6140ee6140e685613fae565b83018261408e565b50505b505050565b5f82821c905092915050565b5f6141115f19846008026140f6565b1980831691505092915050565b5f6141298383614102565b9150826002028217905092915050565b61414282613560565b67ffffffffffffffff81111561415b5761415a613f6f565b5b6141658254613e6f565b6141708282856140b0565b5f60209050601f8311600181146141a1575f841561418f578287015190505b614199858261411e565b865550614200565b601f1984166141af86613f9c565b5f5b828110156141d6578489015182556001820191506020850194506020810190506141b1565b868310156141f357848901516141ef601f891682614102565b8355505b6001600288020188555050505b505050505050565b828183375f83830152505050565b5f614221838561356a565b935061422e838584614208565b614237836135a2565b840190509392505050565b5f6040820190508181035f83015261425b818688614216565b90508181036020830152614270818486614216565b905095945050505050565b7f576f726b6572206e6f74207265676973746572656400000000000000000000005f82015250565b5f6142af60158361356a565b91506142ba8261427b565b602082019050919050565b5f6020820190508181035f8301526142dc816142a3565b9050919050565b7f4e487b71000000000000000000000000000000000000000000000000000000005f52601260045260245ffd5b5f61431a82613485565b915061432583613485565b925082614335576143346142e3565b5b828204905092915050565b7f4469737075746520616c726561647920726169736564000000000000000000005f82015250565b5f61437460168361356a565b915061437f82614340565b602082019050919050565b5f6020820190508181035f8301526143a181614368565b9050919050565b7f576f726b657220616c72656164792073656c656374656420666f7220746869735f8201527f206a6f6200000000000000000000000000000000000000000000000000000000602082015250565b5f61440260248361356a565b915061440d826143a8565b604082019050919050565b5f6020820190508181035f83015261442f816143f6565b9050919050565b7f4f6e6c79206a6f6220636c69656e742063616e2073656c656374206120776f725f8201527f6b65720000000000000000000000000000000000000000000000000000000000602082015250565b5f61449060238361356a565b915061449b82614436565b604082019050919050565b5f6020820190508181035f8301526144bd81614484565b9050919050565b7f41646472657373206973206e6f742061207265676973746572656420776f726b5f8201527f6572000000000000000000000000000000000000000000000000000000000000602082015250565b5f61451e60228361356a565b9150614529826144c4565b604082019050919050565b5f6020820190508181035f83015261454b81614512565b9050919050565b7f4e487b71000000000000000000000000000000000000000000000000000000005f52603260045260245ffd5b7f576f726b657220686173206e6f74206170706c69656420666f722074686973205f8201527f6a6f620000000000000000000000000000000000000000000000000000000000602082015250565b5f6145d960238361356a565b91506145e48261457f565b604082019050919050565b5f6020820190508181035f830152614606816145cd565b9050919050565b7f4f6e6c79206a6f6220636c69656e742063616e2072656c65617365207061796d5f8201527f656e740000000000000000000000000000000000000000000000000000000000602082015250565b5f61466760238361356a565b91506146728261460d565b604082019050919050565b5f6020820190508181035f8301526146948161465b565b9050919050565b7f4a6f62206e6f7420636f6d706c657465642079657400000000000000000000005f82015250565b5f6146cf60158361356a565b91506146da8261469b565b602082019050919050565b5f6020820190508181035f8301526146fc816146c3565b9050919050565b7f5061796d656e7420616c72656164792072656c656173656400000000000000005f82015250565b5f61473760188361356a565b915061474282614703565b602082019050919050565b5f6020820190508181035f8301526147648161472b565b9050919050565b7f4e6f20776f726b65722061737369676e656420796574000000000000000000005f82015250565b5f61479f60168361356a565b91506147aa8261476b565b602082019050919050565b5f6020820190508181035f8301526147cc81614793565b9050919050565b5f81905092915050565b50565b5f6147eb5f836147d3565b91506147f6826147dd565b5f82019050919050565b5f61480a826147e0565b9150819050919050565b7f5061796d656e74207472616e73666572206661696c65640000000000000000005f82015250565b5f61484860178361356a565b915061485382614814565b602082019050919050565b5f6020820190508181035f8301526148758161483c565b9050919050565b7f4e6f742061207265676973746572656420776f726b65720000000000000000005f82015250565b5f6148b060178361356a565b91506148bb8261487c565b602082019050919050565b5f6020820190508181035f8301526148dd816148a4565b9050919050565b7f596f7520617265206e6f742061737369676e656420746f2074686973206a6f625f82015250565b5f61491860208361356a565b9150614923826148e4565b602082019050919050565b5f6020820190508181035f8301526149458161490c565b9050919050565b7f4a6f6220616c726561647920636f6d706c6574656400000000000000000000005f82015250565b5f61498060158361356a565b915061498b8261494c565b602082019050919050565b5f6020820190508181035f8301526149ad81614974565b9050919050565b7f556e617574686f72697a656400000000000000000000000000000000000000005f82015250565b5f6149e8600c8361356a565b91506149f3826149b4565b602082019050919050565b5f6020820190508181035f830152614a15816149dc565b9050919050565b7f5061796d656e7420616c72656164792072656c65617365642c206469737075745f8201527f652063616e277420626520726169736564000000000000000000000000000000602082015250565b5f614a7660318361356a565b9150614a8182614a1c565b604082019050919050565b5f6020820190508181035f830152614aa381614a6a565b9050919050565b7f4f6e6c7920636f6e7472616374206f776e65722063616e2063616c6c207468695f8201527f7300000000000000000000000000000000000000000000000000000000000000602082015250565b5f614b0460218361356a565b9150614b0f82614aaa565b604082019050919050565b5f6020820190508181035f830152614b3181614af8565b9050919050565b7f4e6f20646973707574652072616973656420666f722074686973206a6f6200005f82015250565b5f614b6c601e8361356a565b9150614b7782614b38565b602082019050919050565b5f6020820190508181035f830152614b9981614b60565b9050919050565b7f4e6f20776f726b65722061737369676e656420746f207265736f6c76652064695f8201527f737075746520666f720000000000000000000000000000000000000000000000602082015250565b5f614bfa60298361356a565b9150614c0582614ba0565b604082019050919050565b5f6020820190508181035f830152614c2781614bee565b9050919050565b7f436c69656e7420726566756e64207472616e73666572206661696c65642064755f8201527f72696e672064697370757465207265736f6c7574696f6e000000000000000000602082015250565b5f614c8860378361356a565b9150614c9382614c2e565b604082019050919050565b5f6020820190508181035f830152614cb581614c7c565b9050919050565b5f614cc682613485565b9150614cd183613485565b9250828203905081811115614ce957614ce8613d73565b5b92915050565b7f576f726b6572207061796d656e74207472616e73666572206661696c656420645f8201527f7572696e672064697370757465207265736f6c7574696f6e0000000000000000602082015250565b5f614d4960388361356a565b9150614d5482614cef565b604082019050919050565b5f6020820190508181035f830152614d7681614d3d565b9050919050565b7f5469652c2066756e64732073706c69742035302f3530206265747765656e20775f8201527f6f726b657220616e6420636c69656e7400000000000000000000000000000000602082015250565b5f614dd760308361356a565b9150614de282614d7d565b604082019050919050565b5f604082019050614e005f8301846135ea565b8181036020830152614e1181614dcb565b905092915050565b7f576f726b65722077696e732c207061796d656e742072656c65617365640000005f82015250565b5f614e4d601d8361356a565b9150614e5882614e19565b602082019050919050565b5f604082019050614e765f8301846135ea565b8181036020830152614e8781614e41565b905092915050565b7f436c69656e742077696e732c2066756e64732072657475726e656400000000005f82015250565b5f614ec3601b8361356a565b9150614ece82614e8f565b602082019050919050565b5f604082019050614eec5f8301846135ea565b8181036020830152614efd81614eb7565b905092915050565b7f436c69656e742063616e6e6f74206170706c7920666f72206f776e206a6f62005f82015250565b5f614f39601f8361356a565b9150614f4482614f05565b602082019050919050565b5f6020820190508181035f830152614f6681614f2d565b9050919050565b7f596f75206861766520616c7265616479206170706c69656420666f72207468695f8201527f73206a6f62000000000000000000000000000000000000000000000000000000602082015250565b5f614fc760258361356a565b9150614fd282614f6d565b604082019050919050565b5f6020820190508181035f830152614ff481614fbb565b9050919050565b7f4a6f62206465736372697074696f6e2063616e6e6f7420626520656d707479005f82015250565b5f61502f601f8361356a565b915061503a82614ffb565b602082019050919050565b5f6020820190508181035f83015261505c81615023565b9050919050565b7f496e636f7272656374207061796d656e7420616d6f756e7400000000000000005f82015250565b5f61509760188361356a565b91506150a282615063565b602082019050919050565b5f6020820190508181035f8301526150c48161508b565b9050919050565b7f5061796d656e74206d7573742062652067726561746572207468616e203000005f82015250565b5f6150ff601e8361356a565b915061510a826150cb565b602082019050919050565b5f6020820190508181035f83015261512c816150f3565b9050919050565b5f6060820190506151465f8301876135ea565b8181036020830152615159818587614216565b905061516860408301846135ea565b95945050505050565b7f4f6e6c7920776f726b65722061737369676e656420746f206a6f622063616e205f8201527f7261746520636c69656e74000000000000000000000000000000000000000000602082015250565b5f6151cb602b8361356a565b91506151d682615171565b604082019050919050565b5f6020820190508181035f8301526151f8816151bf565b9050919050565b7f4a6f62206d75737420626520636f6d706c6574656420746f207261746520636c5f8201527f69656e7400000000000000000000000000000000000000000000000000000000602082015250565b5f61525960248361356a565b9150615264826151ff565b604082019050919050565b5f6020820190508181035f8301526152868161524d565b9050919050565b7f4a6f6220636c69656e7420616c72656164792072617465642e000000000000005f82015250565b5f6152c160198361356a565b91506152cc8261528d565b602082019050919050565b5f6020820190508181035f8301526152ee816152b5565b905091905056fea2646970667358221220a91b48204642b0f6c6c3556dcfac9e8c98fd65fb5483120586a13f8a337c6e4264736f6c63430008150033",
  "immutableReferences": {},
  "source": "// SPDX-License-Identifier: MIT\r\npragma solidity ^0.8.20;\r\n\r\ncontract GigEconomy {\r\n    struct Worker {\r\n        string name;\r\n        string skill;\r\n        uint completedTasks;\r\n        address payable wallet;\r\n        bool isRegistered;\r\n        uint totalRatings;\r\n        uint sumRatings;\r\n    }\r\n\r\n    struct Job {\r\n        address client;\r\n        address worker;\r\n        string description;\r\n        uint payment;\r\n        bool isCompleted;\r\n        bool isPaid;\r\n        bool disputeRaised;\r\n        bool workerRated;\r\n        bool clientRated;\r\n        address[] applicants;\r\n    }\r\n\r\n    struct Client {\r\n        uint totalRatings;\r\n        uint sumRatings;\r\n    }\r\n\r\n    mapping(address => Worker) public workers;\r\n    mapping(uint => Job) public jobs;\r\n    mapping(address => Client) public clients;\r\n\r\n    address public owner;\r\n    uint public jobCounter;\r\n\r\n    event WorkerRegistered(address indexed worker, string name, string skill);\r\n    event JobPosted(\r\n        uint jobId,\r\n        address indexed client,\r\n        string description,\r\n        uint payment\r\n    );\r\n    event JobApplied(uint jobId, address indexed applicant);\r\n    event WorkerSelected(uint jobId, address indexed worker);\r\n    event JobCompleted(uint jobId, address indexed worker);\r\n    event PaymentReleased(uint jobId, address indexed worker, uint amount);\r\n    event DisputeRaised(uint jobId, address indexed user);\r\n    event DisputeResolved(uint jobId, string decision);\r\n    event RatingGiven(\r\n        address indexed target, // Renamed for clarity (can be worker or client)\r\n        address indexed rater,\r\n        uint8 rating\r\n    );\r\n\r\n    modifier onlyOwner() {\r\n        require(msg.sender == owner, \"Only contract owner can call this\");\r\n        _;\r\n    }\r\n\r\n    modifier onlyRegistered() {\r\n        require(workers[msg.sender].isRegistered, \"Not a registered worker\");\r\n        _;\r\n    }\r\n\r\n    modifier jobExists(uint _jobId) {\r\n        require(_jobId > 0 && _jobId < jobCounter, \"Job does not exist\");\r\n        _;\r\n    }\r\n\r\n     modifier jobNotTaken(uint _jobId) {\r\n        require(jobs[_jobId].worker == address(0), \"Worker already selected for this job\");\r\n        _;\r\n    }\r\n\r\n\r\n    modifier jobNotDisputed(uint _jobId) {\r\n        require(!jobs[_jobId].disputeRaised, \"Dispute already raised\");\r\n        _;\r\n    }\r\n\r\n    constructor() {\r\n        owner = msg.sender;\r\n        jobCounter = 1;\r\n    }\r\n\r\n    function registerWorker(\r\n        string calldata _name,\r\n        string calldata _skill\r\n    ) external {\r\n        require(!workers[msg.sender].isRegistered, \"Worker already registered\");\r\n        require(\r\n            bytes(_name).length > 0 && bytes(_skill).length > 0,\r\n            \"Invalid name or skill\"\r\n        );\r\n        workers[msg.sender] = Worker({\r\n            name: _name,\r\n            skill: _skill,\r\n            completedTasks: 0,\r\n            wallet: payable(msg.sender),\r\n            isRegistered: true,\r\n            totalRatings: 0,\r\n            sumRatings: 0\r\n        });\r\n        emit WorkerRegistered(msg.sender, _name, _skill);\r\n    }\r\n\r\n    function postJob(\r\n        string calldata _description,\r\n        uint _payment\r\n    ) external payable {\r\n        require(\r\n            bytes(_description).length > 0,\r\n            \"Job description cannot be empty\"\r\n        );\r\n        require(msg.value == _payment, \"Incorrect payment amount\");\r\n        require(_payment > 0, \"Payment must be greater than 0\");\r\n\r\n        jobs[jobCounter] = Job({\r\n            client: msg.sender,\r\n            worker: address(0),\r\n            description: _description,\r\n            payment: _payment,\r\n            isCompleted: false,\r\n            isPaid: false,\r\n            disputeRaised: false,\r\n            workerRated: false,\r\n            clientRated: false,\r\n            applicants: new address[](0) \r\n        });\r\n        emit JobPosted(jobCounter, msg.sender, _description, _payment);\r\n        jobCounter++;\r\n    }\r\n\r\n    function applyForJob(\r\n        uint _jobId\r\n    ) external onlyRegistered jobExists(_jobId) jobNotTaken(_jobId) jobNotDisputed(_jobId) {\r\n        Job storage job = jobs[_jobId];\r\n        require(job.client != msg.sender, \"Client cannot apply for own job\");\r\n        for (uint i = 0; i < job.applicants.length; i++) {\r\n            require(job.applicants[i] != msg.sender, \"You have already applied for this job\");\r\n        }\r\n        job.applicants.push(msg.sender);\r\n        emit JobApplied(_jobId, msg.sender);\r\n    }\r\n\r\n    function selectWorker(uint _jobId, address _workerAddress) external jobExists(_jobId) jobNotDisputed(_jobId) jobNotTaken(_jobId) {\r\n        Job storage job = jobs[_jobId];\r\n        require(job.client == msg.sender, \"Only job client can select a worker\");\r\n        require(workers[_workerAddress].isRegistered, \"Address is not a registered worker\");\r\n\r\n        bool isApplicant = false;\r\n        for (uint i = 0; i < job.applicants.length; i++) {\r\n            if (job.applicants[i] == _workerAddress) {\r\n                isApplicant = true;\r\n                break;\r\n            }\r\n        }\r\n        require(isApplicant, \"Worker has not applied for this job\");\r\n        job.worker = _workerAddress;\r\n        emit WorkerSelected(_jobId, _workerAddress);\r\n    }\r\n\r\n\r\n    function completeJob(\r\n        uint _jobId\r\n    ) external onlyRegistered jobExists(_jobId) jobNotDisputed(_jobId) {\r\n        Job storage job = jobs[_jobId];\r\n        require(job.worker == msg.sender, \"You are not assigned to this job\");\r\n        require(!job.isCompleted, \"Job already completed\");\r\n        job.isCompleted = true;\r\n        workers[msg.sender].completedTasks++;\r\n        emit JobCompleted(_jobId, msg.sender);\r\n    }\r\n\r\n    function releasePayment(\r\n        uint _jobId\r\n    ) external jobExists(_jobId) jobNotDisputed(_jobId) {\r\n        Job storage job = jobs[_jobId];\r\n        require(\r\n            job.client == msg.sender,\r\n            \"Only job client can release payment\"\r\n        );\r\n        require(job.isCompleted, \"Job not completed yet\");\r\n        require(!job.isPaid, \"Payment already released\");\r\n        require(job.worker != address(0), \"No worker assigned yet\");\r\n\r\n        job.isPaid = true;\r\n        uint paymentAmount = job.payment;\r\n        (bool success, ) = job.worker.call{value: paymentAmount}(\"\");\r\n        require(success, \"Payment transfer failed\");\r\n        emit PaymentReleased(_jobId, job.worker, paymentAmount);\r\n    }\r\n\r\n    function raiseDispute(\r\n        uint _jobId\r\n    ) external jobExists(_jobId) jobNotDisputed(_jobId) {\r\n        Job storage job = jobs[_jobId];\r\n        require(job.worker != address(0), \"No worker assigned yet\");\r\n        require(\r\n            msg.sender == job.worker || msg.sender == job.client,\r\n            \"Unauthorized\"\r\n        );\r\n        require(\r\n            !job.isPaid,\r\n            \"Payment already released, dispute can't be raised\"\r\n        );\r\n        job.disputeRaised = true;\r\n        emit DisputeRaised(_jobId, msg.sender);\r\n    }\r\n\r\n    function resolveDispute(uint _jobId) external onlyOwner jobExists(_jobId) {\r\n        Job storage job = jobs[_jobId];\r\n        require(job.disputeRaised, \"No dispute raised for this job\");\r\n        require(!job.isPaid, \"Payment already released\");\r\n        require(job.worker != address(0), \"No worker assigned to resolve dispute for\"); // Added check\r\n        job.isPaid = true;\r\n        Client storage client = clients[job.client];\r\n        Worker storage worker = workers[job.worker];\r\n        uint clientAverageRating = client.totalRatings > 0\r\n            ? client.sumRatings / client.totalRatings\r\n            : 3;\r\n        uint workerAverageRating = worker.totalRatings > 0\r\n            ? worker.sumRatings / worker.totalRatings\r\n            : 3;\r\n        if (workerAverageRating == clientAverageRating) {\r\n            uint halfPayment = job.payment / 2;\r\n            (bool successClient, ) = job.client.call{value: halfPayment}(\"\");\r\n            require(successClient, \"Client refund transfer failed during dispute resolution\");\r\n            (bool successWorker, ) = job.worker.call{value: job.payment - halfPayment}(\"\");\r\n            require(successWorker, \"Worker payment transfer failed during dispute resolution\");\r\n            emit DisputeResolved(\r\n                _jobId,\r\n                \"Tie, funds split 50/50 between worker and client\"\r\n            );\r\n        } else if (workerAverageRating > clientAverageRating) {\r\n            (bool success, ) = job.worker.call{value: job.payment}(\"\");\r\n            require(success, \"Worker payment transfer failed during dispute resolution\");\r\n            emit DisputeResolved(_jobId, \"Worker wins, payment released\");\r\n        } else {\r\n            (bool success, ) = job.client.call{value: job.payment}(\"\");\r\n            require(success, \"Client refund transfer failed during dispute resolution\");\r\n            emit DisputeResolved(_jobId, \"Client wins, funds returned\");\r\n        }\r\n    }\r\n\r\n    function rateClient(\r\n        uint8 _rating,\r\n        uint _jobId\r\n    ) external onlyRegistered jobExists(_jobId) {\r\n        require(_rating >= 1 && _rating <= 5, \"Rating must be between 1 and 5\");\r\n        Job storage job = jobs[_jobId];\r\n        require(job.worker == msg.sender, \"Only worker assigned to job can rate client\");\r\n        require(job.isCompleted, \"Job must be completed to rate client\");\r\n        require(job.clientRated == false, \"Job client already rated.\");\r\n        Client storage client = clients[job.client];\r\n        client.totalRatings++;\r\n        client.sumRatings += _rating;\r\n        job.clientRated = true;\r\n        emit RatingGiven(job.client, msg.sender, _rating);\r\n    }\r\n\r\n    function getWorkerStats(\r\n        address _worker\r\n    ) external view returns (uint completedJobs, uint averageRating) {\r\n        require(workers[_worker].isRegistered, \"Worker not registered\");\r\n        Worker storage worker = workers[_worker];\r\n        if (worker.totalRatings > 0) {\r\n            return (\r\n                worker.completedTasks,\r\n                worker.sumRatings / worker.totalRatings\r\n            );\r\n        } else {\r\n            return (worker.completedTasks, 0);\r\n        }\r\n    }\r\n\r\n    function rateWorker(\r\n        uint8 _rating,\r\n        uint _jobId\r\n    ) external jobExists(_jobId) {\r\n        require(_rating >= 1 && _rating <= 5, \"Rating must be between 1 and 5\");\r\n        Job storage job = jobs[_jobId];\r\n        require(job.client == msg.sender, \"Only client can rate worker\");\r\n        require(job.isCompleted, \"Job must be completed to rate worker\");\r\n        require(job.worker != address(0), \"No worker assigned to rate\");\r\n        require(job.workerRated == false, \"Job worker already rated.\");\r\n        Worker storage worker = workers[job.worker];\r\n        worker.totalRatings++;\r\n        worker.sumRatings += _rating;\r\n        job.workerRated = true;\r\n        emit RatingGiven(job.worker, msg.sender, _rating);\r\n    }\r\n\r\n    function getJob(\r\n        uint _jobId\r\n    )\r\n        external\r\n        view\r\n        jobExists(_jobId)\r\n        returns (\r\n            address client,\r\n            address worker,\r\n            string memory description,\r\n            uint payment,\r\n            bool isCompleted,\r\n            bool isPaid,\r\n            bool disputeRaised,\r\n            bool workerRated,\r\n            bool clientRated,\r\n            address[] memory applicants,\r\n            string memory workerName\r\n        )\r\n    {\r\n        Job storage job = jobs[_jobId];\r\n        return (\r\n            job.client,\r\n            job.worker,\r\n            job.description,\r\n            job.payment,\r\n            job.isCompleted,\r\n            job.isPaid,\r\n            job.disputeRaised,\r\n            job.workerRated,\r\n            job.clientRated,\r\n            job.applicants,\r\n            job.worker != address(0) ? workers[job.worker].name : \"\"\r\n        );\r\n    }\r\n\r\n    receive() external payable {}\r\n}",
  "sourcePath": "C:\\Users\\chira\\Desktop\\Blockchain\\Backend\\contracts\\GigEconomy.sol",
  "compiler": {
    "name": "solc",
    "version": "0.8.21+commit.d9974bed.Emscripten.clang"
  },
  "schemaVersion": "3.4.16",
  "updatedAt": "2025-05-06T14:46:01.667Z",
  "devdoc": {
    "kind": "dev",
    "methods": {},
    "version": 1
  },
  "userdoc": {
    "kind": "user",
    "methods": {},
    "version": 1
  }
}