{
  "contractName": "GigEconomy",
  "abi": [
    {
      "inputs": [],
      "stateMutability": "nonpayable",
      "type": "constructor"
    },
    {
      "anonymous": false,
      "inputs": [
        {
          "indexed": false,
          "internalType": "uint256",
          "name": "jobId",
          "type": "uint256"
        },
        {
          "indexed": true,
          "internalType": "address",
          "name": "user",
          "type": "address"
        }
      ],
      "name": "DisputeRaised",
      "type": "event"
    },
    {
      "anonymous": false,
      "inputs": [
        {
          "indexed": false,
          "internalType": "uint256",
          "name": "jobId",
          "type": "uint256"
        },
        {
          "indexed": false,
          "internalType": "string",
          "name": "decision",
          "type": "string"
        }
      ],
      "name": "DisputeResolved",
      "type": "event"
    },
    {
      "anonymous": false,
      "inputs": [
        {
          "indexed": false,
          "internalType": "uint256",
          "name": "jobId",
          "type": "uint256"
        },
        {
          "indexed": true,
          "internalType": "address",
          "name": "applicant",
          "type": "address"
        }
      ],
      "name": "JobApplied",
      "type": "event"
    },
    {
      "anonymous": false,
      "inputs": [
        {
          "indexed": false,
          "internalType": "uint256",
          "name": "jobId",
          "type": "uint256"
        },
        {
          "indexed": true,
          "internalType": "address",
          "name": "worker",
          "type": "address"
        }
      ],
      "name": "JobCompleted",
      "type": "event"
    },
    {
      "anonymous": false,
      "inputs": [
        {
          "indexed": false,
          "internalType": "uint256",
          "name": "jobId",
          "type": "uint256"
        },
        {
          "indexed": true,
          "internalType": "address",
          "name": "client",
          "type": "address"
        },
        {
          "indexed": false,
          "internalType": "string",
          "name": "description",
          "type": "string"
        },
        {
          "indexed": false,
          "internalType": "uint256",
          "name": "payment",
          "type": "uint256"
        }
      ],
      "name": "JobPosted",
      "type": "event"
    },
    {
      "anonymous": false,
      "inputs": [
        {
          "indexed": false,
          "internalType": "uint256",
          "name": "jobId",
          "type": "uint256"
        },
        {
          "indexed": true,
          "internalType": "address",
          "name": "worker",
          "type": "address"
        },
        {
          "indexed": false,
          "internalType": "uint256",
          "name": "amount",
          "type": "uint256"
        }
      ],
      "name": "PaymentReleased",
      "type": "event"
    },
    {
      "anonymous": false,
      "inputs": [
        {
          "indexed": true,
          "internalType": "address",
          "name": "target",
          "type": "address"
        },
        {
          "indexed": true,
          "internalType": "address",
          "name": "rater",
          "type": "address"
        },
        {
          "indexed": false,
          "internalType": "uint8",
          "name": "rating",
          "type": "uint8"
        }
      ],
      "name": "RatingGiven",
      "type": "event"
    },
    {
      "anonymous": false,
      "inputs": [
        {
          "indexed": true,
          "internalType": "address",
          "name": "worker",
          "type": "address"
        },
        {
          "indexed": false,
          "internalType": "string",
          "name": "name",
          "type": "string"
        },
        {
          "indexed": false,
          "internalType": "string",
          "name": "skill",
          "type": "string"
        }
      ],
      "name": "WorkerRegistered",
      "type": "event"
    },
    {
      "anonymous": false,
      "inputs": [
        {
          "indexed": false,
          "internalType": "uint256",
          "name": "jobId",
          "type": "uint256"
        },
        {
          "indexed": true,
          "internalType": "address",
          "name": "worker",
          "type": "address"
        }
      ],
      "name": "WorkerSelected",
      "type": "event"
    },
    {
      "inputs": [
        {
          "internalType": "address",
          "name": "",
          "type": "address"
        }
      ],
      "name": "clients",
      "outputs": [
        {
          "internalType": "uint256",
          "name": "totalRatings",
          "type": "uint256"
        },
        {
          "internalType": "uint256",
          "name": "sumRatings",
          "type": "uint256"
        }
      ],
      "stateMutability": "view",
      "type": "function"
    },
    {
      "inputs": [],
      "name": "jobCounter",
      "outputs": [
        {
          "internalType": "uint256",
          "name": "",
          "type": "uint256"
        }
      ],
      "stateMutability": "view",
      "type": "function"
    },
    {
      "inputs": [
        {
          "internalType": "uint256",
          "name": "",
          "type": "uint256"
        }
      ],
      "name": "jobs",
      "outputs": [
        {
          "internalType": "address",
          "name": "client",
          "type": "address"
        },
        {
          "internalType": "address",
          "name": "worker",
          "type": "address"
        },
        {
          "internalType": "string",
          "name": "description",
          "type": "string"
        },
        {
          "internalType": "uint256",
          "name": "payment",
          "type": "uint256"
        },
        {
          "internalType": "bool",
          "name": "isCompleted",
          "type": "bool"
        },
        {
          "internalType": "bool",
          "name": "isPaid",
          "type": "bool"
        },
        {
          "internalType": "bool",
          "name": "disputeRaised",
          "type": "bool"
        },
        {
          "internalType": "bool",
          "name": "workerRated",
          "type": "bool"
        },
        {
          "internalType": "bool",
          "name": "clientRated",
          "type": "bool"
        }
      ],
      "stateMutability": "view",
      "type": "function"
    },
    {
      "inputs": [],
      "name": "owner",
      "outputs": [
        {
          "internalType": "address",
          "name": "",
          "type": "address"
        }
      ],
      "stateMutability": "view",
      "type": "function"
    },
    {
      "inputs": [
        {
          "internalType": "address",
          "name": "",
          "type": "address"
        }
      ],
      "name": "workers",
      "outputs": [
        {
          "internalType": "string",
          "name": "name",
          "type": "string"
        },
        {
          "internalType": "string",
          "name": "skill",
          "type": "string"
        },
        {
          "internalType": "uint256",
          "name": "completedTasks",
          "type": "uint256"
        },
        {
          "internalType": "address payable",
          "name": "wallet",
          "type": "address"
        },
        {
          "internalType": "bool",
          "name": "isRegistered",
          "type": "bool"
        },
        {
          "internalType": "uint256",
          "name": "totalRatings",
          "type": "uint256"
        },
        {
          "internalType": "uint256",
          "name": "sumRatings",
          "type": "uint256"
        }
      ],
      "stateMutability": "view",
      "type": "function"
    },
    {
      "stateMutability": "payable",
      "type": "receive"
    },
    {
      "inputs": [
        {
          "internalType": "string",
          "name": "_name",
          "type": "string"
        },
        {
          "internalType": "string",
          "name": "_skill",
          "type": "string"
        }
      ],
      "name": "registerWorker",
      "outputs": [],
      "stateMutability": "nonpayable",
      "type": "function"
    },
    {
      "inputs": [
        {
          "internalType": "string",
          "name": "_description",
          "type": "string"
        },
        {
          "internalType": "uint256",
          "name": "_payment",
          "type": "uint256"
        }
      ],
      "name": "postJob",
      "outputs": [],
      "stateMutability": "payable",
      "type": "function"
    },
    {
      "inputs": [
        {
          "internalType": "uint256",
          "name": "_jobId",
          "type": "uint256"
        }
      ],
      "name": "applyForJob",
      "outputs": [],
      "stateMutability": "nonpayable",
      "type": "function"
    },
    {
      "inputs": [
        {
          "internalType": "uint256",
          "name": "_jobId",
          "type": "uint256"
        },
        {
          "internalType": "address",
          "name": "_workerAddress",
          "type": "address"
        }
      ],
      "name": "selectWorker",
      "outputs": [],
      "stateMutability": "nonpayable",
      "type": "function"
    },
    {
      "inputs": [
        {
          "internalType": "uint256",
          "name": "_jobId",
          "type": "uint256"
        }
      ],
      "name": "completeJob",
      "outputs": [],
      "stateMutability": "nonpayable",
      "type": "function"
    },
    {
      "inputs": [
        {
          "internalType": "uint256",
          "name": "_jobId",
          "type": "uint256"
        }
      ],
      "name": "releasePayment",
      "outputs": [],
      "stateMutability": "nonpayable",
      "type": "function"
    },
    {
      "inputs": [
        {
          "internalType": "uint256",
          "name": "_jobId",
          "type": "uint256"
        }
      ],
      "name": "raiseDispute",
      "outputs": [],
      "stateMutability": "nonpayable",
      "type": "function"
    },
    {
      "inputs": [
        {
          "internalType": "uint256",
          "name": "_jobId",
          "type": "uint256"
        }
      ],
      "name": "resolveDispute",
      "outputs": [],
      "stateMutability": "nonpayable",
      "type": "function"
    },
    {
      "inputs": [
        {
          "internalType": "uint8",
          "name": "_rating",
          "type": "uint8"
        },
        {
          "internalType": "uint256",
          "name": "_jobId",
          "type": "uint256"
        }
      ],
      "name": "rateClient",
      "outputs": [],
      "stateMutability": "nonpayable",
      "type": "function"
    },
    {
      "inputs": [
        {
          "internalType": "address",
          "name": "_worker",
          "type": "address"
        }
      ],
      "name": "getWorkerStats",
      "outputs": [
        {
          "internalType": "uint256",
          "name": "completedJobs",
          "type": "uint256"
        },
        {
          "internalType": "uint256",
          "name": "averageRating",
          "type": "uint256"
        }
      ],
      "stateMutability": "view",
      "type": "function"
    },
    {
      "inputs": [
        {
          "internalType": "address",
          "name": "_client",
          "type": "address"
        }
      ],
      "name": "getClientStats",
      "outputs": [
        {
          "internalType": "uint256",
          "name": "averageRating",
          "type": "uint256"
        }
      ],
      "stateMutability": "view",
      "type": "function"
    },
    {
      "inputs": [
        {
          "internalType": "uint8",
          "name": "_rating",
          "type": "uint8"
        },
        {
          "internalType": "uint256",
          "name": "_jobId",
          "type": "uint256"
        }
      ],
      "name": "rateWorker",
      "outputs": [],
      "stateMutability": "nonpayable",
      "type": "function"
    },
    {
      "inputs": [
        {
          "internalType": "uint256",
          "name": "_jobId",
          "type": "uint256"
        }
      ],
      "name": "getJob",
      "outputs": [
        {
          "internalType": "address",
          "name": "client",
          "type": "address"
        },
        {
          "internalType": "address",
          "name": "worker",
          "type": "address"
        },
        {
          "internalType": "string",
          "name": "description",
          "type": "string"
        },
        {
          "internalType": "uint256",
          "name": "payment",
          "type": "uint256"
        },
        {
          "internalType": "bool",
          "name": "isCompleted",
          "type": "bool"
        },
        {
          "internalType": "bool",
          "name": "isPaid",
          "type": "bool"
        },
        {
          "internalType": "bool",
          "name": "disputeRaised",
          "type": "bool"
        },
        {
          "internalType": "bool",
          "name": "workerRated",
          "type": "bool"
        },
        {
          "internalType": "bool",
          "name": "clientRated",
          "type": "bool"
        },
        {
          "internalType": "address[]",
          "name": "applicants",
          "type": "address[]"
        },
        {
          "internalType": "string",
          "name": "workerName",
          "type": "string"
        }
      ],
      "stateMutability": "view",
      "type": "function"
    }
  ],
  "bytecode": "0x608060405234801561000f575f80fd5b503360035f6101000a81548173ffffffffffffffffffffffffffffffffffffffff021916908373ffffffffffffffffffffffffffffffffffffffff1602179055506001600481905550614f27806100655f395ff3fe60806040526004361061010c575f3560e01c806388685cd911610094578063bf22c45711610063578063bf22c45714610397578063c2b7b868146103dd578063e0c94ae514610405578063eb9a4e931461042d578063f76a6c2f1461044957610113565b806388685cd9146102f55780638da5cb5b1461031d578063a1c0d32f14610347578063a5c1674e1461036f57610113565b8063365ba2dd116100db578063365ba2dd146101e7578063382b865a146102245780634048a2571461024c57806350355d761461028e57806361eed2a9146102b857610113565b80631207c03b146101175780631481cbb914610153578063180aedf31461017b5780632857a4af146101bf57610113565b3661011357005b5f80fd5b348015610122575f80fd5b5061013d60048036038101906101389190613561565b610471565b60405161014a91906135a4565b60405180910390f35b34801561015e575f80fd5b506101796004803603810190610174919061361d565b6104e2565b005b348015610186575f80fd5b506101a1600480360381019061019c919061365b565b6108a9565b6040516101b699989796959493929190613739565b60405180910390f35b3480156101ca575f80fd5b506101e560048036038101906101e0919061382c565b6109f7565b005b3480156101f2575f80fd5b5061020d60048036038101906102089190613561565b610cf0565b60405161021b9291906138aa565b60405180910390f35b34801561022f575f80fd5b5061024a600480360381019061024591906138d1565b610dfd565b005b348015610257575f80fd5b50610272600480360381019061026d9190613561565b6111fa565b604051610285979695949392919061392f565b60405180910390f35b348015610299575f80fd5b506102a261136f565b6040516102af91906135a4565b60405180910390f35b3480156102c3575f80fd5b506102de60048036038101906102d99190613561565b611375565b6040516102ec9291906138aa565b60405180910390f35b348015610300575f80fd5b5061031b6004803603810190610316919061365b565b611395565b005b348015610328575f80fd5b5061033161178a565b60405161033e91906139aa565b60405180910390f35b348015610352575f80fd5b5061036d6004803603810190610368919061365b565b6117af565b005b34801561037a575f80fd5b506103956004803603810190610390919061365b565b611aa8565b005b3480156103a2575f80fd5b506103bd60048036038101906103b8919061365b565b611dac565b6040516103d49b9a99989796959493929190613a7a565b60405180910390f35b3480156103e8575f80fd5b5061040360048036038101906103fe919061365b565b612153565b005b348015610410575f80fd5b5061042b6004803603810190610426919061365b565b6128d0565b005b61044760048036038101906104429190613b38565b612cdc565b005b348015610454575f80fd5b5061046f600480360381019061046a919061361d565b61309c565b005b5f8060025f8473ffffffffffffffffffffffffffffffffffffffff1673ffffffffffffffffffffffffffffffffffffffff1681526020019081526020015f2090505f815f015411156104d857805f015481600101546104d09190613bef565b9150506104dd565b5f9150505b919050565b805f811180156104f3575060045481105b610532576040517f08c379a000000000000000000000000000000000000000000000000000000000815260040161052990613c69565b60405180910390fd5b60018360ff161015801561054a575060058360ff1611155b610589576040517f08c379a000000000000000000000000000000000000000000000000000000000815260040161058090613cd1565b60405180910390fd5b5f60015f8481526020019081526020015f2090503373ffffffffffffffffffffffffffffffffffffffff16815f015f9054906101000a900473ffffffffffffffffffffffffffffffffffffffff1673ffffffffffffffffffffffffffffffffffffffff161461062d576040517f08c379a000000000000000000000000000000000000000000000000000000000815260040161062490613d39565b60405180910390fd5b806004015f9054906101000a900460ff1661067d576040517f08c379a000000000000000000000000000000000000000000000000000000000815260040161067490613da1565b60405180910390fd5b5f73ffffffffffffffffffffffffffffffffffffffff16816001015f9054906101000a900473ffffffffffffffffffffffffffffffffffffffff1673ffffffffffffffffffffffffffffffffffffffff160361070e576040517f08c379a000000000000000000000000000000000000000000000000000000000815260040161070590613e09565b60405180910390fd5b5f15158160040160039054906101000a900460ff16151514610765576040517f08c379a000000000000000000000000000000000000000000000000000000000815260040161075c90613e71565b60405180910390fd5b5f805f836001015f9054906101000a900473ffffffffffffffffffffffffffffffffffffffff1673ffffffffffffffffffffffffffffffffffffffff1673ffffffffffffffffffffffffffffffffffffffff1681526020019081526020015f209050806004015f8154809291906107db90613e8f565b91905055508460ff16816005015f8282546107f69190613ed6565b9250508190555060018260040160036101000a81548160ff0219169083151502179055503373ffffffffffffffffffffffffffffffffffffffff16826001015f9054906101000a900473ffffffffffffffffffffffffffffffffffffffff1673ffffffffffffffffffffffffffffffffffffffff167fa0b84effa00aeb81bb29f7a2eaf0cdd5e084b3e44d8136acf1661062d250b4478760405161089a9190613f18565b60405180910390a35050505050565b6001602052805f5260405f205f91509050805f015f9054906101000a900473ffffffffffffffffffffffffffffffffffffffff1690806001015f9054906101000a900473ffffffffffffffffffffffffffffffffffffffff169080600201805461091290613f5e565b80601f016020809104026020016040519081016040528092919081815260200182805461093e90613f5e565b80156109895780601f1061096057610100808354040283529160200191610989565b820191905f5260205f20905b81548152906001019060200180831161096c57829003601f168201915b505050505090806003015490806004015f9054906101000a900460ff16908060040160019054906101000a900460ff16908060040160029054906101000a900460ff16908060040160039054906101000a900460ff16908060040160049054906101000a900460ff16905089565b5f803373ffffffffffffffffffffffffffffffffffffffff1673ffffffffffffffffffffffffffffffffffffffff1681526020019081526020015f2060030160149054906101000a900460ff1615610a84576040517f08c379a0000000000000000000000000000000000000000000000000000000008152600401610a7b90613fd8565b60405180910390fd5b5f84849050118015610a9857505f82829050115b610ad7576040517f08c379a0000000000000000000000000000000000000000000000000000000008152600401610ace90614040565b60405180910390fd5b6040518060e0016040528085858080601f0160208091040260200160405190810160405280939291908181526020018383808284375f81840152601f19601f82011690508083019250505050505050815260200183838080601f0160208091040260200160405190810160405280939291908181526020018383808284375f81840152601f19601f8201169050808301925050505050505081526020015f81526020013373ffffffffffffffffffffffffffffffffffffffff1681526020016001151581526020015f81526020015f8152505f803373ffffffffffffffffffffffffffffffffffffffff1673ffffffffffffffffffffffffffffffffffffffff1681526020019081526020015f205f820151815f019081610bf89190614228565b506020820151816001019081610c0e9190614228565b50604082015181600201556060820151816003015f6101000a81548173ffffffffffffffffffffffffffffffffffffffff021916908373ffffffffffffffffffffffffffffffffffffffff16021790555060808201518160030160146101000a81548160ff02191690831515021790555060a0820151816004015560c082015181600501559050503373ffffffffffffffffffffffffffffffffffffffff167f608281547001972cd2b7f630473ea4db08acd5957d8a575e9e1c5ae59ce03a1585858585604051610ce29493929190614331565b60405180910390a250505050565b5f805f808473ffffffffffffffffffffffffffffffffffffffff1673ffffffffffffffffffffffffffffffffffffffff1681526020019081526020015f2060030160149054906101000a900460ff16610d7e576040517f08c379a0000000000000000000000000000000000000000000000000000000008152600401610d75906143b4565b60405180910390fd5b5f805f8573ffffffffffffffffffffffffffffffffffffffff1673ffffffffffffffffffffffffffffffffffffffff1681526020019081526020015f2090505f81600401541115610dec57806002015481600401548260050154610de29190613bef565b9250925050610df8565b80600201545f92509250505b915091565b815f81118015610e0e575060045481105b610e4d576040517f08c379a0000000000000000000000000000000000000000000000000000000008152600401610e4490613c69565b60405180910390fd5b8260015f8281526020019081526020015f2060040160029054906101000a900460ff1615610eb0576040517f08c379a0000000000000000000000000000000000000000000000000000000008152600401610ea79061441c565b60405180910390fd5b835f73ffffffffffffffffffffffffffffffffffffffff1660015f8381526020019081526020015f206001015f9054906101000a900473ffffffffffffffffffffffffffffffffffffffff1673ffffffffffffffffffffffffffffffffffffffff1614610f52576040517f08c379a0000000000000000000000000000000000000000000000000000000008152600401610f49906144aa565b60405180910390fd5b5f60015f8781526020019081526020015f2090503373ffffffffffffffffffffffffffffffffffffffff16815f015f9054906101000a900473ffffffffffffffffffffffffffffffffffffffff1673ffffffffffffffffffffffffffffffffffffffff1614610ff6576040517f08c379a0000000000000000000000000000000000000000000000000000000008152600401610fed90614512565b60405180910390fd5b5f808673ffffffffffffffffffffffffffffffffffffffff1673ffffffffffffffffffffffffffffffffffffffff1681526020019081526020015f2060030160149054906101000a900460ff16611082576040517f08c379a00000000000000000000000000000000000000000000000000000000081526004016110799061457a565b60405180910390fd5b5f805b8260050180549050811015611120578673ffffffffffffffffffffffffffffffffffffffff168360050182815481106110c1576110c0614598565b5b905f5260205f20015f9054906101000a900473ffffffffffffffffffffffffffffffffffffffff1673ffffffffffffffffffffffffffffffffffffffff160361110d5760019150611120565b808061111890613e8f565b915050611085565b5080611161576040517f08c379a00000000000000000000000000000000000000000000000000000000081526004016111589061460f565b60405180910390fd5b85826001015f6101000a81548173ffffffffffffffffffffffffffffffffffffffff021916908373ffffffffffffffffffffffffffffffffffffffff1602179055508573ffffffffffffffffffffffffffffffffffffffff167f3f21f8feb66724c3afed3428a04fab631ec22a91ea687abdc4798a58458cfa35886040516111e991906135a4565b60405180910390a250505050505050565b5f602052805f5260405f205f91509050805f01805461121890613f5e565b80601f016020809104026020016040519081016040528092919081815260200182805461124490613f5e565b801561128f5780601f106112665761010080835404028352916020019161128f565b820191905f5260205f20905b81548152906001019060200180831161127257829003601f168201915b5050505050908060010180546112a490613f5e565b80601f01602080910402602001604051908101604052809291908181526020018280546112d090613f5e565b801561131b5780601f106112f25761010080835404028352916020019161131b565b820191905f5260205f20905b8154815290600101906020018083116112fe57829003601f168201915b505050505090806002015490806003015f9054906101000a900473ffffffffffffffffffffffffffffffffffffffff16908060030160149054906101000a900460ff16908060040154908060050154905087565b60045481565b6002602052805f5260405f205f91509050805f0154908060010154905082565b805f811180156113a6575060045481105b6113e5576040517f08c379a00000000000000000000000000000000000000000000000000000000081526004016113dc90613c69565b60405180910390fd5b8160015f8281526020019081526020015f2060040160029054906101000a900460ff1615611448576040517f08c379a000000000000000000000000000000000000000000000000000000000815260040161143f9061441c565b60405180910390fd5b5f60015f8581526020019081526020015f2090503373ffffffffffffffffffffffffffffffffffffffff16815f015f9054906101000a900473ffffffffffffffffffffffffffffffffffffffff1673ffffffffffffffffffffffffffffffffffffffff16146114ec576040517f08c379a00000000000000000000000000000000000000000000000000000000081526004016114e390614677565b60405180910390fd5b806004015f9054906101000a900460ff1661153c576040517f08c379a000000000000000000000000000000000000000000000000000000000815260040161153390613da1565b60405180910390fd5b8060040160019054906101000a900460ff161561158e576040517f08c379a0000000000000000000000000000000000000000000000000000000008152600401611585906146df565b60405180910390fd5b5f73ffffffffffffffffffffffffffffffffffffffff16816001015f9054906101000a900473ffffffffffffffffffffffffffffffffffffffff1673ffffffffffffffffffffffffffffffffffffffff160361161f576040517f08c379a000000000000000000000000000000000000000000000000000000000815260040161161690613e09565b60405180910390fd5b60018160040160016101000a81548160ff0219169083151502179055505f816003015490505f826001015f9054906101000a900473ffffffffffffffffffffffffffffffffffffffff1673ffffffffffffffffffffffffffffffffffffffff168260405161168c9061472a565b5f6040518083038185875af1925050503d805f81146116c6576040519150601f19603f3d011682016040523d82523d5f602084013e6116cb565b606091505b505090508061170f576040517f08c379a000000000000000000000000000000000000000000000000000000000815260040161170690614788565b60405180910390fd5b826001015f9054906101000a900473ffffffffffffffffffffffffffffffffffffffff1673ffffffffffffffffffffffffffffffffffffffff167f21d71db5be59bb9fa133895586b7404307dd33fb93b16db09dc6f1d9d7d231b0878460405161177a9291906138aa565b60405180910390a2505050505050565b60035f9054906101000a900473ffffffffffffffffffffffffffffffffffffffff1681565b5f803373ffffffffffffffffffffffffffffffffffffffff1673ffffffffffffffffffffffffffffffffffffffff1681526020019081526020015f2060030160149054906101000a900460ff1661183b576040517f08c379a0000000000000000000000000000000000000000000000000000000008152600401611832906147f0565b60405180910390fd5b805f8111801561184c575060045481105b61188b576040517f08c379a000000000000000000000000000000000000000000000000000000000815260040161188290613c69565b60405180910390fd5b8160015f8281526020019081526020015f2060040160029054906101000a900460ff16156118ee576040517f08c379a00000000000000000000000000000000000000000000000000000000081526004016118e59061441c565b60405180910390fd5b5f60015f8581526020019081526020015f2090503373ffffffffffffffffffffffffffffffffffffffff16816001015f9054906101000a900473ffffffffffffffffffffffffffffffffffffffff1673ffffffffffffffffffffffffffffffffffffffff1614611993576040517f08c379a000000000000000000000000000000000000000000000000000000000815260040161198a90614858565b60405180910390fd5b806004015f9054906101000a900460ff16156119e4576040517f08c379a00000000000000000000000000000000000000000000000000000000081526004016119db906148c0565b60405180910390fd5b6001816004015f6101000a81548160ff0219169083151502179055505f803373ffffffffffffffffffffffffffffffffffffffff1673ffffffffffffffffffffffffffffffffffffffff1681526020019081526020015f206002015f815480929190611a4f90613e8f565b91905055503373ffffffffffffffffffffffffffffffffffffffff167f16a7286196330eaff0c7db2ec34ead9c6d2d023b356b62ee7ea644c842a84b6785604051611a9a91906135a4565b60405180910390a250505050565b805f81118015611ab9575060045481105b611af8576040517f08c379a0000000000000000000000000000000000000000000000000000000008152600401611aef90613c69565b60405180910390fd5b8160015f8281526020019081526020015f2060040160029054906101000a900460ff1615611b5b576040517f08c379a0000000000000000000000000000000000000000000000000000000008152600401611b529061441c565b60405180910390fd5b5f60015f8581526020019081526020015f2090505f73ffffffffffffffffffffffffffffffffffffffff16816001015f9054906101000a900473ffffffffffffffffffffffffffffffffffffffff1673ffffffffffffffffffffffffffffffffffffffff1603611c00576040517f08c379a0000000000000000000000000000000000000000000000000000000008152600401611bf790613e09565b60405180910390fd5b806001015f9054906101000a900473ffffffffffffffffffffffffffffffffffffffff1673ffffffffffffffffffffffffffffffffffffffff163373ffffffffffffffffffffffffffffffffffffffff161480611caa5750805f015f9054906101000a900473ffffffffffffffffffffffffffffffffffffffff1673ffffffffffffffffffffffffffffffffffffffff163373ffffffffffffffffffffffffffffffffffffffff16145b611ce9576040517f08c379a0000000000000000000000000000000000000000000000000000000008152600401611ce090614928565b60405180910390fd5b8060040160019054906101000a900460ff1615611d3b576040517f08c379a0000000000000000000000000000000000000000000000000000000008152600401611d32906149b6565b60405180910390fd5b60018160040160026101000a81548160ff0219169083151502179055503373ffffffffffffffffffffffffffffffffffffffff167f84a477df8a28a4276ca6dee4458a06c3015f30c477d9c949ede4e13ff8a552b485604051611d9e91906135a4565b60405180910390a250505050565b5f8060605f805f805f806060808b5f81118015611dca575060045481105b611e09576040517f08c379a0000000000000000000000000000000000000000000000000000000008152600401611e0090613c69565b60405180910390fd5b5f60015f8f81526020019081526020015f209050805f015f9054906101000a900473ffffffffffffffffffffffffffffffffffffffff16816001015f9054906101000a900473ffffffffffffffffffffffffffffffffffffffff16826002018360030154846004015f9054906101000a900460ff168560040160019054906101000a900460ff168660040160029054906101000a900460ff168760040160039054906101000a900460ff168860040160049054906101000a900460ff16896005015f73ffffffffffffffffffffffffffffffffffffffff168b6001015f9054906101000a900473ffffffffffffffffffffffffffffffffffffffff1673ffffffffffffffffffffffffffffffffffffffff1603611f345760405180602001604052805f81525061201d565b5f808c6001015f9054906101000a900473ffffffffffffffffffffffffffffffffffffffff1673ffffffffffffffffffffffffffffffffffffffff1673ffffffffffffffffffffffffffffffffffffffff1681526020019081526020015f205f018054611fa090613f5e565b80601f0160208091040260200160405190810160405280929190818152602001828054611fcc90613f5e565b80156120175780601f10611fee57610100808354040283529160200191612017565b820191905f5260205f20905b815481529060010190602001808311611ffa57829003601f168201915b50505050505b88805461202990613f5e565b80601f016020809104026020016040519081016040528092919081815260200182805461205590613f5e565b80156120a05780601f10612077576101008083540402835291602001916120a0565b820191905f5260205f20905b81548152906001019060200180831161208357829003601f168201915b505050505098508180548060200260200160405190810160405280929190818152602001828054801561212557602002820191905f5260205f20905b815f9054906101000a900473ffffffffffffffffffffffffffffffffffffffff1673ffffffffffffffffffffffffffffffffffffffff16815260200190600101908083116120dc575b505050505091509c509c509c509c509c509c509c509c509c509c509c50505091939597999b90929496989a50565b60035f9054906101000a900473ffffffffffffffffffffffffffffffffffffffff1673ffffffffffffffffffffffffffffffffffffffff163373ffffffffffffffffffffffffffffffffffffffff16146121e2576040517f08c379a00000000000000000000000000000000000000000000000000000000081526004016121d990614a44565b60405180910390fd5b805f811180156121f3575060045481105b612232576040517f08c379a000000000000000000000000000000000000000000000000000000000815260040161222990613c69565b60405180910390fd5b5f60015f8481526020019081526020015f2090508060040160029054906101000a900460ff16612297576040517f08c379a000000000000000000000000000000000000000000000000000000000815260040161228e90614aac565b60405180910390fd5b8060040160019054906101000a900460ff16156122e9576040517f08c379a00000000000000000000000000000000000000000000000000000000081526004016122e0906146df565b60405180910390fd5b5f73ffffffffffffffffffffffffffffffffffffffff16816001015f9054906101000a900473ffffffffffffffffffffffffffffffffffffffff1673ffffffffffffffffffffffffffffffffffffffff160361237a576040517f08c379a000000000000000000000000000000000000000000000000000000000815260040161237190613e09565b60405180910390fd5b60018160040160016101000a81548160ff0219169083151502179055505f60025f835f015f9054906101000a900473ffffffffffffffffffffffffffffffffffffffff1673ffffffffffffffffffffffffffffffffffffffff1673ffffffffffffffffffffffffffffffffffffffff1681526020019081526020015f2090505f805f846001015f9054906101000a900473ffffffffffffffffffffffffffffffffffffffff1673ffffffffffffffffffffffffffffffffffffffff1673ffffffffffffffffffffffffffffffffffffffff1681526020019081526020015f2090505f80835f01541161246d576003612481565b825f015483600101546124809190613bef565b5b90505f808360040154116124965760036124ab565b826004015483600501546124aa9190613bef565b5b90508181036126ab575f600286600301546124c69190613bef565b90505f865f015f9054906101000a900473ffffffffffffffffffffffffffffffffffffffff1673ffffffffffffffffffffffffffffffffffffffff168260405161250f9061472a565b5f6040518083038185875af1925050503d805f8114612549576040519150601f19603f3d011682016040523d82523d5f602084013e61254e565b606091505b5050905080612592576040517f08c379a000000000000000000000000000000000000000000000000000000000815260040161258990614b14565b60405180910390fd5b5f876001015f9054906101000a900473ffffffffffffffffffffffffffffffffffffffff1673ffffffffffffffffffffffffffffffffffffffff168389600301546125dd9190614b32565b6040516125e99061472a565b5f6040518083038185875af1925050503d805f8114612623576040519150601f19603f3d011682016040523d82523d5f602084013e612628565b606091505b505090508061266c576040517f08c379a000000000000000000000000000000000000000000000000000000000815260040161266390614b14565b60405180910390fd5b7f831764ac02a33c193cba23a0de34c986e9b50402bf3c9febf6ff2f63d4c0435d8a60405161269b9190614baf565b60405180910390a15050506128c7565b818111156127bf575f856001015f9054906101000a900473ffffffffffffffffffffffffffffffffffffffff1673ffffffffffffffffffffffffffffffffffffffff1686600301546040516126ff9061472a565b5f6040518083038185875af1925050503d805f8114612739576040519150601f19603f3d011682016040523d82523d5f602084013e61273e565b606091505b5050905080612782576040517f08c379a000000000000000000000000000000000000000000000000000000000815260040161277990614b14565b60405180910390fd5b7f831764ac02a33c193cba23a0de34c986e9b50402bf3c9febf6ff2f63d4c0435d886040516127b19190614baf565b60405180910390a1506128c6565b5f855f015f9054906101000a900473ffffffffffffffffffffffffffffffffffffffff1673ffffffffffffffffffffffffffffffffffffffff16866003015460405161280a9061472a565b5f6040518083038185875af1925050503d805f8114612844576040519150601f19603f3d011682016040523d82523d5f602084013e612849565b606091505b505090508061288d576040517f08c379a000000000000000000000000000000000000000000000000000000000815260040161288490614b14565b60405180910390fd5b7f831764ac02a33c193cba23a0de34c986e9b50402bf3c9febf6ff2f63d4c0435d886040516128bc9190614baf565b60405180910390a1505b5b50505050505050565b5f803373ffffffffffffffffffffffffffffffffffffffff1673ffffffffffffffffffffffffffffffffffffffff1681526020019081526020015f2060030160149054906101000a900460ff1661295c576040517f08c379a0000000000000000000000000000000000000000000000000000000008152600401612953906147f0565b60405180910390fd5b805f8111801561296d575060045481105b6129ac576040517f08c379a00000000000000000000000000000000000000000000000000000000081526004016129a390613c69565b60405180910390fd5b815f73ffffffffffffffffffffffffffffffffffffffff1660015f8381526020019081526020015f206001015f9054906101000a900473ffffffffffffffffffffffffffffffffffffffff1673ffffffffffffffffffffffffffffffffffffffff1614612a4e576040517f08c379a0000000000000000000000000000000000000000000000000000000008152600401612a45906144aa565b60405180910390fd5b8260015f8281526020019081526020015f2060040160029054906101000a900460ff1615612ab1576040517f08c379a0000000000000000000000000000000000000000000000000000000008152600401612aa89061441c565b60405180910390fd5b5f60015f8681526020019081526020015f2090503373ffffffffffffffffffffffffffffffffffffffff16815f015f9054906101000a900473ffffffffffffffffffffffffffffffffffffffff1673ffffffffffffffffffffffffffffffffffffffff1603612b55576040517f08c379a0000000000000000000000000000000000000000000000000000000008152600401612b4c90614c25565b60405180910390fd5b5f5b8160050180549050811015612c24573373ffffffffffffffffffffffffffffffffffffffff16826005018281548110612b9357612b92614598565b5b905f5260205f20015f9054906101000a900473ffffffffffffffffffffffffffffffffffffffff1673ffffffffffffffffffffffffffffffffffffffff1603612c11576040517f08c379a0000000000000000000000000000000000000000000000000000000008152600401612c0890614c8d565b60405180910390fd5b8080612c1c90613e8f565b915050612b57565b508060050133908060018154018082558091505060019003905f5260205f20015f9091909190916101000a81548173ffffffffffffffffffffffffffffffffffffffff021916908373ffffffffffffffffffffffffffffffffffffffff1602179055503373ffffffffffffffffffffffffffffffffffffffff167fffa837d183240a5f25cbd643a8eade702c0c9c3e186c59c7d929e4f1a3438d8686604051612ccd91906135a4565b60405180910390a25050505050565b5f8383905011612d21576040517f08c379a0000000000000000000000000000000000000000000000000000000008152600401612d1890614cf5565b60405180910390fd5b803414612d63576040517f08c379a0000000000000000000000000000000000000000000000000000000008152600401612d5a90614d5d565b60405180910390fd5b5f8111612da5576040517f08c379a0000000000000000000000000000000000000000000000000000000008152600401612d9c90614dc5565b60405180910390fd5b6040518061014001604052803373ffffffffffffffffffffffffffffffffffffffff1681526020015f73ffffffffffffffffffffffffffffffffffffffff16815260200184848080601f0160208091040260200160405190810160405280939291908181526020018383808284375f81840152601f19601f8201169050808301925050505050505081526020018281526020015f151581526020015f151581526020015f151581526020015f151581526020015f151581526020015f67ffffffffffffffff811115612e7a57612e7961405e565b5b604051908082528060200260200182016040528015612ea85781602001602082028036833780820191505090505b5081525060015f60045481526020019081526020015f205f820151815f015f6101000a81548173ffffffffffffffffffffffffffffffffffffffff021916908373ffffffffffffffffffffffffffffffffffffffff1602179055506020820151816001015f6101000a81548173ffffffffffffffffffffffffffffffffffffffff021916908373ffffffffffffffffffffffffffffffffffffffff1602179055506040820151816002019081612f5e9190614228565b50606082015181600301556080820151816004015f6101000a81548160ff02191690831515021790555060a08201518160040160016101000a81548160ff02191690831515021790555060c08201518160040160026101000a81548160ff02191690831515021790555060e08201518160040160036101000a81548160ff0219169083151502179055506101008201518160040160046101000a81548160ff02191690831515021790555061012082015181600501908051906020019061302692919061345d565b509050503373ffffffffffffffffffffffffffffffffffffffff167fd347156c0e050f531434f3eac5fc2137040ab077ca656f465275ebe566aaf1156004548585856040516130789493929190614de3565b60405180910390a260045f81548092919061309290613e8f565b9190505550505050565b5f803373ffffffffffffffffffffffffffffffffffffffff1673ffffffffffffffffffffffffffffffffffffffff1681526020019081526020015f2060030160149054906101000a900460ff16613128576040517f08c379a000000000000000000000000000000000000000000000000000000000815260040161311f906147f0565b60405180910390fd5b805f81118015613139575060045481105b613178576040517f08c379a000000000000000000000000000000000000000000000000000000000815260040161316f90613c69565b60405180910390fd5b60018360ff1610158015613190575060058360ff1611155b6131cf576040517f08c379a00000000000000000000000000000000000000000000000000000000081526004016131c690613cd1565b60405180910390fd5b5f60015f8481526020019081526020015f2090503373ffffffffffffffffffffffffffffffffffffffff16816001015f9054906101000a900473ffffffffffffffffffffffffffffffffffffffff1673ffffffffffffffffffffffffffffffffffffffff1614613274576040517f08c379a000000000000000000000000000000000000000000000000000000000815260040161326b90614e6b565b60405180910390fd5b806004015f9054906101000a900460ff166132c4576040517f08c379a00000000000000000000000000000000000000000000000000000000081526004016132bb90613da1565b60405180910390fd5b5f15158160040160049054906101000a900460ff1615151461331b576040517f08c379a000000000000000000000000000000000000000000000000000000000815260040161331290614ed3565b60405180910390fd5b5f60025f835f015f9054906101000a900473ffffffffffffffffffffffffffffffffffffffff1673ffffffffffffffffffffffffffffffffffffffff1673ffffffffffffffffffffffffffffffffffffffff1681526020019081526020015f209050805f015f81548092919061339090613e8f565b91905055508460ff16816001015f8282546133ab9190613ed6565b9250508190555060018260040160046101000a81548160ff0219169083151502179055503373ffffffffffffffffffffffffffffffffffffffff16825f015f9054906101000a900473ffffffffffffffffffffffffffffffffffffffff1673ffffffffffffffffffffffffffffffffffffffff167fa0b84effa00aeb81bb29f7a2eaf0cdd5e084b3e44d8136acf1661062d250b4478760405161344e9190613f18565b60405180910390a35050505050565b828054828255905f5260205f209081019282156134d3579160200282015b828111156134d2578251825f6101000a81548173ffffffffffffffffffffffffffffffffffffffff021916908373ffffffffffffffffffffffffffffffffffffffff1602179055509160200191906001019061347b565b5b5090506134e091906134e4565b5090565b5b808211156134fb575f815f9055506001016134e5565b5090565b5f80fd5b5f80fd5b5f73ffffffffffffffffffffffffffffffffffffffff82169050919050565b5f61353082613507565b9050919050565b61354081613526565b811461354a575f80fd5b50565b5f8135905061355b81613537565b92915050565b5f60208284031215613576576135756134ff565b5b5f6135838482850161354d565b91505092915050565b5f819050919050565b61359e8161358c565b82525050565b5f6020820190506135b75f830184613595565b92915050565b5f60ff82169050919050565b6135d2816135bd565b81146135dc575f80fd5b50565b5f813590506135ed816135c9565b92915050565b6135fc8161358c565b8114613606575f80fd5b50565b5f81359050613617816135f3565b92915050565b5f8060408385031215613633576136326134ff565b5b5f613640858286016135df565b925050602061365185828601613609565b9150509250929050565b5f602082840312156136705761366f6134ff565b5b5f61367d84828501613609565b91505092915050565b61368f81613526565b82525050565b5f81519050919050565b5f82825260208201905092915050565b5f5b838110156136cc5780820151818401526020810190506136b1565b5f8484015250505050565b5f601f19601f8301169050919050565b5f6136f182613695565b6136fb818561369f565b935061370b8185602086016136af565b613714816136d7565b840191505092915050565b5f8115159050919050565b6137338161371f565b82525050565b5f6101208201905061374d5f83018c613686565b61375a602083018b613686565b818103604083015261376c818a6136e7565b905061377b6060830189613595565b613788608083018861372a565b61379560a083018761372a565b6137a260c083018661372a565b6137af60e083018561372a565b6137bd61010083018461372a565b9a9950505050505050505050565b5f80fd5b5f80fd5b5f80fd5b5f8083601f8401126137ec576137eb6137cb565b5b8235905067ffffffffffffffff811115613809576138086137cf565b5b602083019150836001820283011115613825576138246137d3565b5b9250929050565b5f805f8060408587031215613844576138436134ff565b5b5f85013567ffffffffffffffff81111561386157613860613503565b5b61386d878288016137d7565b9450945050602085013567ffffffffffffffff8111156138905761388f613503565b5b61389c878288016137d7565b925092505092959194509250565b5f6040820190506138bd5f830185613595565b6138ca6020830184613595565b9392505050565b5f80604083850312156138e7576138e66134ff565b5b5f6138f485828601613609565b92505060206139058582860161354d565b9150509250929050565b5f61391982613507565b9050919050565b6139298161390f565b82525050565b5f60e0820190508181035f830152613947818a6136e7565b9050818103602083015261395b81896136e7565b905061396a6040830188613595565b6139776060830187613920565b613984608083018661372a565b61399160a0830185613595565b61399e60c0830184613595565b98975050505050505050565b5f6020820190506139bd5f830184613686565b92915050565b5f81519050919050565b5f82825260208201905092915050565b5f819050602082019050919050565b6139f581613526565b82525050565b5f613a0683836139ec565b60208301905092915050565b5f602082019050919050565b5f613a28826139c3565b613a3281856139cd565b9350613a3d836139dd565b805f5b83811015613a6d578151613a5488826139fb565b9750613a5f83613a12565b925050600181019050613a40565b5085935050505092915050565b5f61016082019050613a8e5f83018e613686565b613a9b602083018d613686565b8181036040830152613aad818c6136e7565b9050613abc606083018b613595565b613ac9608083018a61372a565b613ad660a083018961372a565b613ae360c083018861372a565b613af060e083018761372a565b613afe61010083018661372a565b818103610120830152613b118185613a1e565b9050818103610140830152613b2681846136e7565b90509c9b505050505050505050505050565b5f805f60408486031215613b4f57613b4e6134ff565b5b5f84013567ffffffffffffffff811115613b6c57613b6b613503565b5b613b78868287016137d7565b93509350506020613b8b86828701613609565b9150509250925092565b7f4e487b71000000000000000000000000000000000000000000000000000000005f52601260045260245ffd5b7f4e487b71000000000000000000000000000000000000000000000000000000005f52601160045260245ffd5b5f613bf98261358c565b9150613c048361358c565b925082613c1457613c13613b95565b5b828204905092915050565b7f4a6f6220646f6573206e6f7420657869737400000000000000000000000000005f82015250565b5f613c5360128361369f565b9150613c5e82613c1f565b602082019050919050565b5f6020820190508181035f830152613c8081613c47565b9050919050565b7f526174696e67204d757374204265204265747765656e203120616e64203500005f82015250565b5f613cbb601e8361369f565b9150613cc682613c87565b602082019050919050565b5f6020820190508181035f830152613ce881613caf565b9050919050565b7f4f6e6c7920436c69656e742043616e20526174650000000000000000000000005f82015250565b5f613d2360148361369f565b9150613d2e82613cef565b602082019050919050565b5f6020820190508181035f830152613d5081613d17565b9050919050565b7f4a6f62204e6f7420436f6d706c657465640000000000000000000000000000005f82015250565b5f613d8b60118361369f565b9150613d9682613d57565b602082019050919050565b5f6020820190508181035f830152613db881613d7f565b9050919050565b7f4e6f20576f726b65722041737369676e656400000000000000000000000000005f82015250565b5f613df360128361369f565b9150613dfe82613dbf565b602082019050919050565b5f6020820190508181035f830152613e2081613de7565b9050919050565b7f576f726b657220416c72656164792052617465642e00000000000000000000005f82015250565b5f613e5b60158361369f565b9150613e6682613e27565b602082019050919050565b5f6020820190508181035f830152613e8881613e4f565b9050919050565b5f613e998261358c565b91507fffffffffffffffffffffffffffffffffffffffffffffffffffffffffffffffff8203613ecb57613eca613bc2565b5b600182019050919050565b5f613ee08261358c565b9150613eeb8361358c565b9250828201905080821115613f0357613f02613bc2565b5b92915050565b613f12816135bd565b82525050565b5f602082019050613f2b5f830184613f09565b92915050565b7f4e487b71000000000000000000000000000000000000000000000000000000005f52602260045260245ffd5b5f6002820490506001821680613f7557607f821691505b602082108103613f8857613f87613f31565b5b50919050565b7f576f726b657220416c72656164792052656769737465726564000000000000005f82015250565b5f613fc260198361369f565b9150613fcd82613f8e565b602082019050919050565b5f6020820190508181035f830152613fef81613fb6565b9050919050565b7f496e76616c6964204e616d65206f7220536b696c6c00000000000000000000005f82015250565b5f61402a60158361369f565b915061403582613ff6565b602082019050919050565b5f6020820190508181035f8301526140578161401e565b9050919050565b7f4e487b71000000000000000000000000000000000000000000000000000000005f52604160045260245ffd5b5f819050815f5260205f209050919050565b5f6020601f8301049050919050565b5f82821b905092915050565b5f600883026140e77fffffffffffffffffffffffffffffffffffffffffffffffffffffffffffffffff826140ac565b6140f186836140ac565b95508019841693508086168417925050509392505050565b5f819050919050565b5f61412c6141276141228461358c565b614109565b61358c565b9050919050565b5f819050919050565b61414583614112565b61415961415182614133565b8484546140b8565b825550505050565b5f90565b61416d614161565b61417881848461413c565b505050565b5b8181101561419b576141905f82614165565b60018101905061417e565b5050565b601f8211156141e0576141b18161408b565b6141ba8461409d565b810160208510156141c9578190505b6141dd6141d58561409d565b83018261417d565b50505b505050565b5f82821c905092915050565b5f6142005f19846008026141e5565b1980831691505092915050565b5f61421883836141f1565b9150826002028217905092915050565b61423182613695565b67ffffffffffffffff81111561424a5761424961405e565b5b6142548254613f5e565b61425f82828561419f565b5f60209050601f831160018114614290575f841561427e578287015190505b614288858261420d565b8655506142ef565b601f19841661429e8661408b565b5f5b828110156142c5578489015182556001820191506020850194506020810190506142a0565b868310156142e257848901516142de601f8916826141f1565b8355505b6001600288020188555050505b505050505050565b828183375f83830152505050565b5f614310838561369f565b935061431d8385846142f7565b614326836136d7565b840190509392505050565b5f6040820190508181035f83015261434a818688614305565b9050818103602083015261435f818486614305565b905095945050505050565b7f576f726b6572204e6f74205265676973746572656400000000000000000000005f82015250565b5f61439e60158361369f565b91506143a98261436a565b602082019050919050565b5f6020820190508181035f8301526143cb81614392565b9050919050565b7f4469737075746520616c726561647920726169736564000000000000000000005f82015250565b5f61440660168361369f565b9150614411826143d2565b602082019050919050565b5f6020820190508181035f830152614433816143fa565b9050919050565b7f576f726b657220616c72656164792073656c656374656420666f7220746869735f8201527f206a6f6200000000000000000000000000000000000000000000000000000000602082015250565b5f61449460248361369f565b915061449f8261443a565b604082019050919050565b5f6020820190508181035f8301526144c181614488565b9050919050565b7f4f6e6c7920436c69656e742043616e2053656c656374000000000000000000005f82015250565b5f6144fc60168361369f565b9150614507826144c8565b602082019050919050565b5f6020820190508181035f830152614529816144f0565b9050919050565b7f4e6f742041205265676973746572656420576f726b65720000000000000000005f82015250565b5f61456460178361369f565b915061456f82614530565b602082019050919050565b5f6020820190508181035f83015261459181614558565b9050919050565b7f4e487b71000000000000000000000000000000000000000000000000000000005f52603260045260245ffd5b7f576f726b657220486173204e6f74204170706c696564000000000000000000005f82015250565b5f6145f960168361369f565b9150614604826145c5565b602082019050919050565b5f6020820190508181035f830152614626816145ed565b9050919050565b7f4f6e6c7920436c69656e742043616e2052656c65617365205061796d656e74005f82015250565b5f614661601f8361369f565b915061466c8261462d565b602082019050919050565b5f6020820190508181035f83015261468e81614655565b9050919050565b7f5061796d656e7420416c72656164792052656c656173656400000000000000005f82015250565b5f6146c960188361369f565b91506146d482614695565b602082019050919050565b5f6020820190508181035f8301526146f6816146bd565b9050919050565b5f81905092915050565b50565b5f6147155f836146fd565b915061472082614707565b5f82019050919050565b5f6147348261470a565b9150819050919050565b7f5061796d656e74205472616e73666572204661696c65640000000000000000005f82015250565b5f61477260178361369f565b915061477d8261473e565b602082019050919050565b5f6020820190508181035f83015261479f81614766565b9050919050565b7f4e6f742061207265676973746572656420776f726b65720000000000000000005f82015250565b5f6147da60178361369f565b91506147e5826147a6565b602082019050919050565b5f6020820190508181035f830152614807816147ce565b9050919050565b7f4a6f62204e6f742041737369676e656420546f20596f750000000000000000005f82015250565b5f61484260178361369f565b915061484d8261480e565b602082019050919050565b5f6020820190508181035f83015261486f81614836565b9050919050565b7f416c726561647920436f6d706c657465640000000000000000000000000000005f82015250565b5f6148aa60118361369f565b91506148b582614876565b602082019050919050565b5f6020820190508181035f8301526148d78161489e565b9050919050565b7f556e617574686f72697a656400000000000000000000000000000000000000005f82015250565b5f614912600c8361369f565b915061491d826148de565b602082019050919050565b5f6020820190508181035f83015261493f81614906565b9050919050565b7f5061796d656e7420416c72656164792052656c65617365642c204469737075745f8201527f652043616e277420426520526169736564000000000000000000000000000000602082015250565b5f6149a060318361369f565b91506149ab82614946565b604082019050919050565b5f6020820190508181035f8301526149cd81614994565b9050919050565b7f4f6e6c7920636f6e7472616374206f776e65722063616e2063616c6c207468695f8201527f7300000000000000000000000000000000000000000000000000000000000000602082015250565b5f614a2e60218361369f565b9150614a39826149d4565b604082019050919050565b5f6020820190508181035f830152614a5b81614a22565b9050919050565b7f4e6f204469737075746520466f7220546865204a6f62000000000000000000005f82015250565b5f614a9660168361369f565b9150614aa182614a62565b602082019050919050565b5f6020820190508181035f830152614ac381614a8a565b9050919050565b7f5472616e73666572204661696c656400000000000000000000000000000000005f82015250565b5f614afe600f8361369f565b9150614b0982614aca565b602082019050919050565b5f6020820190508181035f830152614b2b81614af2565b9050919050565b5f614b3c8261358c565b9150614b478361358c565b9250828203905081811115614b5f57614b5e613bc2565b5b92915050565b7f44697370757465205265736f6c766564000000000000000000000000000000005f82015250565b5f614b9960108361369f565b9150614ba482614b65565b602082019050919050565b5f604082019050614bc25f830184613595565b8181036020830152614bd381614b8d565b905092915050565b7f43616e6e6f74204170706c7920466f72204f776e204a6f6200000000000000005f82015250565b5f614c0f60188361369f565b9150614c1a82614bdb565b602082019050919050565b5f6020820190508181035f830152614c3c81614c03565b9050919050565b7f416c7265616479204170706c69656400000000000000000000000000000000005f82015250565b5f614c77600f8361369f565b9150614c8282614c43565b602082019050919050565b5f6020820190508181035f830152614ca481614c6b565b9050919050565b7f4465736372697074696f6e2063616e6e6f7420626520656d70747900000000005f82015250565b5f614cdf601b8361369f565b9150614cea82614cab565b602082019050919050565b5f6020820190508181035f830152614d0c81614cd3565b9050919050565b7f496e636f727265637420416d6f756e74000000000000000000000000000000005f82015250565b5f614d4760108361369f565b9150614d5282614d13565b602082019050919050565b5f6020820190508181035f830152614d7481614d3b565b9050919050565b7f5061796d656e74204d7573742042652047726561746572205468616e203000005f82015250565b5f614daf601e8361369f565b9150614dba82614d7b565b602082019050919050565b5f6020820190508181035f830152614ddc81614da3565b9050919050565b5f606082019050614df65f830187613595565b8181036020830152614e09818587614305565b9050614e186040830184613595565b95945050505050565b7f4f6e6c792041737369676e656420576f726b65722043616e20526174650000005f82015250565b5f614e55601d8361369f565b9150614e6082614e21565b602082019050919050565b5f6020820190508181035f830152614e8281614e49565b9050919050565b7f436c69656e7420416c72656164792052617465642e00000000000000000000005f82015250565b5f614ebd60158361369f565b9150614ec882614e89565b602082019050919050565b5f6020820190508181035f830152614eea81614eb1565b905091905056fea26469706673582212206af144660c04733dfd9f5d9a9ac5733f14fbbb44d64071e3f14335d8c13ec87064736f6c63430008150033",
  "immutableReferences": {},
  "source": "// SPDX-License-Identifier: MIT\r\npragma solidity ^0.8.20;\r\n\r\ncontract GigEconomy {\r\n    struct Worker {\r\n        string name;\r\n        string skill;\r\n        uint completedTasks;\r\n        address payable wallet;\r\n        bool isRegistered;\r\n        uint totalRatings;\r\n        uint sumRatings;\r\n    }\r\n\r\n    struct Job {\r\n        address client;\r\n        address worker;\r\n        string description;\r\n        uint payment;\r\n        bool isCompleted;\r\n        bool isPaid;\r\n        bool disputeRaised;\r\n        bool workerRated;\r\n        bool clientRated;\r\n        address[] applicants;\r\n    }\r\n\r\n    struct Client {\r\n        uint totalRatings;\r\n        uint sumRatings;\r\n    }\r\n\r\n    mapping(address => Worker) public workers;\r\n    mapping(uint => Job) public jobs;\r\n    mapping(address => Client) public clients;\r\n\r\n    address public owner;\r\n    uint public jobCounter;\r\n\r\n    event WorkerRegistered(address indexed worker, string name, string skill);\r\n    event JobPosted(\r\n        uint jobId,\r\n        address indexed client,\r\n        string description,\r\n        uint payment\r\n    );\r\n    event JobApplied(uint jobId, address indexed applicant);\r\n    event WorkerSelected(uint jobId, address indexed worker);\r\n    event JobCompleted(uint jobId, address indexed worker);\r\n    event PaymentReleased(uint jobId, address indexed worker, uint amount);\r\n    event DisputeRaised(uint jobId, address indexed user);\r\n    event DisputeResolved(uint jobId, string decision);\r\n    event RatingGiven(\r\n        address indexed target, // Renamed for clarity (can be worker or client)\r\n        address indexed rater,\r\n        uint8 rating\r\n    );\r\n\r\n    modifier onlyOwner() {\r\n        require(msg.sender == owner, \"Only contract owner can call this\");\r\n        _;\r\n    }\r\n\r\n    modifier onlyRegistered() {\r\n        require(workers[msg.sender].isRegistered, \"Not a registered worker\");\r\n        _;\r\n    }\r\n\r\n    modifier jobExists(uint _jobId) {\r\n        require(_jobId > 0 && _jobId < jobCounter, \"Job does not exist\");\r\n        _;\r\n    }\r\n\r\n    modifier jobNotTaken(uint _jobId) {\r\n        require(\r\n            jobs[_jobId].worker == address(0),\r\n            \"Worker already selected for this job\"\r\n        );\r\n        _;\r\n    }\r\n\r\n    modifier jobNotDisputed(uint _jobId) {\r\n        require(!jobs[_jobId].disputeRaised, \"Dispute already raised\");\r\n        _;\r\n    }\r\n\r\n    constructor() {\r\n        owner = msg.sender;\r\n        jobCounter = 1;\r\n    }\r\n\r\n    function registerWorker(\r\n        string calldata _name,\r\n        string calldata _skill\r\n    ) external {\r\n        require(!workers[msg.sender].isRegistered, \"Worker Already Registered\");\r\n        require(\r\n            bytes(_name).length > 0 && bytes(_skill).length > 0,\r\n            \"Invalid Name or Skill\"\r\n        );\r\n        workers[msg.sender] = Worker({\r\n            name: _name,\r\n            skill: _skill,\r\n            completedTasks: 0,\r\n            wallet: payable(msg.sender),\r\n            isRegistered: true,\r\n            totalRatings: 0,\r\n            sumRatings: 0\r\n        });\r\n        emit WorkerRegistered(msg.sender, _name, _skill);\r\n    }\r\n\r\n    function postJob(\r\n        string calldata _description,\r\n        uint _payment\r\n    ) external payable {\r\n        require(\r\n            bytes(_description).length > 0,\r\n            \"Description cannot be empty\"\r\n        );\r\n        require(msg.value == _payment, \"Incorrect Amount\");\r\n        require(_payment > 0, \"Payment Must Be Greater Than 0\");\r\n\r\n        jobs[jobCounter] = Job({\r\n            client: msg.sender,\r\n            worker: address(0),\r\n            description: _description,\r\n            payment: _payment,\r\n            isCompleted: false,\r\n            isPaid: false,\r\n            disputeRaised: false,\r\n            workerRated: false,\r\n            clientRated: false,\r\n            applicants: new address[](0)\r\n        });\r\n        emit JobPosted(jobCounter, msg.sender, _description, _payment);\r\n        jobCounter++;\r\n    }\r\n\r\n    function applyForJob(\r\n        uint _jobId\r\n    )\r\n        external\r\n        onlyRegistered\r\n        jobExists(_jobId)\r\n        jobNotTaken(_jobId)\r\n        jobNotDisputed(_jobId)\r\n    {\r\n        Job storage job = jobs[_jobId];\r\n        require(job.client != msg.sender, \"Cannot Apply For Own Job\");\r\n        for (uint i = 0; i < job.applicants.length; i++) {\r\n            require(\r\n                job.applicants[i] != msg.sender,\r\n                \"Already Applied\"\r\n            );\r\n        }\r\n        job.applicants.push(msg.sender);\r\n        emit JobApplied(_jobId, msg.sender);\r\n    }\r\n\r\n    function selectWorker(\r\n        uint _jobId,\r\n        address _workerAddress\r\n    ) external jobExists(_jobId) jobNotDisputed(_jobId) jobNotTaken(_jobId) {\r\n        Job storage job = jobs[_jobId];\r\n        require(\r\n            job.client == msg.sender,\r\n            \"Only Client Can Select\"\r\n        );\r\n        require(\r\n            workers[_workerAddress].isRegistered,\r\n            \"Not A Registered Worker\"\r\n        );\r\n\r\n        bool isApplicant = false;\r\n        for (uint i = 0; i < job.applicants.length; i++) {\r\n            if (job.applicants[i] == _workerAddress) {\r\n                isApplicant = true;\r\n                break;\r\n            }\r\n        }\r\n        require(isApplicant, \"Worker Has Not Applied\");\r\n        job.worker = _workerAddress;\r\n        emit WorkerSelected(_jobId, _workerAddress);\r\n    }\r\n\r\n    function completeJob(\r\n        uint _jobId\r\n    ) external onlyRegistered jobExists(_jobId) jobNotDisputed(_jobId) {\r\n        Job storage job = jobs[_jobId];\r\n        require(job.worker == msg.sender, \"Job Not Assigned To You\");\r\n        require(!job.isCompleted, \"Already Completed\");\r\n        job.isCompleted = true;\r\n        workers[msg.sender].completedTasks++;\r\n        emit JobCompleted(_jobId, msg.sender);\r\n    }\r\n\r\n    function releasePayment(\r\n        uint _jobId\r\n    ) external jobExists(_jobId) jobNotDisputed(_jobId) {\r\n        Job storage job = jobs[_jobId];\r\n        require(\r\n            job.client == msg.sender,\r\n            \"Only Client Can Release Payment\"\r\n        );\r\n        require(job.isCompleted, \"Job Not Completed\");\r\n        require(!job.isPaid, \"Payment Already Released\");\r\n        require(job.worker != address(0), \"No Worker Assigned\");\r\n\r\n        job.isPaid = true;\r\n        uint paymentAmount = job.payment;\r\n        (bool success, ) = job.worker.call{value: paymentAmount}(\"\");\r\n        require(success, \"Payment Transfer Failed\");\r\n        emit PaymentReleased(_jobId, job.worker, paymentAmount);\r\n    }\r\n\r\n    function raiseDispute(\r\n        uint _jobId\r\n    ) external jobExists(_jobId) jobNotDisputed(_jobId) {\r\n        Job storage job = jobs[_jobId];\r\n        require(job.worker != address(0), \"No Worker Assigned\");\r\n        require(\r\n            msg.sender == job.worker || msg.sender == job.client,\r\n            \"Unauthorized\"\r\n        );\r\n        require(\r\n            !job.isPaid,\r\n            \"Payment Already Released, Dispute Can't Be Raised\"\r\n        );\r\n        job.disputeRaised = true;\r\n        emit DisputeRaised(_jobId, msg.sender);\r\n    }\r\n\r\n    function resolveDispute(uint _jobId) external onlyOwner jobExists(_jobId) {\r\n        Job storage job = jobs[_jobId];\r\n        require(job.disputeRaised, \"No Dispute For The Job\");\r\n        require(!job.isPaid, \"Payment Already Released\");\r\n        require(\r\n            job.worker != address(0),\r\n            \"No Worker Assigned\"\r\n        );\r\n        job.isPaid = true;\r\n        Client storage client = clients[job.client];\r\n        Worker storage worker = workers[job.worker];\r\n        uint clientAverageRating = client.totalRatings > 0\r\n            ? client.sumRatings / client.totalRatings\r\n            : 3;\r\n        uint workerAverageRating = worker.totalRatings > 0\r\n            ? worker.sumRatings / worker.totalRatings\r\n            : 3;\r\n        if (workerAverageRating == clientAverageRating) {\r\n            uint halfPayment = job.payment / 2;\r\n            (bool successClient, ) = job.client.call{value: halfPayment}(\"\");\r\n            require(\r\n                successClient,\r\n                \"Transfer Failed\"\r\n            );\r\n            (bool successWorker, ) = job.worker.call{\r\n                value: job.payment - halfPayment\r\n            }(\"\");\r\n            require(\r\n                successWorker,\r\n                \"Transfer Failed\"\r\n            );\r\n            emit DisputeResolved(\r\n                _jobId,\r\n                \"Dispute Resolved\"\r\n            );\r\n        } else if (workerAverageRating > clientAverageRating) {\r\n            (bool success, ) = job.worker.call{value: job.payment}(\"\");\r\n            require(\r\n                success,\r\n                \"Transfer Failed\"\r\n            );\r\n            emit DisputeResolved(_jobId, \"Dispute Resolved\");\r\n        } else {\r\n            (bool success, ) = job.client.call{value: job.payment}(\"\");\r\n            require(\r\n                success,\r\n                \"Transfer Failed\"\r\n            );\r\n            emit DisputeResolved(_jobId, \"Dispute Resolved\");\r\n        }\r\n    }\r\n\r\n    function rateClient(\r\n        uint8 _rating,\r\n        uint _jobId\r\n    ) external onlyRegistered jobExists(_jobId) {\r\n        require(_rating >= 1 && _rating <= 5, \"Rating Must Be Between 1 and 5\");\r\n        Job storage job = jobs[_jobId];\r\n        require(\r\n            job.worker == msg.sender,\r\n            \"Only Assigned Worker Can Rate\"\r\n        );\r\n        require(job.isCompleted, \"Job Not Completed\");\r\n        require(job.clientRated == false, \"Client Already Rated.\");\r\n        Client storage client = clients[job.client];\r\n        client.totalRatings++;\r\n        client.sumRatings += _rating;\r\n        job.clientRated = true;\r\n        emit RatingGiven(job.client, msg.sender, _rating);\r\n    }\r\n\r\n    function getWorkerStats(\r\n        address _worker\r\n    ) external view returns (uint completedJobs, uint averageRating) {\r\n        require(workers[_worker].isRegistered, \"Worker Not Registered\");\r\n        Worker storage worker = workers[_worker];\r\n        if (worker.totalRatings > 0) {\r\n            return (\r\n                worker.completedTasks,\r\n                worker.sumRatings / worker.totalRatings\r\n            );\r\n        } else {\r\n            return (worker.completedTasks, 0);\r\n        }\r\n    }\r\n\r\n    function getClientStats(\r\n        address _client\r\n    ) external view returns (uint averageRating) {\r\n        Client storage client = clients[_client];\r\n\r\n        if (client.totalRatings > 0) {\r\n            return (\r\n                client.sumRatings / client.totalRatings\r\n            );\r\n        } else {\r\n            return (0);\r\n        }\r\n    }\r\n\r\n    function rateWorker(uint8 _rating, uint _jobId) external jobExists(_jobId) {\r\n        require(_rating >= 1 && _rating <= 5, \"Rating Must Be Between 1 and 5\");\r\n        Job storage job = jobs[_jobId];\r\n        require(job.client == msg.sender, \"Only Client Can Rate\");\r\n        require(job.isCompleted, \"Job Not Completed\");\r\n        require(job.worker != address(0), \"No Worker Assigned\");\r\n        require(job.workerRated == false, \"Worker Already Rated.\");\r\n        Worker storage worker = workers[job.worker];\r\n        worker.totalRatings++;\r\n        worker.sumRatings += _rating;\r\n        job.workerRated = true;\r\n        emit RatingGiven(job.worker, msg.sender, _rating);\r\n    }\r\n\r\n    function getJob(\r\n        uint _jobId\r\n    )\r\n        external\r\n        view\r\n        jobExists(_jobId)\r\n        returns (\r\n            address client,\r\n            address worker,\r\n            string memory description,\r\n            uint payment,\r\n            bool isCompleted,\r\n            bool isPaid,\r\n            bool disputeRaised,\r\n            bool workerRated,\r\n            bool clientRated,\r\n            address[] memory applicants,\r\n            string memory workerName\r\n        )\r\n    {\r\n        Job storage job = jobs[_jobId];\r\n        return (\r\n            job.client,\r\n            job.worker,\r\n            job.description,\r\n            job.payment,\r\n            job.isCompleted,\r\n            job.isPaid,\r\n            job.disputeRaised,\r\n            job.workerRated,\r\n            job.clientRated,\r\n            job.applicants,\r\n            job.worker != address(0) ? workers[job.worker].name : \"\"\r\n        );\r\n    }\r\n\r\n    receive() external payable {}\r\n}\r\n",
  "sourcePath": "C:\\Users\\chira\\Desktop\\Blockchain\\Backend\\contracts\\GigEconomy.sol",
  "compiler": {
    "name": "solc",
    "version": "0.8.21+commit.d9974bed.Emscripten.clang"
  },
  "schemaVersion": "3.4.16",
  "updatedAt": "2025-05-06T19:25:55.068Z",
  "devdoc": {
    "kind": "dev",
    "methods": {},
    "version": 1
  },
  "userdoc": {
    "kind": "user",
    "methods": {},
    "version": 1
  }
}